:020000021000EC
:10020000F82B0020B10D0100DD0E01000B8B010069
:10021000358B01005F8B0100B38B0100898B0100DE
:100220000000000000000000000000005534010044
:10023000DD0E010000000000DD0E0100DD0E0100FA
:10024000DD0E0100DD0E010000000000B94E0100CE
:1002500000000000DD0E01000000000000000000B2
:10026000DD0E0100DD0E0100DD0E0100DD0E0100DE
:10027000DD0E0100DD0E0100DD0E0100DD0E0100CE
:10028000DD0E0100DD0E0100000000000000000096
:10029000DD0E0100DD0E0100000000000000000086
:1002A000DD0E0100DD0E0100DD0E0100DD0E01009E
:1002B000DD0E0100DD0E0100DD0E0100DD0E01008E
:1002C000DD0E0100DD0E0100DD0E0100DD0E01007E
:1002D000DD0E010000000000DD0E01000000000046
:1002E000DD0E010000000000DD0E0100DD0E01004A
:1002F00000000000DD0E010000000000DD0E010026
:10030000000000000000000000000000DD0E010001
:10031000DD0E010000000000DD0E0100DD0E010019
:1003200000000000DD0E01000000000000000000E1
:1003300000000000000000000000000000000000BD
:1003400000000000000000000000000000000000AD
:04035000DD0E0100BD
:1003540000015F5F00000000FE0B00009535010006
:100364008006000000000000000000000000000003
:1003740000000000000000002042002000000000F7
:1003840001015F5F030100001F0100005F0901001C
:100394000000000000000000010000000100000057
:1003A4000000000000000000000000000000000049
:1003B400700000000093010080000000000F0000A6
:1003C400010000008F09010001015F5F04010000CA
:1003D4001F010000F30C01000000000000000000F9
:1003E4000000000001000000000000000000000008
:1003F40000000000000000000C9301004000000019
:0C0404000507000001000000B70C01001B
:1004200080B483B000AF7860054A7B68C2F80434BA
:10043000002318460C37BD465DF8047B704700BFAB
:10044000203C002080B483B000AF7860054BD3F827
:1004500004247B681A60002318460C37BD465DF8FB
:10046000047B7047203C002080B483B000AF7860EC
:1004700039607B68033323F003037B60104BD3F8B0
:100480000034C3F580637A689A4202D96FF08C0316
:100490000FE00B4BD3F80034094A1A443B681A604A
:1004A000074BD3F800247B681344054AC2F8003494
:1004B000002318460C37BD465DF8047B704700BF2B
:1004C000203C002080B500AF084B0022C3F8042474
:1004D000064BD3F800341A460021044808F0F7FB15
:1004E000024B0022C3F8002400BF80BD203C002046
:1004F00080B58AB000AFF860B9607A603B606FF099
:1005000096037B62FB681B683B620023BB61002390
:100510003B6100237B610023FB77FB685B68382B22
:1005200002D06FF0800393E03B6A1B8DBB77BB7FEB
:10053000022B04D0BB7F002B01D0012300E000235D
:10054000FB77FB7F03F00103FB77FB7F002B0FD0D2
:1005500007F11803184600F0B0F878627B6A002BA8
:1005600001D07B6A74E03B6A1B683B61BB697B61BD
:10057000BB7F092B6AD801A252F823F02F06010095
:10058000A5050100B7050100C3050100D50501005F
:10059000E7050100F90501000B0601001D06010039
:1005A0003B06010007F110031A467968F86800F06D
:1005B00062FA03464CE07968F86800F009FA0346ED
:1005C00046E007F110031A467968F86800F00DFA62
:1005D00003463DE007F110031A467968F86800F019
:1005E000E9F9034634E007F110031A467968F86820
:1005F00000F009FA03462BE007F110031A46796868
:10060000F86800F00EFA034622E007F110031A46DC
:100610007968F86800F013FA034619E007F110034F
:100620001A467968F86800F018FA034610E079680D
:10063000F86800F02EFA03460AE007F110031A46A4
:100640007968F86800F039FA034601E06FF0850335
:1006500018462837BD4680BD80B500AF282200214E
:10066000024808F034FB0023184680BD28400020D3
:1006700080B500AF0F220349034808F0E1FA024BAE
:10068000184680BD040D01005040002080B500AF29
:100690000121034805F09EFC0023184680BD00BFE1
:1006A0006440002080B582B000AF78607868FFF7C2
:1006B000B7FE00BF0837BD4680BD80B582B000AF31
:1006C00078607868FFF7BEFE034618460837BD46D7
:1006D00080BDB0B588B000AFF860B9607A603B60AB
:1006E00000237B610123FB612EE0FB68FA69043281
:1006F00053F8223007F1140211461846FFF7B4FEF2
:10070000B861BB69002B03D0FFF7DCFEBB694DE08D
:10071000FB6858687969FB68FA69043253F822501B
:10072000FB69DB00BA68D4182B460A46F96908F061
:1007300042FB03466360FB69DB00BA6813447A69D5
:100740001A60FB690133FB61FA697B689A42CCD37A
:100750000023FB6125E0FB68FA69083253F8223078
:1007600007F1140211461846FFF77EFEB861BB6917
:10077000002B03D0FFF7A6FEBB6917E0FB69DB0087
:100780003A6813447A691A60FB69DB003A681344DB
:10079000FA68F969083152F821205A60FB6901337F
:1007A000FB61FA693B6B9A42D5D300231846203788
:1007B000BD46B0BD80B5A6B002AF78600023C7F8D3
:1007C00080300423C7F88C300423C7F8883007F141
:1007D000600320220021184608F079FA07F140034F
:1007E00020220021184608F072FA07F10803382287
:1007F0000021184608F06BFA04E0D7F88C30013B72
:10080000C7F88C30D7F88C30002B0ED0D7F88C304E
:100810005A1E7B68043253F82230002BEDD004E0DE
:10082000D7F88830013BC7F88830D7F88830002BDC
:1008300008D0D7F888305A1E7B68083253F8223027
:10084000002BEDD0D7F88C30002B02D16FF0830352
:1008500060E07B68586807F108023823002108F03F
:10086000AAFA0346382B02D06FF0830352E007F157
:1008700008033B6638237B6607F1400207F16001FD
:10088000D7F8883000931346D7F88C207868FFF7A4
:1008900020FFC7F88000D7F88030002B02D0D7F8AF
:1008A000803037E07B689B681846FFF7FBFE07F156
:1008B000400207F16000D7F88830D7F88C10FFF7B6
:1008C00017FEC7F880000023C7F8843018E07B6863
:1008D0005868D7F88430DB0090333B4453F8502CF1
:1008E000D7F88430DB0090333B4453F84C3CD7F8C6
:1008F000841008F07FFAD7F884300133C7F88430C9
:10090000D7F88420D7F888309A42E0D3FFF7DAFD91
:10091000D7F8803018469037BD4680BD80B582B08C
:1009200000AF6FF083037B6000233B60FFF7A0FE06
:100930003860FFF7ABFE78607B68002B01D07B68E6
:1009400002E005F0D5FB034618460837BD4680BDDA
:1009500080B500AFFFF780FE0346184680BD80B526
:1009600082B000AFFFF7F4FF78607B68002B01D006
:100970007B6808E0FFF7D2FF78607B68002B01D02E
:100980007B6800E0002318460837BD4680BD80B56F
:1009900082B000AF78607B681B68002B04D1786858
:1009A000FFF708FF034601E06FF08503184608379C
:1009B000BD4680BD80B485B000AFF860B9607A6094
:1009C0006FF0850318461437BD465DF8047B704709
:1009D00080B483B000AF786039606FF0850318464B
:1009E0000C37BD465DF8047B704780B485B000AF1E
:1009F000F860B9607A606FF0850318461437BD4619
:100A00005DF8047B704780B485B000AFF860B960D2
:100A10007A606FF0850318461437BD465DF8047B95
:100A2000704780B485B000AFF860B9607A606FF04D
:100A3000850318461437BD465DF8047B704780B4C3
:100A400085B000AFF860B9607A606FF08503184632
:100A50001437BD465DF8047B704780B485B000AFA5
:100A6000F860B9607A606FF0850318461437BD46A8
:100A70005DF8047B704780B485B000AFF860B96062
:100A80007A606FF0850318461437BD465DF8047B25
:100A9000704780B584B000AF786039603B681B68F0
:100AA000FB603B685B68BB60B968F86805F00EFBEB
:100AB000034618461037BD4680BD80B485B000AFF0
:100AC000F860B9607A606FF0850318461437BD4648
:100AD0005DF8047B704780B500AF01F069FF00232B
:100AE000184680BD80B582B000AF7860FFF7F3FF95
:100AF000034618460837BD4680BD80B5AEB000AF8E
:100B000078600023C7F8B4300023C7F8B03007F18D
:100B1000940300221A605A6007F18C0300221A60C5
:100B20005A600023FB6407F150033C220021184661
:100B300008F0CDF80023FB6007F110033C220021F0
:100B4000184608F0C4F80023BB600123C7F8A4309E
:100B50000023C7F8A0300423C7F8AC300423C7F83B
:100B6000A83004E0D7F8AC30013BC7F8AC30D7F878
:100B7000AC30002B0ED0D7F8AC305A1E7B68043254
:100B800053F82230002BEDD004E0D7F8A830013B19
:100B9000C7F8A830D7F8A830002B08D0D7F8A8306D
:100BA0005A1E7B68083253F82230002BEDD0D7F85C
:100BB000AC30002B07D0D7F8AC30022B03D8D7F8D5
:100BC000A830012B01D9012371E07B68586807F137
:100BD00008020423002108F0EEF80346C7F8A0300D
:100BE000D7F8A030042B02D06FF080035FE0D7F875
:100BF000AC30012B2BD97B685B69C7F89C30D7F8E8
:100C00009C30402B02D96FF0890350E07B68586814
:100C10007B685B6907F14C02012108F0CCF80346C0
:100C2000C7F8A030D7F8A030D7F89C209A4202D05D
:100C30006FF080033BE007F14C03C7F89430D7F81E
:100C40009C30C7F8983007F19403C7F8B430D7F850
:100C5000A830002B12D07B681B6A402B02D96FF0A2
:100C6000800324E007F10C03C7F88C307B681B6A13
:100C7000C7F8903007F18C03C7F8B030BB68D7F8DD
:100C8000B020D7F8B410184601F0ECFEC7F8A40065
:100C9000D7F8B030002B08D07B685868D7F88C2084
:100CA000D7F89030002108F0A5F8D7F8A4301846FE
:100CB000B837BD4680BD80B582B000AF78607B6834
:100CC0001B68B3F57D7F04D040F2F532934205D026
:100CD00009E07868FFF706FF034606E07868FFF74B
:100CE0000CFF034601E06FF0850318460837BD4648
:100CF00080BD80B400AF00231846BD465DF8047B7C
:100D0000704700004D62656420544C5320332E35EB
:100D10002E30000000000000000000000000000075
:080D2000284F00000100000053
:100D280040BC0100804000204500000040BC01009C
:100D3800203C00200000000040BC0100003C0020D6
:100D48000000000094410020B1050000203C002074
:100D580018010000003C00200800000080B400AF2B
:100D6800BFF35F8F00BF0B4B5B6A0A4A23F48033E3
:100D78005362094B5B68084A23F001035360BFF3D1
:100D88004F8F00BFBFF36F8F00BF00BFBD465DF838
:100D9800047B704700ED00E090ED00E080B500AF07
:100DA80003F03CFC00BF80BD80B58CB000AF72B6CC
:100DB80000BF00237B607B6883F31488BFF36F8FC9
:100DC80000BF00BF0023BB60BB6883F30A8800BF75
:100DD8000023FB60FB6883F30B8800BFFFF7BEFFAF
:100DE800334B344A9A6000F0ABF8334B3B613B69B4
:100DF80083F3098800BF314B7B617B6983F30A88E1
:100E080000BF2E4BBB61BB6983F30B8800BF2C4B23
:100E1800FB61F96924A3D3E90023C1E9002300BFDA
:100E280000F0BEFA274BFB6219E00023BB620EE01C
:100E3800FB6A1A68BB6A9B001A44FB6A5968BB6A5A
:100E48009B000B4412681A60BB6A0133BB62FB6AE1
:100E58009B68BA6A9A42EBD3FB6A0C33FB62FB6A63
:100E6800194A9342E1D3194B7B6214E000233B6299
:100E780009E07B6A1A683B6A9B00134400221A60E7
:100E88003B6A01333B627B6A5B683A6A9A42F0D3F9
:100E98007B6A08337B627B6A0D4A9342E6D304F08F
:100EA800D3FE00BFAFF30080A5EDF5FEA5EDF5FE7E
:100EB80000ED00E000020100F82B002000240020D3
:100EC800F82B0020280D01004C0D01004C0D0100ED
:100ED800640D0100EFF30880EFF309812DE9F00FAD
:100EE8006B46724600F0DEFB08B0FFF757FFFEE7DF
:100EF80000BF000080B500AF024801F019FA00BF3A
:100F080080BD00BF0070015080B500AF084801F0F7
:100F18001EFA084801F01BFA074801F02EFA0748A4
:100F280001F02BFAFFF7E6FF01F046FA00BF80BD9B
:100F380000400150005001500080005000900050C7
:100F480080B584B000AF72B600BF00233B603B6839
:100F580083F3138800BF00237B607B6883F31188C9
:100F680000BF0023FB6009E0154AFB6820334FF0FF
:100F7800FF3142F82310FB680133FB60FB680F2B3D
:100F8800F2D90023BB6009E00D4ABB6860334FF01B
:100F9800FF3142F82310BB680133BB60BB680F2BDD
:100FA800F2D9FFF7B1FF62B600BFBFF34F8F00BFA2
:100FB800BFF36F8F00BF00BF1037BD4680BD00BFB5
:100FC80000E100E080B400AFBFF34F8F00BF064BD5
:100FD800DB6803F4E0620449044B1343CB60BFF3BE
:100FE8004F8F00BF00BFFDE700ED00E00400FA05E9
:100FF80080B483B000AF154B1B687B60144B1B6833
:101008003B607B68072B19D13B68023B032B13D845
:1010180001A252F823F000BF311001003510010081
:10102800391001003D100100012308E0002306E00B
:10103800002304E0002302E0002300E00023184618
:101048000C37BD465DF8047B704700BF3001FF00D8
:101058003401FF0080B483B000AF154B1B687B6080
:10106800144B1B683B607B68072B19D13B68023B1C
:10107800032B13D801A252F823F000BF95100100EA
:10108800991001009D100100A1100100012308E042
:10109800012306E0002304E0002302E0002300E02F
:1010A800002318460C37BD465DF8047B704700BF27
:1010B8003001FF003401FF0080B483B000AF154B4E
:1010C8001B687B60144B1B683B607B68072B19D13E
:1010D8003B68023B032B13D801A252F823F000BF50
:1010E800F9100100FD1001000111010005110100B6
:1010F800012308E0002306E0002304E0002302E0C7
:10110800002300E0002318460C37BD465DF8047B39
:10111800704700BF3001FF003401FF0080B483B086
:1011280000AF154B1B687B60144B1B683B607B68EA
:10113800072B19D13B68023B032B13D801A252F8A5
:1011480023F000BF5D11010061110100651101006C
:1011580069110100012308E0012306E0012304E0EE
:10116800012302E0012300E0002318460C37BD46A6
:101178005DF8047B704700BF3001FF003401FF00B9
:1011880080B483B000AF154B1B687B60144B1B68A1
:101198003B607B68072B19D13B68023B032B13D8B4
:1011A80001A252F823F000BFC1110100C5110100CE
:1011B800C9110100CD110100012308E0002306E058
:1011C800002304E0002302E0002300E00023184687
:1011D8000C37BD465DF8047B704700BF3001FF0047
:1011E8003401FF0080B483B000AF154B1B687B60EF
:1011F800144B1B683B607B68072B19D13B68023B8B
:10120800032B13D801A252F823F000BF25120100C6
:10121800291201002D12010031120100012308E0FA
:10122800002306E0002304E0002302E0002300E09E
:10123800002318460C37BD465DF8047B704700BF95
:101248003001FF003401FF0080B483B000AF154BBC
:101258001B687B60144B1B683B607B68072B19D1AC
:101268003B68023B032B13D801A252F823F000BFBE
:10127800891201008D1201009112010095120100DE
:10128800012308E0002306E0002304E0002302E035
:10129800002300E0002318460C37BD465DF8047BA8
:1012A800704700BF3001FF003401FF0080B483B0F5
:1012B80000AF154B1B687B60144B1B683B607B6859
:1012C800072B19D13B68023B032B13D801A252F814
:1012D80023F000BFED120100F1120100F512010028
:1012E800F9120100012308E0012306E0012304E0CC
:1012F800012302E0012300E0002318460C37BD4615
:101308005DF8047B704700BF3001FF003401FF0027
:1013180080B483B000AF154B1B687B60144B1B680F
:101328003B607B68072B19D13B68023B032B13D822
:1013380001A252F823F000BF511301005513010018
:10134800591301005D130100002308E0002306E0A3
:10135800002304E0012302E0012300E000231846F3
:101368000C37BD465DF8047B704700BF3001FF00B5
:101378003401FF0080B400AF074B084A1B68C2F86D
:101388004435054B054ADB69C2F84C3500BFBD46FC
:101398005DF8047B704700BF0080FF0000600050CC
:1013A80080B582B000AF8C4B1B688B4A43F00203B8
:1013B8001360FFF749FF0346002B0CD0874B1B68CF
:1013C800002B08D1854B0D221A60854B01221A602B
:1013D800834B00221A6000237B6000237B6011E0AE
:1013E8004FF47F024FF47F017B68603351F833304C
:1013F80019467B686033DB0013445B680B607B68CD
:1014080001337B607B681F2B08D84FF47F027B6811
:10141800603352F83330B3F1FF3FE1D1FFF7B0FE4C
:101428000346002B05D06F4B29221A606E4B03220E
:101438001A60FFF7DDFD0346002B07D06B4B6C4AA3
:101448001A604FF050230122C3F85825FFF702FE17
:101458000346002B02D0674B00221A60FFF72CFED0
:101468000346002B11D04FF05023D3F8003403F07B
:101478000103002B09D04FF050230022C3F8142198
:101488004FF050230022C3F81821FFF747FE034608
:10149800002B0DD04FF05023D3F8003403F0010394
:1014A800002B05D04FF050236FF00102C3F8002441
:1014B800FFF798FE0346002B02D04A4B65221A60BC
:1014C800FFF7F4FE0346002B21D04B4B1B68002B83
:1014D8001DDA4FF050230322C3F818254FF050238C
:1014E80001229A6000BF4FF05023D3F80431002B3B
:1014F800F9D04FF050230022C3F804214FF05023B5
:101508000122DA604FF050230122C3F81825FFF7B3
:10151800FFFE0346002B1AD0324B7E221A60374B4F
:101528007E221A60364B7F221A60364B00221A60E0
:10153800354B00221A60354B00221A60344B0022CA
:101548001A60344B00221A60334B00221A60334B66
:101558009B6A03F00103012B21D1314B0122C3F80F
:10156800042500BF2E4BD3F80034002BFAD02B4BA8
:101578009B6A2A4A23F00103936200BF284BD3F8E1
:101588000034002BFAD0264B0022C3F8042500BFF4
:10159800234BD3F80034002BFAD0FFF713FD214B6F
:1015A800D3F88C301F4A43F44063C2F88C30FFF7FD
:1015B800E1FE1C4BD3F888301A4A43F47003C2F892
:1015C8008830BFF34F8F00BFBFF36F8F00BF00BFDE
:1015D8000837BD4680BD00BFD0ED00E0204A00506E
:1015E8001C4900500C4700503C47005030950350B0
:1015F8004400EFBE4C250350202403503C490050C2
:1016080018210050049E0350089E035010111050DA
:10161800242100502C210050A01220500080FF00EF
:101628000090035000ED00E080B584B000AF786012
:101638000023FB737B681B68033B042B15D801A2AE
:1016480052F823F0791601006116010067160100AF
:101658006D160100791601000123FB7309E00123CF
:10166800FB7306E00123FB7303E00123FB7300E037
:1016780000BFFB7B7968184600F00EFF00BF1037EB
:10168800BD4680BD80B582B000AF78607C22044939
:10169800786807F0D1FA00BF0837BD4680BD00BFA3
:1016A800BC48002080B586B000AFF860B9607A60A9
:1016B8003B60394B7B61394B5B68C3F308027B693C
:1016C8001A60EFF303833B613A697B695A657B696A
:1016D8007A685A607B69FA689A607B69BA68DA60E6
:1016E8007B6958687B6999687B69DB681A4600F0F2
:1016F800ABFE02467B691A617B6903F114007B69C2
:101708001B692022194607F097FA3B68002B06D080
:101718007B69343320223968184607F08DFA1F4B4D
:101728009A6A7B699A651D4BDA6A7B69DA651B4B95
:101738009A6B7B691A667B699B6D03F400427B692F
:101748005A66164B5A6B7B699A667B699B6D03F0E8
:1017580080027B69DA66114A7B699B6D93620F4A46
:101768007B69DB6DD3620E4B5A697B691A670C4B38
:101778009A697B695A677B691B6F03F040027B6932
:101788009A67074A7B691B6F53617869FFF74CFFBB
:1017980000BF1837BD4680BDBC48002000ED00E002
:1017A800D0ED00E080B487B000AFF860B9607A602F
:1017B800FB681B687B617B69114A1A63BB68002B55
:1017C80001D0042200E000227B68002B01D0022314
:1017D80000E000231A437B695A607B695B6843F029
:1017E80001027B695A60BFF34F8F00BFBFF36F8F51
:1017F80000BF002318461C37BD465DF8047B7047C0
:1018080004AAFF0080B582B000AF78600846114690
:101818001A460346FB700B46BB7013467B70FA787A
:101828007B68A03253F8323003F48073002B06D063
:101838001C4B1D4A4FF468711C4806F01DFBFB78D1
:101848007A68A033DB0013445B6803F48073002BD1
:1018580006D0174B144A40F2A131144806F00CFB8D
:101868007B783A7C002A02D04FF4807100E0002196
:10187800FA7819437B68A03243F83210BA783B7C77
:10188800002B02D04FF4807100E00021FB780A435E
:101898007968A033DB000B445A6000BF0837BD46A7
:1018A80080BD00BFA453010074570100E05301003C
:1018B8002054010080B584B000AFF8607B600B460F
:1018C800FB721346BB72FA7AFB6802F5C07253F8D2
:1018D800223003F48073002B06D0104B104A40F2DC
:1018E800BE31104806F0C8FABB7A002B01D010228E
:1018F80000E000227B6813433A7E002A02D04FF4AE
:10190800807100E00021FA7A1943FB6802F5C07281
:1019180043F8221000BF1037BD4680BD5C5401005B
:1019280014570100E053010080B584B000AFF8609F
:101938007B600B46FB721346BB72FA7AFB6802F5B2
:10194800E07253F8223003F48073002B06D0104B5A
:10195800104A40F2CB31104806F08EFABB7A002BC1
:1019680001D0102200E000227B6813433A7E002A4F
:1019780002D04FF4807100E00021FA7A1943FB6825
:1019880002F5E07243F8221000BF1037BD4680BD53
:10199800985401002C570100E053010080B584B031
:1019A80000AFF860B96011461A460B46FB71134642
:1019B800BB71FB68BA6802F5007253F82230002B3D
:1019C80006DB1C4B1C4A4FF476711C4806F054FA8F
:1019D800FB68BA6802F5007253F8223003F480738A
:1019E800002B06D0164B144A40F2D931134806F0A2
:1019F80043FAFB79002B01D0102200E00022BB79CA
:101A0800002B01D0202300E0002313433A7E002A54
:101A180002D04FF4807200E0002242EA0301FB6822
:101A2800BA6802F5007243F8221000BF1037BD46AD
:101A380080BD00BFD0540100AC570100E053010045
:101A48000855010080B582B000AF00233B603B68B9
:101A580043F001033B603B6843F002033B603B6893
:101A680043F004033B6000237B600AE0094A7B687B
:101A780052F823303968184600F017FE7B680133A6
:101A88007B607B68002BF1D000BF00BF0837BD46E4
:101A980080BD00BFB840002080B582B000AF0023F1
:101AA8007B6000233B6032E01D4A3B6852F82330DC
:101AB8004FF48471184600F0E8FD0346002B03D06C
:101AC8007B6843F004037B60154A3B6852F8233077
:101AD8004FF48071184600F0D8FD0346002B03D060
:101AE8007B6843F001037B600D4A3B6852F8233062
:101AF8004FF48271184600F0C8FD0346002B03D04E
:101B08007B6843F002037B603B6801333B603B68C2
:101B1800002BC9D07B6818460837BD4680BD00BF7A
:101B2800B840002080B582B000AF00237B601DE084
:101B3800124A7B6852F823304FF48071184600F03F
:101B48008FFD0E4A7B6852F823304FF48271184695
:101B580000F086FD094A7B6852F823304FF48471FF
:101B6800184600F07DFD7B6801337B607B68002BA5
:101B7800DED000BF00BF0837BD4680BDB84000209A
:101B880080B584B002AF00237B6017E07B68DBB2CE
:101B980019461D4800F001FE034683F00103DBB23D
:101BA800002B08D07B68D9B20023009307230122B9
:101BB8001548FFF77FFE7B6801337B607B683F2B0E
:101BC800E4D900233B6017E03B68DBB219460E48B6
:101BD80000F09FFD034683F00103DBB2002B08D021
:101BE8003B68D9B200230093072301220648FFF778
:101BF8009BFE3B6801333B603B683F2BE4D900BF49
:101C080000BF0837BD4680BD0030005080B58AB09F
:101C180002AFF860B9603B601346FB71FB689B0B31
:101C2800BB61BB689B0B7B61BB69FB610CE0FB691B
:101C3800D9B2FA7997F8283000933B680748FFF73C
:101C480039FEFB690133FB61FA697B699A42EED977
:101C580000BF00BF2037BD4680BD00BF0030005028
:101C680080B58AB002AFF860B9603B601346FB717B
:101C7800FB6803F160435B0BBB61BB6803F1604326
:101C88005B0B7B61BB69FB610CE0FB69D9B2FA793C
:101C980097F8283000933B680748FFF745FEFB6933
:101CA8000133FB61FA697B699A42EED900BF00BF34
:101CB8002037BD4680BD00BF0030005080B586B0DB
:101CC80002AF786039603A687B68D31A0133FB60E9
:101CD8007B68C3F30D03C3F58043BB60FA68BB6838
:101CE8009A4206D9214B224A4FF48771214806F0BF
:101CF800C3F87A68BB681344C3F30D03002B06D0FE
:101D08001D4B1B4A40F211111A4806F0B5F8BB6882
:101D18005A1EBB681340002B06D0184B144A40F2D9
:101D28001511144806F0A8F8BB681F2B03D9BB6827
:101D3800B3F5805F06D9124B0D4A4FF48C710D48EC
:101D480006F09AF8BB68B3FA83F3DBB2C3F11B035E
:101D5800DAB27B689B0BDBB20121009100210948B4
:101D6800FFF750FD00BF1037BD4680BD4455010048
:101D78004457010058550100D45501000056010090
:101D8800245601000030005080B586B002AF78605C
:101D98000B46FB707B681B0BFB730E4AFB7B03F542
:101DA800007352F8233003F00303002B06D10A4BCB
:101DB8000A4A4FF4B2710A4806F05EF8F97BFB78DC
:101DC8000093012301220348FFF7E8FD00BF103705
:101DD800BD4680BD003000504C5601008C570100B4
:101DE8005855010080B586B002AF78600B46FB708D
:101DF8007B681B0BFB730E4AFB7B03F5007352F8E1
:101E0800233003F00303012B06D10A4B0A4A4FF48F
:101E1800C1710A4806F030F8F97BFB78009300237B
:101E280000220348FFF7BAFD00BF1037BD4680BD4A
:101E380000300050B0560100C45701005855010049
:101E480080B500AFFFF728FE0346034A1360024837
:101E580000F030FD00BF80BD784F002080B582B013
:101E680000AF78600C220449786806F0E5FE00BFF0
:101E78000837BD4680BD00BF784F002080B483B0CE
:101E880000AF0C4BDB687B607B689BB27B607B6838
:101E980023F008037B607B6843F0BF6343F400339F
:101EA8007B60044A7B68D36000BF0C37BD465DF891
:101EB800047B704700ED00E080B483B000AF786029
:101EC8003960064A7B681360054A3B681360002343
:101ED80018460C37BD465DF8047B7047844F0020D8
:101EE800884F002090B589B000AF7860644B1B68BC
:101EF8007A6852695A62624B1B687A6892699A6278
:101F08005F4B1B687A68D269DA625D4B1B687A6836
:101F1800126A1A635A4B1B687A68526A5A63584B9A
:101F28001B687A68926A9A63554B1B687A68D26A0A
:101F3800DA63534B1B687A68126B1A64504B1B6840
:101F48007A68526B5A604E4B1B687A68926B9A603B
:101F58004B4B1B687A68D26BDA60494B1B687A680E
:101F6800126C1A61464B1B687A68526C5A61444B72
:101F78001B687A68926C9A61414B1B687A68D26CCC
:101F8800DA613F4B1B687A68126D1A623C4B1B681A
:101F98007A68926D5A653A4B1B687A68D26D9A6571
:101FA800374B1B687A68126FDA65354B1B687A689D
:101FB800126E1A66324B1B687A68926E5A66304BFC
:101FC8001B687A68526F9A662D4B1B68EFF38882FC
:101FD8007A617A695A642A4B1B68EFF38982BA617D
:101FE800BA699A64264B1B687A685268DA64244B8B
:101FF8001B68EFF39482FA61FA691A65204B1B6833
:102008007A6812681A6707F108031846FFF726FF6F
:102018001B4B1B68BA68DA66194B1B6801221A70D9
:10202800184B1B681C46640864002046214622465B
:102038002346B7EE000AF7EE000AB7EE001AF7EEED
:10204800001AB7EE002AF7EE002AB7EE003AF7EECC
:10205800003AB7EE004AF7EE004AB7EE005AF7EE3C
:10206800005AB7EE006AF7EE006AB7EE007AF7EEAC
:10207800007A06F0EFFE00BF2437BD4690BD00BFD2
:10208800844F0020884F002080B5A0B000AF3B46A9
:102098001846FFF7F7FA7B68002B14BF01230023CB
:1020A80087F87F3097F87F3083F00103DBB2002B8D
:1020B80015D17B68184600F064FC0346002B0ED14E
:1020C8003B68052B01D0072B0BD100BF074B1B68C2
:1020D800002B07D03B461846FFF704FF02E000BF7D
:1020E80000E000BF8037BD4680BD00BF884F00209C
:1020F80080B400AFBFF34F8F00BF064BDB6803F41B
:10210800E0620449044B1343CB60BFF34F8F00BF19
:1021180000BFFDE700ED00E00400FA0580B584B0DB
:1021280000AF78607B681B68184600F0E1FC034646
:10213800002B06D1114B124A40F26931114805F0C3
:102148009BFE0023FB60786800F001FD0346002B2E
:1021580002D0012B03D005E00B4BFB6009E00B4BD1
:10216800FB6006E00A4B064A40F27231054805F06A
:1021780083FEFB6818461037BD4680BD1058010025
:1021880078580100345801000025845000288450F4
:102198007458010080B58CB000AF786039600123B5
:1021A8007B6206233B627B685B680C2B03D13B6830
:1021B8005B68042B01D0022358E07B681B68FB6135
:1021C8003B681B68BB61BB694FF0FF321A60022392
:1021D800FB62FB691B68002B03D0FB699B68002B23
:1021E80001D1022342E0FB691B681946FB699A6822
:1021F8003B6A786A02F090FD78617B69002B01D018
:10220800022333E00023BB622CE01A4ABB6A52F86F
:1022180033303B61174ABB6ADB0013445B68FB60E1
:10222800FB695B683A699A4219D8FB695A68FB6985
:102238009B681A443969FB680B449A420FD8FB69BA
:102248001868FB695B681946FB699B681A4606F0C3
:10225800F3FCBB6900221A600023FB6205E0BB6A3D
:102268000133BB62BB6A042BCFD9FB6A18463037EF
:10227800BD4680BDE857010080B483B000AF7860E8
:1022880039607B683A68C3F8082300BF0C37BD463D
:102298005DF8047B704780B483B000AF78600B466C
:1022A800FB70FA787B6813441A460123136000BF59
:1022B8000C37BD465DF8047B704780B483B000AF2F
:1022C800786039607B683A68C3F8482300BF0C37E8
:1022D800BD465DF8047B704780B483B000AF78607A
:1022E80039607B683A68C3F8082300BF0C37BD46DD
:1022F8005DF8047B704780B483B000AF78607B687A
:102308000022C3F8002500BF0C37BD465DF8047BEA
:10231800704780B483B000AF786039607B683A68F2
:10232800C3F8082300BF0C37BD465DF8047B70472F
:1023380080B483B000AF78607B684FF0FF32C3F899
:10234800082500BF0C37BD465DF8047B704780B593
:1023580082B000AF786004217868FFF79CFF4FF0E7
:10236800FF317868FFF7A9FF4FF0FF317868FFF772
:1023780083FF00BF0837BD4680BD80B582B000AF7F
:1023880078607868FFF7B7FF4FF0FF317868FFF79C
:10239800A3FF7B68803380220021184606F093FC57
:1023A8007B6803F5C07380220021184606F08BFC79
:1023B80000BF0837BD4680BD80B500AF4FF0FF3184
:1023C8004FF05020FFF7A5FF00BF80BD80B483B059
:1023D80000AF78607B689B0903F00103002B14BFF2
:1023E80001230023DBB218460C37BD465DF8047B99
:1023F800704780B483B000AF78607B6803F008034F
:10240800002B14BF01230023DBB218460C37BD464E
:102418005DF8047B704780B582B000AF78607B6858
:1024280003F00403002B07D07868FFF7E2FF0346A8
:10243800002B01D0012300E0002303F00103DBB2ED
:1024480018460837BD4680BD80B588B000AFF86033
:10245800B9607A60F868FFF7DEFF0346FB77F86833
:10246800FFF7B4FF0346002B06D0FB7F002B01D0FB
:102478007B680DE0BB680BE0FB7F002B04D0EFF31B
:102488008983BB61BB6903E0EFF388837B617B6968
:1024980018462037BD4680BD80B582B000AF0346E0
:1024A8003960FB713B685B681846FFF78FFF3B6834
:1024B8005B681846FFF79DFF00BF0837BD4680BD23
:1024C80080B489B000AF786039607B681B68FB61B5
:1024D8000023FB763B685B6803F01F03002B01D0E9
:1024E800012354E0FB691B681B0ADBB27B613B6874
:1024F8001B687A699A4201D8012348E0FB695B6846
:102508003B61FB6900225A603B681B68DAB2FB69D1
:102518009A603B685B6823F01F03FB603B689B7C09
:10252800DB0003F01803FA681343FB603B685B7C2D
:102538005B0003F00603FA681343FB603B681B7CEF
:1025480003F00103FA681343FB60FB69FA68DA6079
:102558003B689B68013B23F01F03BB603B68DB685B
:102568005B0003F00E03BA681343BB60BB6843F01B
:102578000103BB60FB69BA681A61FB693A695A6072
:10258800BFF34F8F00BFBFF36F8F00BFFB7E1846AE
:102598002437BD465DF8047B704780B487B000AF30
:1025A800786039607B681B687B610023FB747B69FA
:1025B8005B68FB607B6900225A603B68DAB27B6922
:1025C8009A607B690022DA607B6900221A617B6964
:1025D800FA685A60FB7C18461C37BD465DF8047BD8
:1025E800704780B586B000AF78607B681B683B6138
:1025F8003B691B681B0ADBB2FB6000237B6106E0BA
:1026080079697868FFF7C9FF7B6901337B617A696B
:10261800FB689A42F4D3002318461837BD4680BD9C
:1026280080B483B000AF78607B681B6800BF0C374C
:10263800BD465DF8047B704780B483B000AF786016
:1026480039607A683B6813441B68002B14BF012368
:102658000023DBB218460C37BD465DF8047B704793
:1026680080B582B000AF78600B467B807B887A6843
:10267800134400221A607B887A6813441846FFF7CF
:10268800CFFF00BF0837BD4680BD80B582B000AF20
:1026980078600B467B807B8819467868FFF7CCFF0B
:1026A800034618460837BD4680BD80B483B000AFE6
:1026B800786039607B683A68C3F8042300BF0C3738
:1026C800BD465DF8047B704780B487B000AF034611
:1026D800B9607A60FB73BB6803F160435B0B7B6195
:1026E8007B6803F160435B0B3B61FB7B7A699A4231
:1026F80005D8FB7B3A699A4201D3012300E0002305
:1027080003F00103DBB218461C37BD465DF8047BB5
:10271800704780B584B000AF78600B46FB7000232B
:10272800FB73FB7B002B0AD1FB784FF020224FF084
:1027380000511846FFF7C8FF0346002B01D00123BC
:1027480000E00023FB73FB7B03F00103FB73FB7BBF
:1027580018461037BD4680BD80B487B000AF034629
:10276800B9607A60FB73BB689B0B7B617B689B0BD2
:102778003B61FB7B7A699A4205D8FB7B3A699A42AE
:1027880001D3012300E0002303F00103DBB2184664
:102798001C37BD465DF8047B704780B584B000AF38
:1027A80078600B46FB700023FB73FB7B002B09D181
:1027B800FB784FF4803200211846FFF7CDFF03461F
:1027C800002B01D0012300E00023FB73FB7B03F007
:1027D8000103FB73FB7B18461037BD4680BD80B4F0
:1027E80083B000AF78607B689B0318460C37BD4602
:1027F8005DF8047B704780B483B000AF78607B6875
:1028080001339B03013B18460C37BD465DF8047B3A
:10281800704780B400AF00231846BD465DF8047BBE
:10282800704780B400AF3F231846BD465DF8047B6F
:10283800704780B400AF4FF480431846BD465DF83A
:10284800047B704780B483B000AF78607B6803F581
:102858007F43C0335B0318460C37BD465DF8047BE5
:10286800704780B483B000AF78607B6803F57F431E
:10287800C1335B03013B18460C37BD465DF8047B4A
:10288800704780B400AF40231846BD465DF8047B0E
:10289800704780B400AF7F231846BD465DF8047BBF
:1028A800704780B400AF4FF400531846BD465DF83A
:1028B800047B704780B483B000AF786000BF0C37EA
:1028C800BD465DF8047B704780B582B000AF002339
:1028D8007B6003F069FC78607B68002B02D045F2CE
:1028E800235300E0002318460837BD4680BD80B456
:1028F80000AF00BFBD465DF8047B704780B582B06D
:1029080000AF02F09BFA78607B68002B01D07B68EF
:102918000CE0FFF7D9FF78607B68002B01D07B685B
:1029280004E0FFF7ABFAFFF7E2FF00231846083789
:10293800BD4680BD80B400AF00231846BD465DF893
:10294800047B704780B500AFFFF79EFB72B600BFEF
:1029580020BFFDE780B400AF00231846BD465DF8F0
:10296800047B704780B400AF00231846BD465DF86D
:10297800047B704780B400AF00BFBD465DF8047BA0
:10298800704780B483B000AF78607B689B0903F020
:102998000103002B14BF01230023DBB218460C37B8
:1029A800BD465DF8047B704780B500AFFFF7A0FB1C
:1029B80080B588B000AF786039602623FB61232397
:1029C800BB6101237B617B685B68082B03D13B6893
:1029D8005B68042B01D002233CE07B681B683B61E9
:1029E8003B681B68FB60FB684FF0FF321A603B696D
:1029F8001B68002B03D03B695B68002B01D10223C5
:102A080028E03B691B681946FB697422786902F063
:102A180083F9B860BB68002B01D002231AE03B6938
:102A28005B681946BB690422786902F075F9B860D9
:102A3800BB68002B01D002230CE03B691A683B6994
:102A48005B6819461046FFF737FA03461A46FB68D3
:102A58001A60002318462037BD4680BD80B584B073
:102A680000AFF860B9607A60FB68032B15D0FB688B
:102A7800032B18DCFB68002B03D0FB68012B06D066
:102A880011E07968B868FFF785FB03460CE07968C0
:102A9800B86800F0B7F8034606E07968B868FFF749
:102AA80087FF034600E0032318461037BD4680BD64
:102AB80080B584B000AF78600B46FB703B1D1846AC
:102AC800FFF72CFBF8607A68FB68803253F82230F5
:102AD80023F0E043BB60FB7819077A68BB681943A9
:102AE800FB68803243F8221000BF1037BD4680BD16
:102AF80080B485B000AF78607B685B09BB60002359
:102B0800FB60BB68002B03D0BB68012B04D007E037
:102B18004FF0FF33FB6005E04FF6FF73FB6001E009
:102B280000230EE07B6803F01F037B60FA687B6874
:102B380022FA03F303F00103002B14BF012300233F
:102B4800DBB218461437BD465DF8047B704780B485
:102B580085B000AF78607B681B68FB60FB6803F09A
:102B68001F027B681A60FB685B0918461437BD466C
:102B78005DF8047B704780B483B000AF78607B68F1
:102B8800072B8CBF01230023DBB2002B0ED18B2235
:102B98007B6822FA03F303F00103002B14BF01231F
:102BA8000023DBB2002B01D0012300E000231846EC
:102BB8000C37BD465DF8047B704780B582B000AF26
:102BC80078607B685B681846FFF792FF0346002B26
:102BD80012D07B689B681846FFF7CDFF0346002B91
:102BE8000AD07B685A687B689B68DBB21946104636
:102BF800FFF75EFF002301E04FF0FF331846083768
:102C0800BD4680BD80B584B000AF786039607B6810
:102C18005B680C2B03D13B685B68042B01D0022353
:102C280017E07B681B68FB603B681B68BB60BB6880
:102C38004FF0FF321A60FB681B68002B08D1F86858
:102C4800FFF7BBFF0246BB681A6000BF002300E025
:102C5800032318461037BD4680BD000080B582B0FA
:102C680000AF43F65C237B604FF0FF333B601A48AC
:102C780001F061FF38603B68002B02D06FF0FC0365
:102C880026E0FFF73BFE38603B68002B02D06FF070
:102C9800FC031DE0FFF74EFE78607B68002B02D036
:102CA8006FF0FC0314E0FFF755FE0346002B08D035
:102CB800FFF758FE78607B68002B02D06FF0FC03AA
:102CC80006E0FFF757FE00F02BFC01F099F900230E
:102CD80018460837BD4680BD3849002080B582B007
:102CE80000AF4FF0FF337B600A4B184601F09CFCA5
:102CF800FFF7B4FF78607B68002B01D001F08EFCF1
:102D080000F0DAFB01F04FFE002318460837BD46F5
:102D180080BD00BF0024002080B59CB000AFF860E3
:102D2800B9607A603B604FF0FF333B6600237B66F7
:102D3800BB681B0E03F00703FB65BB681B0C03F0A5
:102D48000703BB65A84B1B687B65BB681BB23B656B
:102D58003B6D002B02DA6FF0800340E1FB683A6DAF
:102D6800DA60BB681BB21A46BB68934201D10023E4
:102D780035E1BB6DDB43FA6D9A4204D8FA6DBB6D41
:102D88001344042B02D96FF0800328E1BB68002BA1
:102D980001DA20237B667B6D98687968FB6DDA0021
:102DA8007B6E43F0020301F0B7FF38663B6E002BE1
:102DB80002D06FF0800312E107F1300320220021D6
:102DC800184605F080FFFB6DDA0007F130037968DB
:102DD800184605F031FF7B6D98683968BB6DDA00DD
:102DE8007B6E43F0060301F097FF38663B6E002BBD
:102DF80002D06FF08003F2E007F1100320220021D7
:102E0800184605F060FFBB6DDA0007F1100339685A
:102E1800184605F011FF0023FB663AE0FB6E01330C
:102E2800BB662FE0BB6EDB0070333B4453F8402C8D
:102E3800BB6EDB0070333B4453F83C3C1A44FB6EDA
:102E4800DB0070333B4453F8403C9A4217D9BB6EC1
:102E5800DB0070333B4453F8402CFB6EDB007033CF
:102E68003B4453F8401CFB6EDB0070333B4453F883
:102E78003C3C0B449A4202D26FF08003AFE0BB6E39
:102E88000133BB66BB6EFA6D9A42CBD8FB6E013339
:102E9800FB66FB6E01331A46FB6D9342BED8BB68D6
:102EA80003F00063002B01D020237B660023FB6620
:102EB8003CE07B6D9868FB6EDB0070333B4453F855
:102EC800403C1946FB6EDB0070333B4453F83C2C06
:102ED8007B6E43F0020301F01FFF38663B6E002B48
:102EE80002D06FF080037AE0FB6EDB0070333B4466
:102EF80053F83C2CF968FB6E06339B000B445A6070
:102F0800FB6EDB0070333B4453F8402CF968FB6ED2
:102F18000E339B000B445A60FA68FB6E12339B0019
:102F2800134400225A60FB6E0133FB66FB6EFA6D98
:102F38009A42BED87B6E202B09D1BB68002B06DBDA
:102F4800BB6803F40023002B01D100237B66002318
:102F5800FB663CE07B6D9868FB6EDB0070333B449E
:102F680053F8603C1946FB6EDB0070333B4453F862
:102F78005C2C7B6E43F0060301F0CEFE38663B6E98
:102F8800002B02D06FF0800329E0FB6EDB0070336A
:102F98003B4453F85C2CF968FB6E0A339B000B44E6
:102FA8005A60FB6EDB0070333B4453F8602CF968C1
:102FB800FB6E16339B000B445A60FA68FB6E1A339B
:102FC8009B00134400225A60FB6E0133FB66FB6EC4
:102FD800BA6D9A42BED8FB683A68DA670023184689
:102FE8007037BD4680BD00BF4449002080B58AB017
:102FF80000AFF860B9607A603B6000237B62324BB7
:103008001B683B624FF0FF33FB61F86802F098F8E9
:1030180078627B6A002B01D101F000FB7B6ADB68D8
:10302800002B01DA01F0FAFABB68032B01D901F091
:10303800F5FA7A6ABB6806339B0013445A68796AC2
:10304800BB6812339B000B445B68D31ABB61BB6936
:10305800002B01D1002333E03B6A98687968062386
:103068003A6801F059FEF861FB69002B01D001F0C4
:10307800D5FABA693B68934228BF13467B617A6ADE
:10308800BB680E339B0013445A68796ABB681233D5
:103098009B000B445B6813447A691946786805F00D
:1030A800CBFD7A6ABB6812339B0013445A687B696C
:1030B8001A44796ABB6812339B000B445A607B69D7
:1030C80018462837BD4680BD4449002080B588B0E1
:1030D80000AFF860B9607A603B600023FB612F4B5A
:1030E8001B68BB614FF0FF337B61F86802F028F87A
:1030F800F861FB69002B01D101F090FAFB69DB68EC
:10310800002B01DA01F08AFABB68032B01D901F020
:1031180085FAFA69BB680A339B0013445A68F9694F
:10312800BB681A339B000B445B68D31A3A689A420F
:1031380001D901F073FABB699868796802233A6883
:1031480001F0EAFD78617B69002B01D001F066FA95
:10315800FA69BB6816339B0013445A68F969BB685F
:103168001A339B000B445B6813443A687968184625
:1031780005F062FDFA69BB681A339B0013445A686C
:103188003B681A44F969BB681A339B000B445A60C0
:10319800002318462037BD4680BD00BF44490020A3
:1031A80080B584B000AF78607B68002B0DD07B6859
:1031B8009B68002B09D07B689B681B68002B04D098
:1031C8007B689B685B68002B02D16FF080032FE05F
:1031D8007B689B685B68FB60FB687A68DA61164A03
:1031E800FB681360FB689B69002B13D1FB681B68A5
:1031F800DB68002B0BD0FB681B68DB680020984756
:10320800B860BB68002B02DA6FF0800310E0FB683F
:1032180001229A617B689B681B681B691A467B6858
:103228000C3318469047B8607B6801221A60BB6867
:1032380018461037BD4680BD4449002080B483B08D
:1032480000AF786039607B685B68044A13603B684C
:1032580018460C37BD465DF8047B7047444900208A
:1032680080B586B000AF78601C4B1B683B611C4B77
:103278005B687B6127E07B691B689B6803F40073CC
:10328800002B1AD17B699B69012B18D0134A7B69E3
:1032980013607B691B68DB68002B0AD07B691B689D
:1032A800DB6800209847F860FB68002B01DA01F022
:1032B800B5F97B6901229A6102E000BF00E000BF16
:1032C8007B691B6A7B617B69002BD4D1034A3B690C
:1032D80013607B6818461837BD4680BD44490020F6
:1032E8003C49002080B588B000AF786039607B68C1
:1032F8001B68BB610023FB617B680022DA617B6885
:1033080000229A61BB699B6803F44063002B2DD0AF
:10331800BB699B6803F40063002B03D000F0E6FA56
:103328000346FB61BB6928331A68BB691B691344F0
:1033380023F00703BB60BB6928331B68073323F0FE
:1033480007033B61BB687B610023FB600949BB69DC
:10335800DB6807F10800FA6901F04BFE07F1080382
:10336800184601F088FE044A7B68136000BF2037C6
:10337800BD4680BD693201004449002080B400AFD9
:10338800074BD3E90023074806498B4208BF82420E
:1033980000D0FEE700BFBD465DF8047B704700BF64
:1033A800F82B0020A5EDF5FE80B584B000AFF860DD
:1033B800B9607A603B60FB68002B03D0FB68032B85
:1033C8000BD00EE000F0EEFFB860FFF7D7FF094B17
:1033D800B968184601F006FE07E0786800F01CFEA0
:1033E80003E07B686FF083021A60BB6818461037E9
:1033F800BD4680BDF82B002080B483B000AF0346E3
:103408003960FB7197F90730002B0ADB3B68DAB2A9
:103418000C4997F907305201D2B20B4483F80023C4
:103428000AE03B68DAB20849FB7903F00F03043B72
:103438005201D2B20B441A7600BF0C37BD465DF874
:10344800047B704700E100E000ED00E0EFF3088046
:103458007146EFF30982EFF30B830CB406B401F065
:1034680045FA8646009900F0080001F00801401A64
:1034780002DC12DB04B070471EF020031CBF2DE9EC
:10348800F00FBDF1080D0B4C254626462746A046F1
:10349800A146A246A34630B4704704B030BC1EF023
:1034A80020031CBF1DF1080DBDE8F00F04B07047E4
:1034B80000BF0000A5EDF5FE80B584B000AF174B46
:1034C800FB60FB68DB68BB60BB68DB431B0C1B0451
:1034D8007B60BB689AB27B68134343F48042FB6805
:1034E800DA6000216FF00B00FFF786FF00216FF014
:1034F8000A00FFF781FF00216FF00800FFF77CFF4B
:1035080000216FF00400FFF777FF03216FF001003F
:10351800FFF772FF00BF1037BD4680BD00ED00E029
:1035280080B400AF174BD3F88830164A43F47003C1
:10353800C2F88830BFF34F8F00BFBFF36F8F00BF53
:10354800104BD3F88C300F4A43F44063C2F88C30E8
:103558000D4B5B680C4A43F0804353600A4B5B6831
:10356800094A43F03C4353604FF0E023DB684FF0D7
:10357800E02243F42003D36000BFBD465DF8047B1E
:10358800704700BF00ED00E030EF00E0009A164BF6
:103598009A4227D101229043014641EC100B41EC9D
:1035A800110B41EC120B41EC130B41EC140B41ECE9
:1035B800150B41EC160B41EC170BEFF3148222F0BC
:1035C800040282F31488BFF36F8F02460346044651
:1035D8000546064607468046814682468346844617
:1035E80086460447FEE700BFA5EDF5FE80B590B01E
:1035F80000AF786039607B68002B02D03B68002BF5
:1036080002D143F6DA33AFE000233B63012387F8A6
:103618002F307B689B6803F44063002B14BF0123A1
:10362800002387F82E3097F82F305B0003F0020351
:103638003B6397F82E303A6B13433B633B683A6B16
:103648001A600023FB6388E07B689B699A007B68AB
:10365800D1187B68DA6913469B0013449B000B441E
:103668003033BB62FA6B13465B0013449B001A4667
:10367800BB6A13449B6803F00803002B67D0002340
:1036880087F83B3000237B6315E0394A7B6B52F89F
:103698002310FA6B13465B0013449B001A46BB6A5F
:1036A80013441B68994203D1012387F83B3005E096
:1036B8007B6B01337B637B6B002BE6D097F83B3049
:1036C80083F00103DBB2002B02D043F6DA334BE080
:1036D800FA6B13465B0013449B001A46BB6A1344FB
:1036E8001B687B627B6A1B68002B32D07B6A1B6875
:1036F80001211846FEF748FB97F82F3083F00103A5
:10370800DBB2002B26D01B4B1B685A1C19490A60D8
:10371800FB607B6A1B683B617B6A5B687B6100239B
:10372800BB6101237B770023BB7701233B7707F13C
:103738000C0319461048FEF7C3FE034687F82330EA
:1037480097F82330002B05D043F6DA330CE000BF9E
:1037580000E000BFFB6B0133FB637B681B6AFA6BFD
:103768009A42FFF471AF002318464037BD4680BD2A
:1037780094580100484900208440002080B586B054
:1037880000AF4548FEF72DFF444B1B685A1C4349C0
:103798000A603B60424BDB687B60414B1B69BB6046
:1037A8000123FB6003237B740023BB7400233B7459
:1037B8003B4619463848FEF783FE0346FB75FB7DFA
:1037C800002B02D043F6DA3362E0344B1B685A1CF4
:1037D80032490A603B60334B7B60334BBB6001234B
:1037E800FB6003237B740023BB7400233B743B46BC
:1037F80019462948FEF764FE0346FB75FB7D002B3E
:1038080002D043F6DA3343E0244B1B685A1C2349A1
:103818000A603B60254B7B60254BBB600123FB6046
:1038280003237B740023BB7400233B743B46194677
:103838001948FEF745FE0346FB75FB7D002B02D0B9
:1038480043F6DA3324E0154B1B685A1C13490A6007
:103858003B60184B7B60184BBB600223FB60012365
:103868007B740023BB7401233B743B4619460A480A
:10387800FEF726FE0346FB75FB7D002B02D043F6C0
:10388800DA3305E0012201210348FDF78BFF00230D
:1038980018461837BD4680BD84400020484900209E
:1038A800E0590100205B010080950100200D010016
:1038B800200D0100003C0020203C002080B400AF17
:1038C800034B1B681846BD465DF8047B704700BF74
:1038D800E059010080B400AF034B1B681B68184611
:1038E800BD465DF8047B7047E059010080B400AF25
:1038F800044B1B6804331B681846BD465DF8047BFF
:10390800704700BFE059010080B483B000AF0346A0
:10391800FB7197F90730002B0CDBFB7903F01F02D2
:10392800074997F907305B09012000FA02F2603372
:1039380041F8232000BF0C37BD465DF8047B704773
:1039480000E100E080B500AFFEF77AFAFEF7EAF88A
:10395800064B5B68DBB2103BDBB25BB21846FFF785
:10396800D3FF00F05BFE00BF80BD00BF00ED00E0AC
:1039780080B483B000AF0346FB7197F90730002B82
:103988000BDBFB7903F01F02074997F907305B0946
:10399800012000FA02F241F8232000BF0C37BD468F
:1039A8005DF8047B704700BF00E100E080B483B09D
:1039B80000AF0346FB7197F90730002B0CDBFB794E
:1039C80003F01F02074997F907305B09012000FA45
:1039D80002F2603341F8232000BF0C37BD465DF882
:1039E800047B704700E100E080B483B000AF034679
:1039F800FB7197F90730002B24DB164A97F907303B
:103A08005B09A03352F82310FB7903F01F0301224E
:103A180002FA03F3DA430F4897F907305B090A40C3
:103A2800A03340F823200B4A97F907305B09A033ED
:103A380052F82320FB7903F01F0322FA03F303F063
:103A4800010300E0002318460C37BD465DF8047BEF
:103A5800704700BF00E100E080B483B000AF0346C8
:103A68003960FB7197F90730002B0ADB3B68DAB243
:103A78000C4997F907305201D2B20B4483F800235E
:103A88000AE03B68DAB20849FB7903F00F03043B0C
:103A98005201D2B20B441A7600BF0C37BD465DF80E
:103AA800047B704700E100E000ED00E080B400AF67
:103AB800054B1B68044A23F00103136000BFBD4691
:103AC8005DF8047B704700BFD0ED00E080B584B09E
:103AD80000AFF8607A601A460B46FB721346BB7259
:103AE800FB7AFA689033DB0013445B6803F0010348
:103AF800002B06D00D4B0E4A40F281310D4804F0E0
:103B0800BBF9FA7AFB689032796843F83210BB7ACD
:103B1800002B06D0FB7AFA689033DB0013440122AD
:103B28005A6000BF1037BD4680BD00BF98580100DD
:103B3800FC590100C858010080B584B000AFF86096
:103B48007A601A460B46FB721346BB72FB7AFA6818
:103B58009833DB0013445B6803F00103002B06D0A5
:103B68000D4B0E4A4FF464710D4804F085F9FA7A4A
:103B7800FB689832796843F83210BB7A002B06D07C
:103B8800FB7AFA689833DB00134401225A6000BFBD
:103B98001037BD4680BD00BF08590100B85A010062
:103BA800C858010080B584B000AFF860B96011460C
:103BB8001A460B46FB711346BB71FB68BA6802F5DF
:103BC800887253F8223003F48073002B06D0104B10
:103BD800104A40F2E631104804F04EF9FB79002B08
:103BE80001D0102200E00022BB79002B02D04FF454
:103BF800807300E0002342EA0301FB68BA6802F51B
:103C0800887243F8221000BF1037BD4680BD00BF40
:103C180040590100EC5A0100C858010080B584B031
:103C280000AF78607B681B68184601F070F903469E
:103C3800002B06D1114B124A40F26931114804F0A9
:103C48001BF90023FB60786801F090F90346002B0C
:103C580002D0012B03D005E00B4BFB6009E00B4BB6
:103C6800FB6006E00A4B064A40F27231054804F050
:103C780003F9FB6818461037BD4680BD7859010026
:103C8800D05A01009C590100002584500028845016
:103C9800DC59010080B500AF00216FF00800FFF784
:103CA800DBFE044B5B6A034A43F470235362002330
:103CB800184680BD00ED00E080B483B000AF0A4B29
:103CC800DB687B607B689BB27B607A68074B134339
:103CD8007B60054A7B68D360002318460C37BD46D5
:103CE8005DF8047B704700BF00ED00E00800FA05AE
:103CF80080B400AF0B4B0C4A1B68C2F84435094B23
:103D0800094ADB69C2F84C35074B0222C3F8402543
:103D1800054B0222C3F8482500231846BD465DF826
:103D2800047B70470080FF000060005080B582B0BF
:103D380000AF0023FB7109E0114AFB79A0334FF073
:103D4800FF3142F82310FB790133FB71FB790F2B0C
:103D5800F2D900233B600BE00A4A3B6852F8233053
:103D68001B0B5BB21846FFF73FFE3B6801333B6015
:103D78003B68002BF0D0002318460837BD4680BDAD
:103D880000E100E08840002080B582B000AFFDF778
:103D980059FE00237B6014E00E4A7B6852F82330FA
:103DA8001B0B5BB21846FFF701FE0A4A7B6852F804
:103DB80023301B0B5BB21846FFF7DAFD7B68013333
:103DC8007B607B68002BE7D0002318460837BD4688
:103DD80080BD00BF8840002080B500AFFFF766FEB9
:103DE800034B1B68024A43F00203136000BF80BD07
:103DF800D0ED00E080B584B002AFFDF7C1FE00232E
:103E08007B607B6843F004037B607B6843F00103BD
:103E18007B60012300937B6801222E494FF4813097
:103E2800FDF7F4FE00237B607B6843F004037B60AE
:103E38007B6843F002037B607B6843F001037B608F
:103E4800012300937B68012223494FF02020FDF7CE
:103E580007FF00237B607B6843F004037B607B687B
:103E680043F002037B607B6843F001037B601B4BDC
:103E780058681A4B9968012300937B680022FDF764
:103E8800C5FE012300937B68002215491548FDF7FC
:103E9800E7FE124BDA68114B1B69013B19461046C5
:103EA800FDF70CFF00237B607B6843F004037B6015
:103EB8007B6843F002037B604FF470200A490123BA
:103EC80000937B680022FDF7A1FE002318460837FF
:103ED800BD4680BDFFBF0100FF9F0020E0590100E3
:103EE800FFFF072000A00020FFFF0F0080B582B071
:103EF80000AF0023FB71F979012300220348FFF783
:103F0800E5FD00BF0837BD4680BD00BF003000504A
:103F180080B584B000AF0023FB600AE01F4AFB684D
:103F280052F8233000211846FDF75CFFFB68013387
:103F3800FB60FB68282BF1D9FFF7D8FF00233B6013
:103F480000237B600023BB600EE0BB68D9B2BB686E
:103F58009B0010333B4453F8102C01231048FFF703
:103F6800EBFDBB680133BB60BB68012BEDD90321B6
:103F7800002000F0ACFF0321012000F0A8FF094851
:103F880001F008F80123002200210548FFF70AFE86
:103F9800002318461037BD4680BD00BF145A0100E3
:103FA800003000500010005080B586B000AF0346C6
:103FB800FB714FF0FF333B610123FB6000F0BAF95E
:103FC800B86001237B6110E00C4A7B6952F83330FA
:103FD800BA689A4206D1FB790F22934202D1002394
:103FE8003B6106E07B6901337B617A69FB689A4231
:103FF800EAD33B6918461837BD4680BD045B01000B
:1040080080B400AF034B01221A6000BFBD465DF8C3
:10401800047B70474C49002080B588B000AF7860B9
:104028007B681B68FB777B6804331B68BB617B6814
:1040380008331B68FB82214B1B683B614FF0FF3341
:10404800FB603B699868B969FA8A062300F064FE48
:10405800F860FB68002B04D07B686FF086021A605A
:1040680029E0174B1B68012B04D07B686FF0860290
:104078001A6020E0FB7F1846FFF796FF0346002BE7
:1040880004D07B686FF086021A6014E0FB8A032B69
:1040980004D87B686FF086021A600CE0BB69BB60CD
:1040A800BB6842F216021A80BB6804225A807B68F9
:1040B80000221A6000BF2037BD4680BD4449002059
:1040C8004C49002080B483B000AF78607B6803F06F
:1040D8000703002B00D0FEE77B68083B7B607B680A
:1040E800064A1A607B6804331A46044B13607B68DF
:1040F80018460C37BD465DF8047B7047A5EDF5FE04
:1041080080B485B000AF78600023FB60144B5B6817
:10411800BB601AE0BB681B685B687A689A420FD17B
:10412800FB68002B0AD0BB689A68FB689A600C4B46
:104138005A68BB689A600A4ABB685360BB6808E063
:10414800BB68FB60FB689B68BB60BB68002BE1D168
:10415800002318461437BD465DF8047B704700BF3E
:104168005049002080B588B000AFF860B9601346A8
:10417800FB710023BB61BB68002B00D1FEE7FB7914
:10418800002B09D0BB681B689B6803F48073002B65
:104198002DD16FF0FC032BE0174B1B68BB61BB698B
:1041A800002B01D100F03AFABB691B6830337B6100
:1041B8000023FB610AE0FB699B007A6913441B68D2
:1041C800FA689A4209D0FB690133FB61BB691B6835
:1041D8009A69FB699A42EED800E000BFBB691B6888
:1041E8009A69FB699A4202D16FF0FC0300E0002350
:1041F80018462037BD4680BD4449002080B58CB0A4
:1042080000AFF860B9607A6000237B6100F0AEF817
:10421800034687F82F30FB68002B00D1FEE7BB6808
:10422800002B02D16FF080034FE0BB6803F080439E
:10423800002B48D0BB6803F01F03BB62254ABB6A4A
:1042480052F823307B627B6A002B02D16FF0800327
:104258003BE07B6A1B685B683B6297F82F301A4625
:10426800796A386AFFF77EFF0346002B02D06FF0A9
:1042780081032AE0BB681B12DBB2FB61F969786A2B
:1042880000F02BFF0346002B02D06FF080031CE0E8
:1042980000F008FF03467B6100F0EBFBB8617B6927
:1042A800184600F00DFFBB69002B02D16FF08203A6
:1042B8000BE07A68796AB86900F00EF8FB68BA69A9
:1042C8001A60002301E06FF0800318463037BD46BE
:1042D80080BD00BF5849002080B584B000AFF860A9
:1042E800B9607A60FB68002B00D1FEE7BB68002B41
:1042F80000D1FEE7FB680C3330220021184604F099
:10430800E2FCFB68BA689A60094B1A68FB685A6055
:10431800FB687A685A61F86800F084FB0246FB681B
:104328001A61FB6800221A6000BF1037BD4680BDC5
:104338004449002080B483B000AF0B4B1B687B60FE
:104348007B68002B07D07B681B68002B03D07B6839
:104358001B685B6801E04FF0FF3318460C37BD4619
:104368005DF8047B704700BF4449002080B582B0E7
:1043780000AF0B4B1B687B607B68002B01D100F002
:104388004DF97B681B689B6803F44063002B14BFDE
:1043980001230023DBB218460837BD4680BD00BFA5
:1043A8004449002080B584B000AF4FF0FF33FB6074
:1043B80000F058FB194B00225A60194B00225A6032
:1043C80000F016F9154800F073F8B860BB68002BC8
:1043D8001CD08023134A1249B86800F028FF78607F
:1043E800B86800F0C8FFBB681A68BB68083319468C
:1043F8001046FFF7FBF8F860FB68002B01D000F0CF
:104408000DF97968B868FEF76DFFDBE700BF00F0CB
:104418003EFA034618461037BD4680BD3C49002089
:10442800504900205849002080B582B000AF0A4B9F
:104438001B687B60084B1B682433074A1360064BD4
:104448001A68064B1B689A4201D900F0E7F87B68A6
:1044580018460837BD4680BD9C400020A04000207B
:1044680080B584B000AF78600F4B1B68FB607B6839
:10447800002B01D1002313E07A6813465B00134434
:104488009B001A46084B1B681344074A1360064BE7
:104498001A68064B1B689A4201D900F0BFF8FB68FE
:1044A80018461037BD4680BDA4400020A840002013
:1044B80080B584B000AF78607B68002B01D100F034
:1044C800ADF8484B1B6813F1290F07D8454B1B68FB
:1044D80003F12802444B1B689A4201D300237CE075
:1044E800404B1B68FB603F4B1B68D943FB689869CE
:1044F800FB68DA6913469B0013441844FB681A6A80
:1045080013465B0013441844FB685A6A13469B0021
:10451800134403440C339B0099421CD3FB689969EC
:10452800FB68DA6913469B0013441944FB681A6A4E
:1045380013465B0013441944FB685A6A13469B00F0
:1045480013440B440C339A00264B1B681A44264B21
:104558001B689A4201D900F061F8FB681B681B0CC4
:104568001B04224A934201D000F058F8FB681B68EC
:104578009BB2B3F5817F01D300F050F8FB685B680C
:10458800002B01DA00F04AF8FFF74EFFB860BB686D
:10459800FA681A60FB689969FB68DA6913469B0038
:1045A80013441944FB681A6A13465B001344194400
:1045B800FB685A6A13469B0013440B440C339A0059
:1045C800084B1B681344074A13607B685A68BB682A
:1045D8001A627B68BA685A60BB6818461037BD46CD
:1045E80080BD00BF944000209840002000005F5F1D
:1045F80090B583B000AF084CFFF760F90346A3609D
:10460800FFF768F903467B607B6883F3888800BFFF
:1046180000BF0C37BD4690BD00ED02E080B500AF8D
:10462800FEF790F900BF80BD80B485B000AF786018
:104638007B68FB60FB6883F30A8800BF00BF143700
:10464800BD465DF8047B704780B483B000AFEFF3DC
:10465800108372B67B607B6818460C37BD465DF8E0
:10466800047B704780B483B000AF78607B6883F3C5
:10467800108800BF0C37BD465DF8047B704780B5D5
:1046880082B000AF78607B6813F1810F03D07B683C
:1046980013F1820F09D1FFF769FE034683F0010386
:1046A800DBB2002B01D0FFF7B9FF00BF0837BD46CA
:1046B80080BD80B586B000AF7860396000237B612B
:1046C8000023BB60786800F03BFD38613B69002B34
:1046D80001D1FFF7A3FF3B699B68FB60FB68002BD8
:1046E80001D1FFF79BFF3B69DB6813F1020F1ED076
:1046F800B3F1FF3F1FD13B68002B02D17B687B6180
:104708002FE03B6813F1820F06D16FF081037B61C4
:104718003B6902221A6024E03B6813F1830F03D13E
:104728006FF082037B611CE0FFF778FF19E03B69BB
:1047380002221A6015E03B69DB68002B0FDB3B683F
:104748007B61386900F03AFDFB681B689B6803F4DD
:104758000073002B05D03B6902221A6001E0FFF7C5
:104768005DFF7B6913F1810F05D13B695B69002B04
:1047780001DBFFF753FFFFF767FF0346BB6079696B
:104788003869FEF75BFD7861BB681846FFF76AFF7A
:104798003B691B68022B03D1386900F07CF902E001
:1047A8003B6900221A607B6918461837BD4680BDF0
:1047B80080B500AFFEF7C6F86FF08303184680BDDA
:1047C80080B588B000AFF860B9607A603B60FFF7E9
:1047D800CDFD0346FB77FB7F184600F0D3FCB8619C
:1047E80007F11003BA69F9681846FFF707FD786101
:1047F8007B69002B01D07B6919E038693B687A68CE
:10480800B968FEF789FA78617B69002B0AD0FB68E2
:1048180003F08043002B03D03B69184600F03BF9B6
:104828007B6904E03B691846FEF7BAFC0346184664
:104838002037BD4680BD80B400AF40F20113184652
:10484800BD465DF8047B704780B584B000AF7860E2
:10485800FFF78CFD0346FB737868FFF751FCB860DF
:10486800BB68002B01D100230DE0FB7B1A46B96819
:104878007868FFF777FC0346002B01D0002302E09D
:10488800BB681B68DB6818461037BD4680BD80B41E
:1048980000AF6FF002031846BD465DF8047B704711
:1048A80080B483B000AF78607B689B0903F0010394
:1048B800002B14BF01230023DBB218460C37BD467A
:1048C8005DF8047B704780B483B000AF78607B6884
:1048D8005B0903F00103002B14BF01230023DBB2A3
:1048E80018460C37BD465DF8047B704780B586B026
:1048F80000AFF860B9607A602023FB75FB683B6104
:10490800BB6803F00803002B06D0BB6803F0040360
:10491800002B01D07B683B61B868FFF7C1FF0346F5
:10492800002B12D0B868FFF7CEFF034683F00103CF
:10493800DBB2002B02D03B6928333B613B6918335B
:104948001B68023B1B78FB7501E0FFF767FEBB683D
:1049580003F00803002B0CBF01230023DAB2FB7D10
:1049680003F04003002B14BF01230023DBB25340A4
:10497800DBB2002B01D0FFF751FEFB7D03F0A00353
:10498800002B07D1F87DFB683A69B968FEF70CFD82
:10499800034604E03B696FF083021A60BB6818465F
:1049A8001837BD4680BD00DF704700BF80B483B0B4
:1049B80000AFEFF30B837B607B6818460C37BD466E
:1049C8005DF8047B704780B485B000AF78607B6881
:1049D800FB60FB6883F30B8800BF00BF1437BD463C
:1049E8005DF8047B704780B582B000AFFFF7DEFF4B
:1049F80078607B6880331846FFF7E5FF7B681846C8
:104A08000837BD4680BD80B582B000AFFFF7CEFF46
:104A180078607B68803B1846FFF7D5FF00BF0837F2
:104A2800BD4680BD80B483B000AF78604FF480533A
:104A380018460C37BD465DF8047B704780B584B0D6
:104A480000AF78607B68B3F5805F01D0002305E094
:104A5800FFF7ACFF0346803BFB60FB681846103746
:104A6800BD4680BD80B400AF00BFBD465DF8047B85
:104A7800704780B500AFFFF7B6FF0346184680BD04
:104A880080B483B000AF7860002318460C37BD4669
:104A98005DF8047B704780B582B000AF7860FFF79F
:104AA800B2FF00BF0837BD4680BD80EA0000E1EED6
:104AB800100A00EE100A00EE900A01EE100A01EE4C
:104AC800900A02EE100A02EE900A03EE100A03EEB4
:104AD800900A04EE100A04EE900A05EE100A05EE9C
:104AE800900A06EE100A06EE900A07EE100A07EE84
:104AF800900A08EE100A08EE900A09EE100A09EE6C
:104B0800900A0AEE100A0AEE900A0BEE100A0BEE53
:104B1800900A0CEE100A0CEE900A0DEE100A0DEE3B
:104B2800900A0EEE100A0EEE900A0FEE100A0FEE23
:104B3800900A704700BF80B582B000AF7860FFF779
:104B48004BF9FFF757F90346002B02D043F6DA3347
:104B580013E0FFF7DDF90346002B02D043F6DA3302
:104B68000BE0FEF70BFE0346002B02D043F6DA33C8
:104B780003E07B6802221A60002318460837BD4606
:104B880080BD90B591B000AFF860B9607A60FB68FD
:104B98007B627B6A43E800F3BB61BB693B62FA68EE
:104BA800BB681344013BBB62BB6A43E800F37B610B
:104BB8007B69FB6197F82330BB63FB7F7B63FB68F2
:104BC8003B63FDF726FE0246BB6B93424BD3FDF7D2
:104BD80028FE02467B6B934245D8B86BFDF70BFE67
:104BE80002463B6BD31A0133FB623B6B7A68F96A66
:104BF800184603F0DDF80346002B01D1002387E0B7
:104C0800BB6B0133FB6315E0FB6B1846FDF7E7FD53
:104C180038633C6BFDF70DFE03467A68194620465B
:104C280003F0C6F80346002B01D1002370E0FB6BAC
:104C38000133FB63FB6B7A6B9A42E5D8786BFDF71F
:104C4800CEFD3863FA68BB681A443B6BD31AFB6223
:104C58003B6B7A68F96A184603F0AAF80346002BFA
:104C680055D1002354E0FDF70CFE0246BB6B93427E
:104C78004BD3FDF70EFE02467B6B934245D8B86BCB
:104C8800FDF7EFFD02463B6BD31A0133FB623B6B2A
:104C98007A68F96A184603F08BF80346002B01D1AD
:104CA800002335E0BB6B0133FB6315E0FB6B184653
:104CB800FDF7C8FD38633C6BFDF7F3FD03467A68E2
:104CC8001946204603F074F80346002B01D100234F
:104CD8001EE0FB6B0133FB63FB6B7A6B9A42E5D8F2
:104CE800786BFDF7AFFD3863FA68BB681A443B6B15
:104CF800D31AFB623B6B7A68F96A184603F058F8D6
:104D08000346002B03D1002302E0002300E0012327
:104D180018464437BD4690BD80B58EB000AFF860E8
:104D2800B9607A603B6000237B637B68002B01D10C
:104D380000237FE0FB6803F00203002B03D17B6BA9
:104D480043F004037B63FB6803F00103002B18D0D6
:104D5800EFF39483FB62FB6A3B6297F8203003F021
:104D68000103DBB2002B04D07B6B43F004037B63AD
:104D780003E07B6B23F004037B637B6B43F012033C
:104D88007B633B6803F00603062B04D17B6B43F07F
:104D980001037B630CE03B6803F00203002B04D0A3
:104DA8007B6B43F008037B6302E04CF2DA2341E0BB
:104DB800BB687A6B7968184602F0FAFF0346002B45
:104DC80014BF01230023DBB23B633B6B002B2AD1CA
:104DD800BB687B627B6A43E800F37B617B69FB61AC
:104DE800BA687B681344013BBB62BB6A43E800F3C3
:104DF8003B613B69BB61BB7F23F07F03DBB2002BC8
:104E080011D0BB7E23F07F03DBB2002B0BD0FA7FDF
:104E1800FB7E9A4207D0BB687A6B79681846FFF721
:104E2800B0FE03463B633B6B002B01D0002301E03F
:104E38006FF07F0318463837BD4680BD80B582B015
:104E480000AF43F65C237B60FEF724FF78607B6845
:104E5800002B02D043F6DA3326E0FEF72DFF786008
:104E68007B68002B02D043F6DA331DE0FEF740FFE3
:104E780078607B68002B02D043F6DA3314E062B620
:104E880000BFFEF753FF78607B68002B02D043F623
:104E9800DA3309E0FEF778FF78607B68002B02D0F0
:104EA80043F6DA3300E0002318460837BD4680BDD4
:104EB800EFF30880EFF309812DE9F00F6B46724696
:104EC800FCF7F0FB08B0FEF73DFDFEE700BF80B53C
:104ED80084B000AF78600B46FB703B1D1846FEF7A8
:104EE8009DFEF8607A68FB68803253F8223023F020
:104EF800E043BB60FB7819077A68BB681943FB6815
:104F0800803243F8221000BF1037BD4680BD80B400
:104F180085B000AF78607B685B09BB600023FB60ED
:104F2800BB68002B03D0BB68012B04D007E04FF00F
:104F3800FF33FB6005E04FF6FF73FB6001E00023E1
:104F48000EE07B6803F01F037B60FA687B6822FA37
:104F580003F303F00103002B14BF01230023DBB28A
:104F680018461437BD465DF8047B704780B485B099
:104F780000AF78607B681B68FB60FB6803F01F026A
:104F88007B681A60FB685B0918461437BD465DF8F4
:104F9800047B704780B483B000AF78607B680122DF
:104FA800C3F8002500BF0C37BD465DF8047B704789
:104FB80080B485B000AF786039607B68BB60BB683F
:104FC80083F3098800BF3B68FB60FB6883F30B88A9
:104FD80000BFBFF36F8F00BF00BF1437BD465DF839
:104FE800047B704704460D46FFF75FFDA54628473A
:104FF80000BF80B588B000AFF860B9607A603B60E8
:10500800FB681B68FB61FB689B68BB61F869FFF77D
:1050180059F803467B617B69483BBA699A4201D9D2
:10502800FFF7FCFA7B69483B7B61482200217869DD
:1050380003F049FE7A687B699A627B690022DA622A
:105048007B6900221A637B6900225A637B69BA680C
:105058001A647B693A68DA637B694FF080725A6434
:10506800FB686FF002025A607A69FB681A6000BF39
:105078002037BD4680BD80B584B000AF78607B68BE
:10508800FB60FB681B682833BB60BA68FB689B68D9
:1050980019461046FFF78CFFFB685B681846103707
:1050A800BD4680BD80B483B000AFEFF3108372B605
:1050B8007B607B6818460C37BD465DF8047B7047FB
:1050C80080B483B000AF78607B6883F3108800BF3A
:1050D8000C37BD465DF8047B704780B483B000AFE1
:1050E800786039607B68002B00D1FEE77B681B681D
:1050F8009B6803F48063002B03D0B3F5806F09D05D
:1051080011E07B681B68DB683A689A420ED96FF039
:10511800FA030FE07B681B68DB683A689A4207D09D
:105128006FF0FA0306E06FF0FA0303E000BF00E057
:1051380000BF002318460C37BD465DF8047B704756
:1051480080B584B000AF78607868FFF777FCF860C6
:10515800F868FFF795FC0346002B01D000230DE00B
:10516800FFF7E8F8B860FB689B685B681B685B68DA
:10517800BA689A4201D0002300E0FB68184610374D
:10518800BD4680BD80B584B000AF0346FB71FB7996
:10519800002B03D000F0F9F8F86002E0FFF7CAF836
:1051A800F860FB79FA68D20FD2B2934201D0FFF7C8
:1051B80035FAFB6818461037BD4680BD80B485B007
:1051C80000AF78600023FB6027E07A68FB680A3349
:1051D8009B0013445B68002B1BD07B68DA6FFB686D
:1051E800DB0013441A687968FB6816339B000B448C
:1051F8005B689A4200D0FEE77B68DA6FFB68DB00E9
:105208001A447968FB681A339B000B445B68536047
:1052180000E000BFFB680133FB60FB68032BD4D9B7
:1052280000BF00BF1437BD465DF8047B704780B5EA
:105238008CB000AFF860B9607A603B600023BB6255
:10524800FB68002B02D0BB68002B01D1FFF7E6F901
:10525800FB681B687B627B6A9B699A007B6A1344C4
:1052680030333B627B6ADB691846FFF7F9F8F8616F
:105278000023FB6272E0FA6A13469B0013449B000A
:105288001946FA6A13465B0013449B001A46FB69E9
:1052980013443A6A0A441A60FA6A13465B001344D4
:1052A8009B001A46FB691344FA685A60FA6A134667
:1052B8005B0013449B001A46FB69134400229A6062
:1052C800FA6A13469B0013449B001A463B6A134430
:1052D8009B68BB61BB6903F40073002B26D07B6815
:1052E800002B05D03B68002B02D03B68802B01D0F7
:1052F800FFF794F9BB69DBB27B617B691F2B06D88A
:105308007B699B007A6813441B68002B01D0FFF768
:1053180085F9FA6A13465B0013449B0019467B69BA
:105328009B007A681344FA690A441A60FA6A1346B9
:105338005B0013449B001A46FB691344BA68526821
:105348009A60FA6A13465B0013449B001A46FB698D
:105358001A44BB685A60FB6A0133FB627B6ADB69EB
:10536800FA6A9A4202D2FB69002B84D1BB6A1846BA
:105378003037BD4680BD80B483B000AF786000BFD1
:105388000C37BD465DF8047B704780B400AF4FF022
:10539800FF331846BD465DF8047B70472128705FCF
:1053A8007265672D3E464C4153484E53435B666CCD
:1053B8006173685F6E73635F69645D2E5245474928
:1053C8004F4E20262028307831554C203C3C202850
:1053D80038554C29292900002F6F70742F6E6F7271
:1053E8006469632F6E63732F76322E372E302F6DDC
:1053F8006F64756C65732F68616C2F6E6F7264696A
:10540800632F6E7266782F68616C2F6E72665F7399
:1054180070752E68000000002128705F7265672D86
:105428003E464C4153484E53435B666C6173685F1C
:105438006E73635F69645D2E53495A4520262028A0
:10544800307831554C203C3C202838554C292929A6
:10545800000000002128705F7265672D3E464C41B0
:105468005348524547494F4E5B726567696F6E5F97
:1054780069645D2E5045524D2026202830783155DC
:105488004C203C3C202838554C2929290000000094
:105498002128705F7265672D3E52414D524547493C
:1054A8004F4E5B726567696F6E5F69645D2E50452C
:1054B800524D20262028307831554C203C3C20285D
:1054C80038554C2929290000705F7265672D3E50B8
:1054D800455249504849445B706572697068657205
:1054E800616C5F69645D2E5045524D20262028303E
:1054F8007831554C203C3C20283331554C29290023
:105508002128705F7265672D3E50455249504849C1
:10551800445B7065726970686572616C5F69645D2F
:105528002E5045524D20262028307831554C203CAD
:105538003C202838554C29292900000073697A65D0
:10554800203C3D206E73635F73697A65000000003C
:105558002F6F70742F6E6F726469632F6E63732F71
:1055680076322E372E302F6D6F64756C65732F74FD
:1055780065652F74662D6D2F747275737465642D4F
:105588006669726D776172652D6D2F706C617466D6
:105598006F726D2F6578742F7461726765742F6EE2
:1055A8006F726469635F6E72662F636F6D6D6F6E85
:1055B8002F636F72652F6E61746976655F647269B7
:1055C800766572732F7370752E63000028287374C4
:1055D8006172745F61646472202B206E73635F7301
:1055E800697A6529202520283078343030302929F7
:1055F800203D3D2030000000286E73635F73697A98
:1056080065202620286E73635F73697A65202D20D4
:10561800312929203D3D203000000000286E7363A9
:105628005F73697A65203E3D203332292026262083
:10563800286E73635F73697A65203C3D2034303986
:10564800362900002828284E52465F5350555F548B
:105658007970652A29203078353030303330303051
:10566800554C292D3E50455249504849445B706578
:10567800726970685F69645D2E5045524D2026201E
:1056880028307833554C203C3C202830554C29296B
:105698002920213D20282830554C29203C3C202811
:1056A80030554C29290000002828284E52465F53BF
:1056B80050555F547970652A29203078353030305C
:1056C80033303030554C292D3E50455249504849C9
:1056D800445B7065726970685F69645D2E504552FD
:1056E8004D20262028307833554C203C3C2028304B
:1056F800554C29292920213D20282831554C29207D
:105708003C3C202830554C29290000006E72665F09
:105718007370755F666C617368726567696F6E5FD9
:10572800736574006E72665F7370755F72616D7217
:105738006567696F6E5F7365740000007370755FED
:10574800726567696F6E735F666C6173685F636FBC
:105758006E6669675F6E6F6E5F7365637572655FAE
:1057680063616C6C61626C65000000006E72665F5C
:105778007370755F666C6173686E73635F7365746D
:10578800000000007370755F7065726970686572FB
:10579800616C5F636F6E6669675F73656375726579
:1057A800000000006E72665F7370755F70657269E5
:1057B80070686572616C5F73657400007370755F03
:1057C8007065726970686572616C5F636F6E666937
:1057D800675F6E6F6E5F73656375726500000000CA
:1057E80000000100000200000002FF002C00000081
:1057F8005004FF00100000003001FF000800000006
:10580800200CFF00040000006E72665F6770696F0D
:105818005F70696E5F70726573656E745F636865EB
:10582800636B282A705F70696E2900002F6F70748F
:105838002F6E6F726469632F6E63732F76322E3703
:105848002E302F6D6F64756C65732F68616C2F6EC9
:105858006F726469632F6E7266782F68616C2F6E41
:1058680072665F6770696F2E680000003000000084
:105878006E72665F6770696F5F70696E5F706F7276
:10588800745F6465636F6465000000008C400020ED
:105898002128705F7265672D3E445050495B6470E3
:1058A80070695F69645D2E4C4F434B202620283079
:1058B8007831554C203C3C202830554C292929006A
:1058C8002F6F70742F6E6F726469632F6E63732FFE
:1058D80076322E372E302F6D6F64756C65732F6896
:1058E800616C2F6E6F726469632F6E7266782F68B1
:1058F800616C2F6E72665F7370752E680000000011
:105908002128705F7265672D3E4750494F504F52AE
:10591800545B6770696F5F706F72745D2E4C4F4394
:105928004B20262028307831554C203C3C2028300C
:10593800554C2929290000002128705F7265672DC0
:105948003E455854444F4D41494E5B646F6D616903
:105958006E5F69645D2E5045524D202620283078B0
:1059680031554C203C3C202838554C292929000029
:105978006E72665F6770696F5F70696E5F7072657F
:1059880073656E745F636865636B282A705F7069FE
:105998006E2900002F6F70742F6E6F726469632F09
:1059A8006E63732F76322E372E302F6D6F64756CC1
:1059B80065732F68616C2F6E6F726469632F6E72E6
:1059C80066782F68616C2F6E72665F6770696F2EDC
:1059D800680000003000000000C0010000C00100A5
:1059E800FFFF0E0000BC010000C0010000000F0016
:1059F800FFFF0F006E72665F7370755F6470706989
:105A08005F636F6E6669675F7365740000000050BE
:105A1800004000500050005000800050009000509E
:105A280000B0005000C0005000A0005000E000503E
:105A380000F00050000001500010015000400150DB
:105A4800005001500070015000800150009001503A
:105A580000A0015000B0015000C0015000D001501A
:105A680000E0015000F00150000002500010025008
:105A780000200250003002500040025000600250E6
:105A88000080025000A0025000B0025000D0025026
:105A980000000350003003500040035000600350E2
:105AA8000070035000900350002584500028845053
:105AB8006E72665F7370755F6770696F5F636F6E34
:105AC8006669675F736574006E72665F6770696F99
:105AD8005F70696E5F706F72745F6465636F646531
:105AE800000000006E72665F7370755F657874649D
:105AF8006F6D61696E5F736574000000FFFFFFFFE3
:045B08000F0000008A
:105B2000009A254B9A4208D110B503F014F902F0FF
:105B3000B7FF06BC96460C46744703F079F900BFE0
:105B40001846009A1C4B9A4208D110B503F01AF976
:105B500002F0A6FF06BC96460C46744703F068F9AF
:105B600000BF18460CB4029A134B9A420CD14FF066
:105B7000004319430CBC10B500F0A4F802F090FFEC
:105B800006BC96460C46744703F052F900BF18460F
:105B9000009A094B9A4202D108490868744703F0F9
:105BA00047F900BF1846009A034B9A4200D1744748
:105BB00003F03EF900BF0000A5EDF5FE8040002097
:105BC0000348044B834202D0034B03B1184770478C
:105BD0009441002094410020000000000548064B3D
:105BE0001B1AD90F01EBA301491002D0034B03B1DB
:105BF00018477047944100209441002000000000A5
:105C000010B5064C237843B9FFF7DAFF044B13B104
:105C10000448AFF300800123237010BDA04800208A
:105C2000000000007095010008B5044B1BB1044949
:105C30000448AFF30080BDE80840CFE70000000053
:105C4000A448002070950100A3F5803A704700BF7A
:105C5000174B002B08BF134B9D46FFF7F5FF0021A4
:105C60008B460F461348144A121A03F030F80E4BB5
:105C7000002B00D098470D4B002B00D098470020F8
:105C8000002104000D000D48002802D00C48AFF39D
:105C9000008002F039F920002900FDF723F802F016
:105CA0000DF900BF00000800000000000000000027
:105CB000F82B0020944100205858002000000000DC
:105CC0000000000080B58AB000AFF860B9607A606B
:105CD0003B60EFF30583BB61BB697B61BB8AC3F3A8
:105CE00008039BB2002B01D0FEF79CFC104B1B68F5
