:020000040000FA
:1000000070A20520E9400000D9B80000D5400000EA
:10001000D5400000D5400000D5400000D54000008C
:10002000000000000000000000000000814200000D
:10003000D54000000000000041420000D540000013
:10004000FD430000FD430000FD430000FD430000B0
:10005000FD430000FD430000FD430000FD430000A0
:10006000FD430000FD430000FD430000FD43000090
:10007000FD430000FD430000FD430000FD43000080
:10008000FD430000FD430000FD430000FD43000070
:10009000FD430000FD430000FD430000FD43000060
:1000A000FD430000FD430000FD430000FD43000050
:1000B000FD430000FD430000FD430000FD43000040
:1000C000FD430000FD430000FD430000FD43000030
:1000D000FD430000FD430000FD430000FD43000020
:1000E000FD430000FD430000FD430000FD43000010
:1000F000FD430000FD430000FD430000FD43000000
:10010000FD430000FD430000FD430000FD430000EF
:10011000FD430000FD430000FD430000FD430000DF
:10012000FD430000FD430000FD430000FD430000CF
:10013000FD430000FD430000FD430000FD430000BF
:10014000FD430000FD430000FD430000FD430000AF
:10015000FD43000053B94AB9002908BF00281CBF5D
:100160004FF0FF314FF0FF3000F00CB8ADF1080C4C
:100170006DE904CE00F008F8DDF804E0DDE90223C3
:1001800004B07047704700BF2DE9F04786468C46A3
:100190000846089E154674461946002B40F0C1805B
:1001A0008542B2FA82F245D94AB1C2F1200300FA7F
:1001B00002FC954094402EFA03F343EA0C0C4FEAFC
:1001C000154EA8B2230CBCFBFEF80EFB18CC08FBA6
:1001D00000F943EA0C43994528D9EB1808F1FF3799
:1001E00004D2994502D9A8F102072B44A3EB0903D5
:1001F000A4B2B3FBFEFC0EFB1C330CFB00F044EA84
:100200000344A04214D92C190CF1FF3304D2A042AC
:1002100002D9ACF102032C44241A43EA07401EB170
:10022000D440002334607360BDE8F0874746DDE7C3
:100230006346F1E792BB431B01214FEA154EAFB273
:10024000200CB3FBFEFC0EFB1C330CFB07F840EA52
:100250000343984561D9EB180CF1FF3004D298455F
:1002600002D9ACF102002B44A3EB0803A4B2B3FB08
:10027000FEFC0EFB1C330CFB07F744EA0344A742C9
:100280004DD92C190CF1FF3304D2A74202D9ACF19D
:1002900002032C44E41B43EA0040C0E7C2F1200300
:1002A0009540944020FA03F12EFA03F34FEA154EDD
:1002B0009040AFB20343B1FBFEFC0EFB1C10190CC7
:1002C0000CFB07F841EA0041884522D969180CF176
:1002D000FF3004D2884502D9ACF102002944A1EBD9
:1002E00008019BB2B1FBFEFC0EFB1C110CFB07F7D7
:1002F00043EA01439F420ED9EB180CF1FF3104D2BF
:100300009F4202D9ACF102012B44DB1B41EA0041C0
:1003100093E76046E3E76146F7E76046A4E7634694
:10032000B8E7834206D916B9002108467CE7C6E93A
:1003300000E0F9E7B3FA83F78FB9834201D372453E
:1003400008D8BEEB020460EB030301209C461EB9F3
:10035000002169E73846FAE7C6E9004CF8E7C7F13B
:10036000200CBB400EFA07F522FA0CF42EFA0CF121
:10037000BA401C4320FA0CF3B8404FEA1449014339
:100380001FFA84FEB3FBF9F809FB18300B0C08FBCD
:100390000EFA43EA00439A4540D9E31808F1FF30CA
:1003A00004D29A4502D9A8F102002344A3EB0A0320
:1003B00089B2B3FBF9F809FB183308FB0EFE41EADA
:1003C00003418E452CD9611808F1FF3304D28E45C4
:1003D00002D9A8F10203214443EA0040A1EB0E0137
:1003E000A0FB02984145CE46434602D306D14D4577
:1003F00004D20138B9EB020E68EB0403002EA7D03B
:10040000B5EB0E0261EB030101FA0CFC22FA07F3D3
:10041000F9404CEA0303C6E9003199E74046C5E7D5
:100420004346D9E7F0B53B4B3B4A85B0C2F80036AE
:10043000C2F80436C2F80836C2F80C36C2F81036D4
:10044000C2F81436C2F81836C2F81C3602F58052CB
:10045000C2F80036C2F80436C2F80836C2F80C36C4
:10046000C2F81036C2F81436C2F81836C2F81C3674
:1004700000F098F800F056F858B14FF05023D3F838
:1004800000340BB1DB0704D503F050F8234803F028
:100490005FFC00F029FB054601A801F01FF80446A7
:1004A000284600F031FB1E4B1B68A34201D00AF026
:1004B00073FA4FF48031002006F062FD044600B16B
:1004C000FEE706F03BFE69469DF808000AF089F950
:1004D000009B039D1D44019B1E8906F039FDAF1949
:1004E00002F036F801F042F801F08EF801F010F851
:1004F00001F02AF884F30B8884F30A88AB5983F35C
:10050000088884F31488BFF36F8FBFF36F8F7B6805
:100510009847FEE73546526E0080015018EA000009
:10052000BC20002073B50F4C20460DF0D8FCB8B1AC
:100530002569A6682B680D2143F400532B602046E3
:100540003368094A98472046736801A9984720B93B
:100550002B6801985840C0F34030003818BF012084
:1005600002B070BDFCE600001100010021B10129BC
:1005700006D06FF015007047044B53F830007047F9
:10058000024B03EBC0035868704700BF20EA00002D
:1005900004289ABF024B18566FF01500704700BF31
:1005A000D6EF00004FF4C051014807F095BA00BFE4
:1005B000C24601202DE9F04706460F4690461C46EC
:1005C000124DDFF84CA0554511D30A2120460DF0FD
:1005D0006DFC022220460F490DF05BFC08212046ED
:1005E0000DF03EFC0A2120460DF068FC0BE055F8AA
:1005F000049BB9F1000FE6D0234642463946304607
:10060000C8470828DFD00020BDE8F087D4F80000F4
:10061000D8F80000DBEF000037B51D4683883F2B7C
:100620002ED1037803F00703022B29D1C4793CBBF8
:100630000D2001A901F068FC00281FDB019821466C
:1006400082680AF034FF044601980AF005FF003C76
:1006500018BF01240A2128460DF028FC022209496E
:1006600028460DF016FC214628460DF0F9FB0A211C
:1006700028460DF023FC204603B030BD0124E9E7F5
:100680000824F8E7DBEF00002DE9F04FDFF80CA2BB
:10069000F9B038A8DDE9848916461C46869FDAF849
:1006A00000500CF06CFE002138A807F04BFBB8F1AD
:1006B000000F07D0B9F1000F04DD4A46414638A8C3
:1006C0000CF066FE4FF0000833897289D6F80CB042
:1006D00013449B44C3453AD80DA938A80CF097FEA3
:1006E00027B1202238460DA90BF06FF900232246CE
:1006F000009331464FF6FF7307A80AF093F880463F
:1007000010BB20460C9E0AF045F986421CD84FF0DB
:10071000FF37DFF88C910DF1160305AA06A907A88B
:100720000AF0CEF800280FDB40F0AD80069907A84C
:100730000AF012F910BB4FF6FF71BDF81600594AC6
:1007400032F8023B8B4217D1DAF800509FE0839BCE
:10075000ABEB0809994528BF994641464B462046D0
:10076000829A0AF07AFE0028EED14A46829938A889
:100770000CF00EFEC844ADE79842E1D1BDF816601A
:10078000102E1ED1BDF81460202EDDD13346204638
:10079000069938AA0AF061FE0028D5D100F0A4F924
:1007A0003246804638A90DA800F086F90646404634
:1007B00000F0AAF93C4B1B68B342C5D14FF00108C9
:1007C000A9E7012E36D1BDF81430202BBCD8204625
:1007D000069938AA0AF041FE07460028B4D19DF8D0
:1007E00014B0BBF1200F02D94FF0FF3793E7D9F8CF
:1007F00000302E4E0393039B9F42F5DA1DA80CF0A8
:10080000BEFD00211DA807F09DFA72681DA81268A0
:1008100056F8081B0CF0BCFD15A91DA80CF0F7FD3F
:100820005A4638A915A80BF0A9F800283FF473AF71
:100830000137E0E7202E7FF46EAF7B1C3FF46BAFF7
:10084000D9F80030BB42CFDDBDF81430B3F5807F5E
:100850007FF47AAF2046069938AA0AF0FEFD0028F8
:100860007FF472AF00F040F9FFB283463146BDF825
:10087000143038AA00970DA800F01AF8054658461B
:1008800000F042F9B0E7B8F1000F3FF45DAF00F0BF
:1008900033F9284679B0BDE8F08F00BFB8200020BA
:1008A00030EA000094EF0000BC20002034EA000091
:1008B0002DE9F04FDFF8F4B1ADF5417D80462AA86F
:1008C0001E469DF828738A469146DBF800500CF0CE
:1008D0000FFD092201212AA807F0B0F9744B80AA64
:1008E00053F8374003EBC7035B6805941B6805A802
:1008F0001C44214630230BF058FD002840F0CC80EA
:10090000059B809A13449C4240F0C68021462CAA45
:1009100005A80BF05EFD002840F0BE802EAF3A46E1
:10092000214605A80BF055FD0390002840F0B48047
:100930002CA80CF06CF8059A2B90944240F0AC80F7
:10094000039B01971A4600932CA92AA80CF08DFC52
:10095000002840F0A1802AA807F086F9002840F07E
:100960009B802CA80CF053F82B902AA80CF0CAFC02
:10097000864240F0918000F0B7F8B6F5807F0746D8
:10098000DBF8005040F08380BAF1200F7FD1494658
:1009900080AA2AA807F08EF90446002877D19DF88E
:1009A000FF32BC2B73D1DF2606900DF5907A0FA88D
:1009B0000CF0E5FC00210FA807F0C4F920220DF28D
:1009C000DF210FA80CF0E4FC042206A90FA80CF00C
:1009D000DFFC07A90FA80CF01AFD202EB146A8BF16
:1009E0004FF020099DF81B30504601334A4607A9B5
:1009F000A6EB09068DF81B300AF0E7FF002ECA446B
:100A0000D5DC48AA1046002180AB067813F801CB4C
:100A1000013186EA0C06DF2900F8016BF5D19DF85B
:100A2000203103F07F038DF8203112F8016B76BB83
:100A30000134BE2CF9D19DF8DE31012B27D10FA84E
:100A40000CF09DFC31460FA807F07CF908221949EB
:100A50000FA80CF09DFC414620220FA80CF098FC3A
:100A600020220DF2DF110FA80CF092FC07A90FA8AD
:100A70000CF0CDFC00F038F8202204460DF2DF2106
:100A800007A800F019F80546204600F03DF800F0F0
:100A900033F8384600F038F82AA80CF035FC00F09E
:100AA0002BF828460DF5417DBDE8F08FB8200020D9
:100AB00034EA0000DEEF000070B5094B04461D6803
:100AC0000023934205D1074B1D6800F015F8284616
:100AD00070BDE65CC85C8642F7D10133F1E700BF28
:100AE000B8200020BC200020024B1868421C1A606D
:100AF000704700BF00280020024A1368013B1360C2
:100B0000704700BF00280020034B1B68834201D0C0
:100B100009F042BF704700BF00280020034637B5E8
:100B20004FF40062084693F8B840134901926200FE
:100B300051F82250A8420ED1582101FB043201FB8A
:100B40000434526A283401A901F006FA08B9019B5D
:100B5000236003B030BD013251F82220904208D109
:100B6000582101FB043201FB0433126D03F15404DC
:100B7000E9E70120EDE700BF3CEA000070B590F81E
:100B8000B850104E6D0056F825100446FFF7C6FF0A
:100B900098B9013556F825102046FFF7BFFF0546E6
:100BA00068B9582294F8B83002FB0343186A0AF077
:100BB00092FCC4F8B400284670BD0125FBE7092566
:100BC000F9E700BF3CEA00002DE9F04F624B8DB021
:100BD000044690F8B8000E461D68FFF7C7FC0AA946
:100BE0008246C0B201F090F928B1FFF785FF284690
:100BF0000DB0BDE8F08F94F8B87031463846FFF775
:100C0000B5FC4FF02C090BA9C0B209FB06F901F0A5
:100C10007BF900285CD04FF0580B2C220BFB07F31C
:100C200002FB063323441B6913F0100865D1FFF75C
:100C30005BFF3146079094F8B80006F087FA054646
:100C40000798FFF761FF454B1B689D4223D1FFF7D3
:100C50004BFF94F8B81007900A9D0991FFF744FFE5
:100C60004FF4807307FB0B9201933D4B0999089059
:100C7000009322442B464046CDE90388CDF80880F6
:100C8000FFF702FD05460898FFF73EFFFFF734FF28
:100C90000798FFF739FF2C234FF0580C73430CFBD8
:100CA00007373049E219E7590A988F420AD1D168CB
:100CB0001289521806D281688A4203D22A4A1268DF
:100CC000AA4220D0CEB1002182680AF0F0FB14E0E5
:100CD0000B980AF007FC05460B980AF0BDFB582359
:100CE00094F8B82002FB039323445A1E033312F8EE
:100CF000011FA9428FD19A42F9D11C4B1D680A9855
:100D00000AF0AAFB71E794F8B820194901EBC20177
:100D100049688A45F3D10CFB02F2A1180E6A002142
:100D2000134423440B91198904230BAA19440AF094
:100D300094FB0028E1D194F8B8300B99012B0BBF3C
:100D40000C4AD6E901234FF082739B18914201D3DC
:100D50009942D4D90A98B6E7B8200020B0200020E4
:100D6000C25E01203DB8F396BC200020B4200020D4
:100D70003CEA0000008800012DE9F84F88469146C2
:100D80009A460026DFF88CB0234D244C0B9B9E42E4
:100D900001D300200FE00B9B40469F1BB7F5806FEF
:100DA00028BF4FF480671B4A3B4606EB0A010AF056
:100DB00054FB10B10120BDE8F88F0A993B465A4612
:100DC000484671180AF05EFB0028F3D1144BC5F8B1
:100DD00000463E44C5F80446C5F80846C5F80C462A
:100DE000C5F81046C5F81446C5F81846C5F81C469F
:100DF000C3F80046C3F80446C3F80846C3F80C46D7
:100E0000C3F81046C3F81446C3F81846C3F81C4686
:100E1000BCE700BF04280120008001503546526E17
:100E2000009001502DE9F04F002604460D46B046D3
:100E3000582795B0012E84F8B8601DD90026854F3B
:100E400017F8011B01290CD13046FFF78FFB0EA9C3
:100E5000C0B201F059F8014618B90E9882680AF03C
:100E600026FB002E00F0E980B8F1000F00F0698148
:100E7000002058262C27E8E0A31993F8B910002980
:100E800053D107FB0643744A304602EB86325A625E
:100E9000724A02EB86321A65FFF768FB94F8B810C5
:100EA000C0B207FB0141203101F02EF808B109F072
:100EB00073FD01213046FFF759FB94F8B810C0B21A
:100EC00007FB01414C3101F01FF808B109F064FD46
:100ED0002046FFF753FE00BB00222046114609F0D2
:100EE0006EFD834690B9204609F0CAFD70B10AA88C
:100EF00009F094FD09F09BFD064660BB94F8B830FC
:100F0000C3B9002120460AAA09F059FD012294F82C
:100F1000B830234483F8B02007E0012294F8B830B9
:100F20009042234483F8B020D6D194F8B8600136BB
:100F3000F6B27FE794F8B020042A04BF012284F8B7
:100F4000B020012BDDD094F8B130042BD9D101238E
:100F500084F8B130D5E79DF82F30012B55D15822B8
:100F600094F8B830CDF838B002FB03433C4AD96A54
:100F7000D86C91422BD1998E04230EAA19440AF001
:100F80006CFAF8B14FF0050994F8B830234483F8AF
:100F9000B09094F8B8306BB1E21892F8B020012A02
:100FA000C3D0042A0CD094F8B020042A02D1012224
:100FB00084F8B020234493F8B030023B022BB4D81D
:100FC000B046B2E7022194F8B830224AD15494F8DE
:100FD000B80006F06BF9831E022B8146D4D8FFF7C8
:100FE00083FD012183462046FFF7EEFD82465846E9
:100FF000FFF78AFD1B4909688A45C5D01A4A12685D
:101000009245BFD14FF00109BEE7FFF76DFD012109
:1010100083462046FFF7D8FD81465846FFF774FD0A
:10102000104A94F8B83012682344914514BF052241
:101030009DF82F2083F8B020ABE7012600E72318A6
:1010400093F8B92092B10130C0B2012884F8B800F9
:10105000F5D976E0C25F012004A800200428002012
:101060003DB8F396BC200020B420002093F8B08057
:1010700008F0FB08B8F1010818BF4FF0010841461D
:10108000FFF774FA05A9C0B200F03EFF002840F057
:101090008F8007FB08F194F8B830059A03FB06111E
:1010A0000123214400930EA8402309F0BBFB804696
:1010B00000287FD100230DF1120206A90EA809F025
:1010C000FFFB00283DDB059840F08180BDF8123021
:1010D0000C2B7AD1069907AA0AF0BFF900287FD114
:1010E0009DF81C30012B7ED8E21892F8B020734393
:1010F000023A022A8CBF0022012207FB023323445A
:10110000197D9DF820209142D4D80AD3597D9DF8AD
:1011100021209142CED804D3DA8ABDF822309A42F7
:10112000C8D294F8B8300598234493F8B020012A27
:101130003CD0023A012A02D8012283F8B0200AF0FA
:101140008BF900264FF0FF085827012E84F8B8606D
:101150004CD90023DFF8D082B44EB54F0E93012B4B
:1011600084F8B83040F24E810E9B022B01D009F07A
:1011700013FC94F8B930002B40F09281582606FBFE
:10118000034284F8B830106A09F031FB287194F8F2
:10119000B83006FB03431B6A5B68AB6094F8B83059
:1011A00003FB06462E60A14B1D6850E10422C4E7F4
:1011B0000598C4E705980AF04FF9B8F1030FC0D1BC
:1011C00040F20113A4F8B030BBE74FF003080598D4
:1011D0000AF042F9B8F1000FEFD194F8B80032E705
:1011E0004FF00108F3E74FF00708F0E7A21992F873
:1011F000B930002B40F0C3800AA809F00FFC92F828
:10120000B030042B8DF82F3006D8012B06D800F013
:10121000AD8082F8B080A9E0052BF8E707FB064314
:10122000194630462C31DA6C0BF001F801280146E2
:1012300040F09C8094F8B800FFF798F907A9C0B275
:1012400000F062FE002800F09F804FF000094FF090
:10125000580B07980AF000F994F8B86007A90BFB3F
:1012600006431B6A187800F04FFE724B0EA903EB81
:10127000C6030026B246187900F046FE94F8B8304E
:101280000BFB03439B6A534519D094F8B8203146B1
:101290000BFB0242526A079802EBCA0252680393A0
:1012A00002920AF004F9029A039B16444E45C0F0DC
:1012B000A680D4F8B460B9FBF6F906FB0966D4F849
:1012C000B40009F057FB582394F8B82003FB0242FE
:1012D000536A926A1968013A03EBC2030022D3F8F9
:1012E00004E09C4672449042A3F10803F7D8DCF86E
:1012F00000300798591A0AF0DAF800232046079AB6
:101300000E9901960093FFF737FD78BB079805F01B
:1013100057FF58BB4FF0580994F8B800324609FB04
:101320000043196A0AF091FF0146F8B994F8B83001
:101330000E9809FB03431B6D5A680AF0B8F894F83D
:10134000B83009FB0343D3E91423013B52F83310AF
:1013500002EBC30013684268C91A0E980AF0A7F896
:1013600007980AF079F80E980AF076F894F8B830F1
:10137000234493F8B030FF2B01D109F00DFB94F812
:10138000B8600136F6B2E0E694F8B830079807FB8B
:1013900003439E8E9B6B0EAA1E44314604230AF023
:1013A0005CF800287FF451AF94F8B830BDF83820CD
:1013B00007FB0343B3F836A046F608139A42079892
:1013C00019D1BDF83A309A457FF43FAF04230EAAF5
:1013D0000AEB06010AF041F800287FF436AF46F622
:1013E0000713BDF838209A427FF42FAFBDF83A902A
:1013F000D144B1442BE7BAF1000FF0D025E70AF150
:10140000010A40E7234493F8B9208DF81C209DF889
:101410001C1001F0FF0279B10E9B01330E9394F87A
:10142000B8300133DBB29AE6B8200020BC2000209F
:10143000B42000203CEA000093F8B030012B17D014
:101440001146204609F0BBFA90B1D8F8005010229E
:1014500000210AA80AF0C4FA58260023012B84F8B8
:10146000B83025D9FFF748FB284615B0BDE8F08F06
:10147000FFF73AFB002182462046FFF7A5FB814695
:101480005046FFF741FB33684B45DED1D8F80020CA
:101490009A42DAD03A689A42BED1D6E701236DE685
:1014A00094F8BA30002BF9D0022384F8B8307AE6E9
:1014B000E21892F8B9205AB906FB0343D86C09F038
:1014C000CBFF94F8B83006FB0343186A09F0C4FF59
:1014D00094F8B8300133DBB2C0E700BF70B50B4EF3
:1014E0000446BC22002130460AF07AFAFFF7FCFAE3
:1014F000214605463046FFF795FC04462846FFF78F
:1015000003FBFFF7F9FA204670BD00BF042C012051
:10151000BFF36F8F72B600234FF0FF30094A03F11B
:1015200020010133102B42F82100F8D100234FF0A5
:10153000FF30044A03F160010133102B42F821000F
:10154000F8D1704700E100E0002318460649D1F8C1
:101550009020C2F30722934200DB7047C1F8983015
:10156000C1F8A0000133F6E700ED00E02DE9F843F3
:101570004FF0FF3501274FF00008204BDFF8809037
:101580005F60C3F84853C3F8085303F580535F60A6
:10159000C3F84853C3F8085359F8044B002644F3E2
:1015A0000730C4F8085302F089FE80226760C4F84F
:1015B0004C61D4F84C31C4F81061D4F81031C4F83F
:1015C00044613146D4F84431A018C4F800650AF0EB
:1015D00007FA8022314604F5C0700AF001FAB8F12A
:1015E000000F08D0074BC3F808554FF05023C3F83D
:1015F0000853BDE8F8834FF00108CDE700400150E3
:1016000050EA0000007001504FF4EC220021014824
:101610000AF0E6B900A00020014B1B68184700BF84
:10162000C020002007B50B46002102460091034868
:1016300000F006F803B05DF804FB00BF19160000C7
:101640002DE9F04F82464FF000098DB01D46531E24
:1016500001910393039B58785C1C252819D1002025
:101660004FF0FF381E46444603460236029031785A
:101670000396392955D81F2914D8002900F0EF8185
:1016800001992520D04701993078D04709F1020906
:10169000E0E7002800F0E3810199D04709F1010952
:1016A0000394D7E7A1F12002192AE9D801A757F836
:1016B00022F000BF1D1700008116000081160000F7
:1016C0001D170000811600009D1700008116000004
:1016D000811600008116000081160000E917000045
:1016E0001D17000081160000FD170000A91700005B
:1016F00081160000B7170000D7170000D7170000A9
:10170000D7170000D7170000D7170000D717000021
:10171000D7170000D7170000D7170000084601367A
:10172000A5E7582900F0EB80A1F16302D7B2172F8B
:10173000A6D8172AA4D801A757F822F0A5190000A7
:101740002318000081160000811600008116000099
:101750000318000023180000811600008116000005
:101760000318000081160000811600008116000099
:10177000D9180000811600008116000079190000B8
:101780008116000023180000811600008116000059
:10179000D9180000811600000318000025200199C7
:1017A000D04709F1010955E7029A4FF0000802F00D
:1017B000FE020292B3E7002C0DDAB8F1000F0DDA49
:1017C000029A002A00F043810A2224EAE47402FB10
:1017D0000414303CA3E7B8F1000FF5DB0A2202FB4A
:1017E0000812A2F130089AE7B8F1000F55F8042B5F
:1017F00080F22F81002A80F22E815442022202922E
:101800008DE7682903D1682B06D1482387E76C2927
:1018100002D16C2B00F02181002B7FF431AF0B46FD
:101820007DE77A2B06D1752955F8046B14D14FF05A
:10183000000B0CE06C2BF6D04C2BF4D1073525F0C7
:101840000703752903F10805D3E9006B06D12028A9
:101850003BD1854F013C09E04FEAE67BBBF1000F2D
:10186000F5DA7642814F6BEB4B0B013C0DF12D030A
:10187000059300230493304659460A220023FEF7BD
:1018800069FC059BB446303203F8012D5A46059396
:10189000049BBCF10A0F8B4672F1000203F1FF3189
:1018A00006460491E7D2C3F1010B30330DEB03067A
:1018B000B8F1000FA6F104066DDA029BD9077DD4BA
:1018C000A8EB0B03A4EB0B0413E02B280ABF684F13
:1018D000684F04F1FF34C9E770290FD155F8042B84
:1018E0000023FAB96FF004034FF0050B614F624E0D
:1018F000053C029A920770D4A04666E078216C2BD2
:1019000003D1002355F8042B08E04C2BF9D10735FF
:1019100025F007031D465B6855F8082B232825D1C1
:10192000880621D5554F023C002601F06001A1F147
:10193000390B0DF12D0E02F00F01092988BF594412
:1019400030310EF8011D102A4FEA121141EA0371DD
:101950004FEA131C73F1000306F1FF3008D2C6F101
:10196000010B06F13003A1E7454FDCE7414FDBE710
:1019700006460A466346DEE755F8046B304609F032
:10198000F6FFB8F1000F834602DB4045A8BFC3460F
:101990004FF00008374FA8EB0B03002B92DDA4EBB0
:1019A0000804A6E755F8043B4FF0010B8DF81830FA
:1019B000304F4FF0FF33013C06AE9AE7A046EAE70E
:1019C000029320200199D047029BB8F10108F7D576
:1019D00024EAE472013C9144A41AB84606E0049358
:1019E00002920199D047029A049B9046424612F80F
:1019F000010B0028F3D11A46013A15D5002BACBFD4
:101A0000C7EB03077F425B46013B15D5BBF1000FD7
:101A1000A8BF5F4426464F44013E14D5002CA8BF02
:101A20003F1907EB080915E604930292302001994B
:101A3000D047049B029ADFE70293019916F8010B45
:101A4000D047029BE0E701992020D047E4E701223C
:101A5000D5E6904663E6144661E64C235FE64846C9
:101A60000DB0BDE8F08F00BFF6F00000F4F000000C
:101A7000F8F0000079F2000000F10000FAF0000038
:101A8000FDF00000044608B5EFF31183202383F333
:101A90001288BFF36F8F05F05BFA204602F054FB0B
:101AA000024809F0EEFA09F02DFFFCE706F100000C
:101AB0002DE9F043079D15B91560002012E00324BD
:101AC000B5FBF4F404EB4407BD4218BF0134B4F194
:101AD000804F09D2A40001348C4200D838B96FF08D
:101AE0000B001460BDE8F0834FF0FF34F7E70446C5
:101AF0000021DFF8B4E0B94203F1030C04F104065D
:101B00002BD3A942274623D201F1010CAC451F7803
:101B100028BF002324494FEAA70E38BF5B7811F88D
:101B20000EE0AC4584F800E001EB131E2EBF3D2310
:101B30009B0003F03C034FEA071738BFCB5C07F06C
:101B400030071EF80770A3703D2367703746E370B7
:101B50000023381A10603B70AFE71CF8034C1CF8E8
:101B6000023C4FEAA4091EF8099024011CF8018CDC
:101B700004F0300406F8049C0EEB131919F8044025
:101B80009B0006F8034C03F03C030EEB9814E35C57
:101B900008F03F0806F8023C1EF80830344606F804
:101BA000013C03316346A6E7AFF100002DE9F043A5
:101BB00000273C463D46DDF81CE0DFF828817545EE
:101BC0001FD3E4BB00201460BDE8F08301367645E6
:101BD00033D013F806C0BCF1200FF7D0AEEB0609E6
:101BE000B9F1010FA6EB05050DD0BCF10D0F0AD11F
:101BF00003EB060999F80190B9F10A0F6ED1751C33
:101C0000DDE72E46E3E7BCF10A0FF8D02DB9BCF1B1
:101C10003D0F05D10137022F0DD96FF01500D3E725
:101C20001CF0800FF9D118F80C507F2DF5D03F2D06
:101C300001D8002FF1D10134E1E73546C1E74FF07B
:101C4000060C04F00706E4080CFB06F60CFB04F493
:101C50000736E41B04EBD60470B18C420CD8002785
:101C6000014603263C46DFF87CE0DFF87C801D441B
:101C70009D4205D10C1AA5E76FF00B001460A3E795
:101C800013F8019BA9F10A0C5FFA8CFCBCF1160F4A
:101C900004D848FA0CFC1CF0010FE9D01EF809C06A
:101CA0000134BCF1400F08BF013E0CF03F0C042C86
:101CB0004CEA8717DCD17EB13C0C012E0C7002D1AE
:101CC00001310024D4E7022E4FEA17244C7016BFCE
:101CD0008F7002310331F4E73446C9E7002DA2D0FA
:101CE0009BE700BF2FF10000F6FFBFFF2DE9F04793
:101CF000058B04462807904611D4022905F00705F4
:101D000040F0CC80204609F0EEF978B10138218B03
:101D1000042811D8DFE800F0C2106D859500012974
:101D20000CBF45F0100545F02005258388F3118888
:101D3000BFF36F8FBDE8F08701F0070AAA4500F0F6
:101D4000A5800027B9463E46A368002B00F0BC8062
:101D500041F00801218388F31188BFF36F8FA168D8
:101D6000002900F0BA800D68002900F0B6803346E3
:101D700052462046D1F80480C047002D76D02B680B
:101D800029461D46F0E701F007035A1F012A1BD818
:101D9000002221F00701062B276889B2C4E900223E
:101DA00009D13B4603E0628B013262831B68002B42
:101DB000F9D141F002012046218309F094F900286D
:101DC0007AD041F0200176E0042B0AD121F00701FE
:101DD00089B22046218309F086F910B141F0200133
:101DE0002183218B01F0070AAA454FD00027B9466D
:101DF000AAE7236921F0070141F00601062DD3F877
:101E0000009021832DD1B9F1000F3FD041F008019E
:101E1000218388F31188BFF36F8F20463949C84763
:101E200029E021F00701236941F0040189B2042D62
:101E3000D3F804902183E6D000274FF0040A3E46F1
:101E400082E721F00701236941F0050189B2052DE0
:101E5000D3F808902183D6D000274FF0050A3E46DC
:101E600072E700274FF0060A3E466DE72B4687E7EC
:101E7000B9F1000FD1D1EFF31188202383F3128839
:101E8000BFF36F8F238B23F008032383258BEA0690
:101E90002ED525F01003238305F007056669218BF5
:101EA000002EBFF670AF00232768C4E9003321F08D
:101EB000070141F001012183218B4FF0000901F05E
:101EC000070AAA457FF440AF002F9CD041F00801DB
:101ED000218388F31188BFF36F8F002FC8D03D682E
:101EE000394633465246204609F029F92F46F4E791
:101EF000AB067FF51BAF25F02003238305F0070514
:101F000000E700BF6BB1000070B5114B0D461C68B7
:101F1000DCB1104B196800238B4202DB6FF001002B
:101F200070BD224612F8106B864202D0144601336F
:101F3000F2E7E06810B96FF01200F1E70BF0CFFFA5
:101F40000028F8D000202C60EAE76FF00C00E7E7EB
:101F50001C210020A4EA000070B588B005460C469C
:101F6000C0B269461646FFF7CFFF00281BDB00987A
:101F7000C8B143682268029383680195CDE90336AE
:101F80000023CDE906230593C56809F065FA6DB114
:101F90002846084901AA09F03BFF079808B9059BA4
:101FA000236008B070BD6FF01500FAE76FF0120003
:101FB000F7E700BFF3B40000F0B40C4B0C4E5F6ABF
:101FC0000C4BB34203D36FF08500F0BC70475D68E3
:101FD000BD4209D31C693CB195F802C00579AC45F6
:101FE00002D12346F0BC18472433EAE7C02C012075
:101FF000A8240020842400202DE9F04705460E4641
:102000001746124CDFF84880DFF84890444503D368
:102010006FF08500BDE8F0876268D9F824309A42F5
:1020200012D3A36983B190782979884205D13A46C1
:1020300031462846BDE8F04718475279012A03D1B6
:102040003A463146284698472434DFE78424002066
:10205000A8240020C02C01202DE9F04105460E46A1
:1020600017460A4CDFF82880444502D36FF08500FC
:1020700009E063690BB92434F6E73A46314628464D
:1020800098470028F7D1BDE8F08100BF84240020E4
:10209000A824002010B5044609F0F1FC10F1780FD7
:1020A00000D050B9204609F046FA044AD2F8C430AC
:1020B00023EA00030020C2F8C43010BDC02C012068
:1020C00008220021014809F08BBC00BF7B2D0120B4
:1020D00070B50B4B0B4CA34201D3002070BD002206
:1020E000196A1E7F0439D5B2AE4201D82433F2E713
:1020F000013211F832508542F5D10120EEE700BFE0
:1021000084240020A824002008B509480378C3F3DC
:1021100041130A3350F823303BB100F1080200F1BB
:1021200010019847C043C00F08BD1846FCE700BF28
:10213000C02C012004282DE9F14F04460F46DFF89A
:10214000949016D001282DD1DFF88C8098F8B93002
:1021500043B300F00BFE214D4D4520D24FF0000A55
:10216000D5F820B02B7F5FFA8AF6B34204D8243525
:10217000F2E7FFF7A5FFE7E70BEBC606307909F0BA
:102180007EFC0246307909F0D6F9D8F8C430002A2E
:1021900023EA0003C8F8C4300AF1010AE2DA002396
:1021A00088F8B9300D4D4D4508D30B4B1B6A6BB108
:1021B0003946204601B0BDE8F04F1847EB681BB127
:1021C0003A462146284698472435ECE701B0BDE859
:1021D000F08F00BFA8240020C02C01208424002000
:1021E00073B5C4B263060D468DF8074007D020468C
:1021F000FFF76EFF78B10D4B93F8BA0058B1204647
:102200000A4E55B102F012FEF3691BB108200DF120
:1022100007019847012002B070BD02F02FFEF3695C
:10222000002BF7D009200DF10701F2E7C02C0120A7
:1022300073B586781E4C8DF800600379427943EAC5
:102240000223ADF80230C378304603F003038DF863
:10225000043009F070F9D4F8C430054618420BD0A8
:10226000304600F065FD3046FFF714FF0BF0B8FF75
:1022700010B9962007F09EFE684602F0B3FD10F1FB
:10228000780F03D010B1002002B070BD9DF800009F
:1022900002F030FE10F1780F01D00028F3D10120B8
:1022A000D4F8C43084F8B9002B43C4F8C430EBE749
:1022B000C02C01202DE9F047924D0446AB690E4633
:1022C0001746C3B9207800F01F00012876D00228F5
:1022D00000F0DC8000BB94F900103A6800296378B4
:1022E0002EDA062B0CD0082B25D0ABB95370012366
:1022F0001370022303E198470028E3D100200DE08A
:102300006388190A0A1F012A8C4605D9072903D8B0
:10231000DAB26B6A1C781CB96FF01500BDE8F08763
:102320005D78654503D1824200F0E48001302344AA
:10233000F0E71B78E3E095F8BA3013700123DEE094
:10234000052B11D0092BE7D163886E6A002B32D19F
:10235000FFF7B6FE638885F8BA30EB69002BCDD065
:10236000032069499847C9E7A07802F029FD0028B1
:10237000C4D0D1E77378042B10D0052B11D0022BD9
:1023800004D177796388BB4208BF012033781E44AB
:102390003378002BEED10028BED0D9E796F8038021
:1023A000F4E76388BB42F1D1B8F1000FEED13046BB
:1023B000FFF73EFFEAE7FF27B846E9E795F8BA30AE
:1023C000D7F800C0002BA7D06F6AA2883B4694F8CC
:1023D00004E0187800289FD05978022904D193F896
:1023E0000480F04500F292800344F2E78CF800305C
:1023F0008CF80130316081E71F4493E00B2B8BD1C7
:1024000000264FF0FF08B246C14606E07B78042B59
:102410000FD0052B21D03B781F443B78002BF5D102
:10242000EB6913B1514607209847002E7FF466AF41
:1024300072E797F80280A38897F803909845EAD14D
:1024400063889945E7D1B8F1070F1CD805EB08035D
:10245000BA46012683F8BB90DDE7A3884345DAD16D
:10246000A3784B450AD0BE78304600F061FC304678
:10247000FFF710FEB0FA80F67609CCE73846FFF792
:10248000D7FE0646C7E7BA460026C4E794F90020FF
:102490006378002A18DA002B7FF43EAF24793F6876
:1024A00063060AD02046FFF713FE00283FF434AF3E
:1024B00095F8BA30002B3FF42FAF3946204602F092
:1024C000FDFC00237B7014E7012B08D0032B7FF465
:1024D00023AF6388002B7FF41FAF012103E06188E5
:1024E00000297FF419AFA088FFF77AFE00287FF457
:1024F00005AF11E702293B607FF41BAF5B883360B7
:10250000FCE600BFC02C01207A2D012094F90000C8
:1025100063780028BFF672AF002B3FF467AF0A2B39
:102520007FF4FAAE3B78002B3FF4F6AE79780429BD
:102530007FF462AFB9788A427FF45EAF072A8EBF1C
:102540000023521992F8BB308CF80030F6E600BF39
:1025500070B5164D95F8B830FBB102F011FC0028AB
:1025600022DB00F003FC0024D5F8C430E6B2E340DF
:10257000DA0714D4D5F8C43004F11002D340DB07D5
:1025800005D546F08000FFF785FD00280CDB0134FF
:10259000102CE9D1002385F8B830002004E0304643
:1025A000FFF778FD0028E5DA70BD00BFC02C0120E0
:1025B00013B5164C237DF3B9E26801AB8020A16806
:1025C000019208F0C7FF019AA3681344A360E3686F
:1025D0009B1AE3606BB962B12369E2889A4208DD15
:1025E00094F8C82093FBF2F102FB11330BB90123DD
:1025F000237502B010BD002380201A4619462375AA
:1026000002B0BDE8104002F09FBC00BFC02C01200A
:10261000002330B585B002460D460193002858D1FD
:10262000002935D108220B460DEB020109F040FAD2
:10263000002804DA802002F0F9FB05B030BD2A4CF6
:10264000029AC4E903552260039ABDF80E30626015
:1026500004F13802A2609DF908202575002A0ADBE2
:10266000802B04D9802002F0E1FB0020E3E713B1C6
:10267000C4E90333E1E7FFF747FD0028DAD0E28839
:1026800023699A42D4BFE260E360FFF791FFD4E789
:10269000154C01ABD4E90215002D04DC09F008FA51
:1026A0000028CADAC6E72A4609F002FA0028D9DB70
:1026B000019AA3681344A360E3689B1AE360002BAC
:1026C000BBD104F13803A360FFF71EFD0028DCD165
:1026D000B0E78028B1D1044BDA68002AD5D11B7D40
:1026E000002BD2D1A9E700BFC02C0120054B064A20
:1026F00058629A62054A0020DA62054A1A63054A5E
:102700009A617047C02C0120B5220000B91F00005B
:1027100059200000F91F00002DE9F3410446474D00
:102720004FF0FF334FF0FF32454806F001FF95F8B8
:10273000B830002B7BD16B6A83B142482C62E861D0
:102740006E6A02F01BFD02F0E9FA041E10DA3C4842
:1027500006F066FF204602B0BDE8F08100F0BEF84A
:10276000FFF7C4FF6B6A002BE7D14FF0FF34EEE7B1
:1027700000F01EFB041EEADB7378012B5AD1F379BB
:10278000002B57D00026684685F8C830ADF80230D7
:102790008DF804608DF8006002F024FB041ED6DB87
:1027A000802768468DF8007002F01CFB041ECEDB0B
:1027B0003046254902F0CEFC041EC8DB38462249CB
:1027C00002F0C8FC041EC2DB204CDFF884804445C4
:1027D0001AD3002002F08EFB041EB8DBD5F8C430FB
:1027E000802043F00103C5F8C43002F083FB041ECF
:1027F000ADDBD5F8C430002443F48033C5F8C430D1
:10280000012385F8B830A2E70026276A227FF3B2B9
:102810009A4201D82434DAE707EBC30257F83310A1
:10282000107902F097FC01360028EFD09DE76FF099
:1028300077048CE76FF0150489E700BFC02C0120F6
:102840006C23002035210000112600008424002084
:10285000A824002030B51F4B8BB005AA03F110054A
:10286000144618685968083303C4AB422246F7D1AE
:102870001B7810222370002101A809F0B1F8122260
:102880000021154809F0ACF8102101A809F010FB4F
:1028900000281BDD0828B8BF082001AB09381A182A
:1028A00000200D4912F8013F0AAC04EB131403F0A9
:1028B0000F0328336B4414F8144C13F8143C013004
:1028C00008280C704B7001F10201EBD102480BB0EB
:1028D00030BD00BFEFF10000C55F01202DE9F04FD2
:1028E000734B87B093F800B0BBF1000F03D0714871
:1028F00007B0BDE8F08F6F4C00264FF0011AB046CC
:102900003546B14623783BB96B4B02349C42F3D138
:102910000123674A1370EAE76378052B1BD8DFE8C9
:1029200003F08C03C48C1D39402304A88DF810B02B
:10293000ADF812308DF814B009F08CF840B10823CE
:1029400004A8ADF8123009F085F808B1ADF812B05E
:10295000BDF81230E37123781C44D3E7E378002BF1
:10296000F9D1A37863B108F101085FFA88F8F2E7BA
:102970006A68944207D024359D42F9D30020B7E716
:102980004E4D4F4BF8E7AB68002BECD0414620464C
:102990009847E8E7002DF1D000222B7F9A42EDD234
:1029A000296AA07801EBC2010B79984201D001326B
:1029B000F3E70127E078FBB200F003008DF8140084
:1029C000207994F805C040EA0C20ADF8120094F983
:1029D0000200002826DA4FF0010C07F110000CFA73
:1029E00000F010EA0A0F24D143F080008DF81000A7
:1029F00004A8CDE90213019209F02CF8DDE90121C8
:102A0000039BB0B99DF8102012F0800FA2700A71DC
:102A10004FF001021DBF1033DBB29A40BA404AEAC0
:102A2000020A98E70120B84010EA0A0F01D11846BF
:102A3000DCE70137102FBDD1B9E7032E1DD1FFF719
:102A400009FF074668B108F092FF019048B11D48A0
:102A500008F08DFF019A824203D13946A01C08F08C
:102A6000B4FF6FF002012378091BE21804EB530353
:102A7000D14213D50136F6B26DE7002EF1D1B9F18E
:102A8000000F3FF47BAFA4EB090389F80230C3F3D6
:102A9000072389F8033089F80480EBE702F801BCCA
:102AA00013F8010902F8020DE2E7A14653E700BF5F
:102AB000C45F0120A0230020812400208424002062
:102AC000A8240020EFF10000094B00211A4610B5A0
:102AD0001C78844204D15C6814B102EB811010BDF3
:102AE0000131042903F14003F2D10020F7E700BFD0
:102AF0008C2D01202DE9F34150F8283C0446103379
:102B000010F82C6C0AD1036950F8202C980736D5A0
:102B1000D2B9590715D5002344F8283C54F8283C6D
:102B200010330BD054E9077554F8148C0BF058FB94
:102B300000284FD021462E480BF036FB02B0BDE8EE
:102B4000F08143F004032361304654F8241C01ABA8
:102B500008F000FD10B16FF01503DDE7019A54F89D
:102B6000243C134444F8243C54F8203C9B1A44F879
:102B7000203C54F81C3C134444F81C3CCEE730463F
:102B800054F8241C01AB02F05BFA0028E3D1019D4C
:102B900054F8243C2B4444F8243C54F8203C5B1B60
:102BA00044F8203C54F81C3C2B4444F81C3C002DB9
:102BB000B1D0304602F0E8FAB5FBF0F303FB105554
:102BC000002DA8D154F8203C002BA4D0304602F0B0
:102BD0007FFAA3E744F8180CA4F1100006F08EFD6C
:102BE000002DABD0424639463046A847A6E700BF85
:102BF000A82400204B1E012B73B506460D460FD8A6
:102C0000FFF762FF044668B9012D09D101AB01222B
:102C100030460DF1030102F013FA019B002BF5D1B0
:102C200002B070BD0BF0DCFA04F12C0108B1012DEB
:102C300005D1084602B0BDE87040FFF75BBF03480E
:102C400002B0BDE870400BF0AFBA00BFA82400206E
:102C50002DE9F74F064615469846019108F0C0FC4D
:102C6000044600285BD1EFF3118A202383F31288F6
:102C7000BFF36F8FDFF8ACB000220023584606F098
:102C800061FD70B9DFF8A090A70109EB84146368B7
:102C900013F1100F14D10193584606F02FFD019B3C
:102CA00006E00134042C0BF1400BE5D16FF00B036F
:102CB0008AF31188BFF36F8F184603B0BDE8F08F19
:102CC000019B2061C4E902350C9B304663610D9B7A
:102CD00009F80760A3616FF00F03C4F83C806360DC
:102CE00002F052FA58B1304602F04EFAB5FBF0F35A
:102CF00003FB10551DB1E36B43F00403E36318F0CD
:102D0000020F07D007F12C01084849440BF04CFA98
:102D10000023CDE7304602F0DBF90346C8E76FF049
:102D20000F03C9E7A82D01208C2D0120A824002025
:102D300010B5EFF31184202383F31288BFF36F8F54
:102D4000FFF7C2FE50B14368103307D16FF08B0319
:102D500000F12C01436004480BF026FA84F311883B
:102D6000BFF36F8F10BD00BFA8240020F8B5042565
:102D700020270D4CEFF3118687F31288BFF36F8F76
:102D80006368103307D16FF08B030848636004F168
:102D90002C010BF009FA86F31188BFF36F8F013D08
:102DA00004F14004E6D1F8BD8C2D0120A8240020B8
:102DB00070B50025094C0A4E314620460BF0D8F973
:102DC0000122A4F11000114601350BF095F9042DF4
:102DD00004F14004F0D1002070BD00BFB82D0120E7
:102DE000F52A000070B504460E46017912481546D2
:102DF00008F0D3FBE8B194F900206378002A11DBD6
:102E0000202B04D0222B09D06FF0850005E007228B
:102E10002968103808F0D9FD002070BD638800F8DB
:102E2000093CF9E7212BEFD10723103828603360E4
:102E3000F2E76FF01200F0E78C2E0120014608B592
:102E4000034808F0B7FB10B1012300F8073C08BDA8
:102E50008C2E01200123016981F84B300B6833B1BE
:102E600091F849301BB1024808310BF09DB9704709
:102E7000A82400200123016981F84A300B6833B18E
:102E800091F848301BB1024808310BF08DB97047FA
:102E9000A8240020012370B582F8483013680D463D
:102EA00014463BB192F84A3023B10E4802F10801B2
:102EB0000BF07AF9D4F890309A681B699A4205D1E0
:102EC0007DB904F1180140F6CD4204E004F1180187
:102ED000002DF8D00022BDE870400023014806F024
:102EE0008BBD70BDA824002038B5056995F89E00FB
:102EF00088B195F89F307BB985F84830D5F89000B7
:102F000008F039FA044600220023044805F11801AC
:102F100006F072FD204638BD0020FCE7A824002002
:102F2000002103460C4AA0F84810106883F89C1052
:102F3000C3F8940090889279A3F8980083F89A20B7
:102F400083F89B104022A3F89E1083F8A01003F191
:102F50004C0008F045BD00BF08EA0000F0B5D0F80D
:102F60008C3004465B6885B01B6A1F7D384608F0CC
:102F700037FB0646F8B994F88630E3B14FF4806227
:102F8000A06F03A908F016FA0546A0B18306A4F1C4
:102F9000180384F830600193084B08BF00F1FF3537
:102FA000039900932A4602233846FFF751FE29462B
:102FB000A06F08F01BFA05B0F0BD00BF952E000011
:102FC000002310B50469C4F8A8300C4BC4F8A40061
:102FD000596804F1A80269B9C3E9002204F10800A4
:102FE00007490BF0C5F804F1180006490BF0ECF89E
:102FF000002010BD0A605A60F0E700BF8C2E01204F
:103000000BB600005D2F000030B54FF4003342686E
:10301000056942F2A10085B0CDE90103002385F8DE
:103020009D30106AADF80C100A22007901A908F051
:1030300091FA054C95F89D3023B901200AF04AFF1A
:10304000013CF7D105B030BDA1860100002313B5C6
:1030500004698DF8071084F848300122D4F89000F4
:103060000DF1070108F087F910B90BF0B9F840B17C
:103070002122002304F11801064806F0BDFC02B02D
:1030800010BD94F8A130002BF2D00021212006F0D1
:1030900073FFE2E7A824002037B514460A1E054650
:1030A00020DDD4F88C0004F14C0108F064F9012310
:1030B00084F8493023683BB194F84B3023B1114870
:1030C00004F108010BF070F8D4F88C104B684A69D1
:1030D0009A1ACB699B1A3F2B04D8012384F8A0309D
:1030E00003B030BD94F89E30002BF9D0064B40223F
:1030F000009328460123019404F14C01FFF7A8FD39
:10310000EEE700BFA824002099300000F7B50D4677
:1031100001461D4808F036FA044610B3064656F834
:10312000A439691E5F6805291BD8DFE801F01C1A65
:10313000031C222610F8061C99B9012300F8063C4E
:103140003B6A3246187BFFF7A7FF14F85C2C42B9A4
:103150003B6A1146187D0D4B019600930223FFF741
:1031600077FD03B0F0BD304603B0BDE8F040FFF797
:10317000D7BE012304F8053CF3E710F8053C002B0B
:10318000EFD00023F6E700BF8C2E0120952E000023
:1031900037B50024084D4FF0FF334FF480622846C6
:1031A0000649009406F0EAFB054928460BF01EF894
:1031B000204603B030BD00BFA824002030690520A0
:1031C0000DF2000008B5054807F05BFF044807F062
:1031D00058FFBDE80840034807F053BF16F200004F
:1031E00047F200007AF20000014807F0B7B900BFCB
:1031F000A8EB000038B5044618B90F4B0F485B68C0
:1032000098476168B1F5683F10D0B1F5680F0DD0EF
:103210000B4DA9420AD011F46861206807D001461D
:1032200008480AF0B2FE00232360656038BD14220E
:1032300008F0D6FBF9E700BF18220020A8F2000032
:103240002C5F5CA99433012008B560B34368B3F5E3
:10325000683F0ED0B3F5680F18D0144A934220D0BF
:1032600000684FF0FF324FF0FF3306F061F958B1BC
:1032700015E001220368D3E8EF1F002903D1C3E85A
:10328000E02F0028F7D10AD1002008BD0368084AC2
:103290001B7803F5807352F82330002BF4D00548D7
:1032A000F3E70548F1E76FF4E040EEE72C5F5CA937
:1032B00000000350E98FFFFFEA8FFFFF08B520B33E
:1032C0004368B3F5683F09D0B3F5680F13D0114ACE
:1032D00093421DD0006806F0A3F914E000220368B1
:1032E000D3E8EF1F012903D1C3E8E02F0028F7D16D
:1032F00009D0094808BD00210368084A1B7803F576
:10330000807342F823100020F4E76FF4E040F1E707
:103310000348EFE72C5F5CA9E98FFFFF0000035033
:10332000EA8FFFFF10B5044618B91D4B1D485B68B6
:1033300098476368B3F5683F2FD0B3F5680F2CD07A
:10334000194A934219D1236803BB4FF0FF324FF063
:10335000FF332146154806F0BDF808B923681BB9AC
:103360000F4B13485B68984714220021206808F02F
:1033700037FB4FF46863636008E0B3F5683F0DD82E
:103380003A2B03D040F6BA629342DED120680AF0AD
:1033900034FE636843F03A03636010BD054AF3E707
:1033A00018220020A8F200002C5F5CA994330120B1
:1033B000CEF200003A00003A08B506494023142234
:1033C00005480AF0D4FDBDE808400449044807F068
:1033D00037B900BF942E012094330120B0EB0000D8
:1033E000C4EB0000F7B5224E30688368DB6B03B195
:1033F000984730688368DB6A002B31D11D4C1E4D25
:10340000306883681B69002B2DD001220DF1070164
:103410009847012827D1236843B92B681BB36968F3
:103420001A688B422A6008BF6A602360134A9DF8BD
:10343000070011887F2904D823684F1C0B4417808C
:1034400018720A28DCD1002023681188186059609E
:103450000B494D684DB9C1E9003310802060CEE7BB
:1034600098470028CAD103B0F0BD2B604B60F4E749
:1034700008380120B0330120C0330120C0460120AC
:10348000B833012010B5044B044618688368E1B2D4
:103490005B689847204610BD08380120F8B50546FE
:1034A00016460846EFF31187202383F31288BFF3F3
:1034B0006F8F1B490B684BB11A4C62689A4205D05A
:1034C00000221A60626862B9C4E90033164A1368C0
:1034D00053B987F31188BFF36F8F18460B603360C1
:1034E000F8BD13606360F1E7D2F804C01C6863455F
:1034F000146008BF546087F31188BFF36F8F5C6856
:103500000B60A042D8BF00F1FF3403F1080122464E
:10351000284608F05AFA0023601C2B550123DEE7E9
:10352000B4330120C0330120B8330120002337B564
:103530001C462349234AC1E90033C2E90033224A29
:103540004868146088B9C1E900220133082B02F1F0
:103550008802F5D11D4D1E4828600AF0C0FC38B91C
:103560004FF0FF34204603B030BD02604A60ECE704
:103570000020FFF7D1F804460028F1D128688368BD
:1035800023B11B6C13B122461249984728688368FF
:10359000DB6A0BB1984748B1286883681B69002B28
:1035A000FAD001220DF107019847F4E700220A4BF7
:1035B00028681A8083681B6A002BD3D09847D1E70C
:1035C000C0330120B8330120C8330120083801205E
:1035D00024E70000E5330000C046012041F2044327
:1035E0002DE9F043ADF54F7DADF8083040F60613F8
:1035F0000025ADF80C30DFF81091444BD9F80010DD
:103600001B68434E4D70A3EB06080B7828465A1CE6
:1036100062F302030B7098FA98F34B808B880822B0
:103620005BBA8B8007F070FA31464246ADF8100065
:1036300007F06AFA02271FFA88F440BA04F10A0375
:103640005BBA0222ADF810000DF1120106A8ADF828
:10365000123008F0BAF90822D9F800100DF11A005A
:10366000ADF8127008F0B1F9BDF8120006AB0830E1
:1036700080B231464246ADF81200184408F0A5F970
:10368000BDF812303A461C44A0B22C4606ABADF849
:10369000120004A9184408F098F9BDF8123040F25D
:1036A000C9113B449BB2ADF81230009305AA06AB9A
:1036B0005BA8FEF7FDF9059B164E174FADF81230CB
:1036C000BDF81230A34203DC0DF54F7DBDE8F08359
:1036D000336802215B68A4B903A89847BDF812506B
:1036E00033682D1B7C2DA8BF7C255BAA10192946A9
:1036F0005B6898473368012138465B682C449847DB
:10370000DEE702A8E9E700BF6C3801202438012079
:10371000D75F01207038012078F200002DE9F04FCA
:103720004FF0FF34D5B00B46059406940794012161
:1037300000240246CDE90144009130A80421CDE9DE
:1037400008440AF0C8F82146402220A808F048F9A9
:10375000904B03211C93052304221D938E4B0DF1E6
:10376000180ACDE91E3A8D4B8D4821938D4B05AE3D
:1037700023938D4B07AD26938C4BCDE92B01CDE9DF
:103780002835CDE92D360AAC279109AB1CA930A804
:103790002292249408F044F820B303240A21844898
:1037A0000AF084FB8349022281480AF072FB214619
:1037B0007F480AF04BFB4CB9794903227C480AF058
:1037C00068FB7D4B7A4819680AF04AFB0A21784861
:1037D0000AF074FBFFF702FF089807F03DFE55B0B2
:1037E000BDE8F08F3368D4E900875A1CD5D0B8F112
:1037F000000FD2D0DFF8C4913BB9DAF80020B2F163
:10380000FF3F18BF1346C9F80030D9F80000FCF795
:10381000BFFE08A9C0B2FEF777FB04460028BCD162
:103820003368654E002B4BD1DDF820A03060504648
:10383000DAF808B007F0A3F8614A0146504606F0EE
:10384000D8FF08B10124A9E72B685B45A5D85D4ADC
:1038500014605D4A136032685A4D3A4429680898EA
:10386000013A07F0BEFF0028286096DB089807F0B1
:1038700032FEB7FBF0F303FB1070DFF84CA13368A6
:10388000C5B27D1B1F44DAF800309F4238BF0020CC
:103890005FFA80FB089807F01EFE012806D90898F9
:1038A00007F019FE013818EA000F52D12B464246A4
:1038B0003168089807F0E6FD00287FF46EAF2CE031
:1038C000326893427FF46AAF3F4A3B4412689342A6
:1038D000C1D962E7AF42089888BFEFB207F002FE95
:1038E000402201460CA808F07BF83A4641460CA855
:1038F00008F06BF83B46316808980CAA07F0C2FD47
:1039000008B104464AE73368B8443B443360ED1BD2
:10391000089807F0E0FDA842DCD9BBF1000F1AD1EE
:103920003368DAF800205B442B44934233607FF421
:1039300035AF234B08981A68114607F052FF00284C
:1039400080DBDAF800200899D9F8000008F083FC41
:10395000D7E74027DCE7089807F0C4FD08220146B6
:103960000CA808F03DF85A4608EB05010CA808F031
:103970002CF8089F3168384605EB010807F0ABFDCD
:10398000414603460CAA384607F07CFD00287FF428
:1039900004AFC5E7FBF2000081DB000001F300008B
:1039A0000AF300008BDB000006F3000087DB000059
:1039B00024380120DBEF00001C38012020380120D2
:1039C00014380120103801200C38012038B5054684
:1039D0000A4C0A2120460AF069FA022220460849C8
:1039E0000AF057FA294620460AF030FA20460A2102
:1039F0000AF064FABDE83840FFF7F0BD2438012032
:103A0000DBEF0000F0B50C68164F85B002380D46AC
:103A1000C4F580610090144B381903AA0131FEF7F8
:103A2000C5F80446D0B92B68039A1344022B2B60C7
:103A300011D93E88023B76BAB6B29E420BD13246CD
:103A4000B91C07F061F830B9022E04D92B689A1E10
:103A50002A60FC540124204605B0F0BD4FF0FF342D
:103A6000F9E700BF2061012023650120002307B58D
:103A700002210093044A4FF4A47304480AF020FA88
:103A800003B05DF804FB00BFD75F0120243801209C
:103A90002DE9F04707290446B0B040F20D810378C4
:103AA00013F0050F40F008814388A1F108055BBAC7
:103AB0009BB2AB42C0F00081984B00F10807186040
:103AC00083885BBA8380FFF7D1FFA688012E40F080
:103AD000FD80E37943B1012B00F0F180082030B084
:103AE000BDE8F047FFF772BF247814F00704F5D162
:103AF00031468B480AF0DAF906228A4988480AF0EA
:103B0000C8F9052186480AF0CDF9DFF81C82DFF8F4
:103B10001C920026864F00E0012631462046D8F848
:103B20000050FCF723FD08A9C0B2FEF7EDF982466C
:103B300000283AD13146204610AA08F049FB012856
:103B400005D120235146089810AA07F086FC109B47
:103B50004B4522D1FCF7C8FF31468246204603F090
:103B6000F5FA05465046FCF7CFFF724B1B689D42A5
:103B700013D1FCF7B9FF40230021019320AB82460B
:103B8000CDE9031108460291009310AA089BFCF7A7
:103B90007BFD05465046FCF7B7FF3B68DDF820A0EB
:103BA000AB4208D0504607F057FC002EB4D0002C92
:103BB00078D13446ADE700235246009310A94FF662
:103BC000FF730AA806F02EFE002850D04FF0FF35F4
:103BD000089807F041FC142151480AF067F90522C2
:103BE00055494F480AF055F921464D480AF038F931
:103BF000524904224A480AF04CF9314648480AF032
:103C00002FF94DB904224E4945480AF042F92022C5
:103C1000434818A90AF034F907224A4940480AF0F3
:103C200038F9BDF85630402101939DF85530464A89
:103C3000009320A89DF8543000F0F2FB169B4BB186
:103C4000421E3E2A06D820ADC0F140013F4A28441A
:103C500000F0E6FB20A807F08AFE20A902463048C3
:103C60000AF017F914212E480AF028F99DE70DF102
:103C70001E0307AA09A90AA806F022FE0028A5D15A
:103C8000BDF81E30102BF2D1BDF81C30202B9DD179
:103C90005046099918AA07F0E0FB051E18BF012538
:103CA0006D4295E705211E480AF004F901211C48E0
:103CB0000AF004F9FFF792FC30B0BDE8F08729461E
:103CC000384630B0BDE8F047FFF728BDCEB9E379FC
:103CD000012B09D0052B7FF401AF304608F0C2FA62
:103CE000012803D10A20FAE63046F8E63046FFF70D
:103CF0006DFE4FF40050002106F03EF90120FDF763
:103D0000C1FE2A4639462046054BFCF753FC0028E5
:103D1000D2D130B0BDE8F047FFF760BC6C3801206D
:103D2000243801200EF30000B82000203DB8F3969F
:103D3000BC200020B0200020FBF2000015F30000A2
:103D40001AF300001FF3000027F3000033F3000014
:103D500001232DE9F34100250646DFF8C080304CF1
:103D600088F800302F4B304F0095186098F80030DD
:103D700013B902B0BDE8F0812C4BC5F58061C3F8E2
:103D80000046C3F80446C3F80846C3F80C46C3F817
:103D90001046C3F81446C3F81846C3F81C4603F58A
:103DA0008053C3F80046C3F80446C3F80846C3F876
:103DB0000C46C3F81046C3F81446C3F81846C3F8B7
:103DC0001C46336801AA0131781998470028019BE5
:103DD00001DC002BCAD005442BB940F201439D42BF
:103DE000C4D10025C2E73B78062B09D17B78092B8B
:103DF0000BD1002300936946A81EFFF703FE04E0E1
:103E0000042B02D17B78142BF5D00128E9D100993D
:103E100007480239FFF73CFEE3E700BF1F610120BE
:103E20003546526E70380120216501200080015016
:103E30002261012030BFFFF7FDBF00BF074A936832
:103E400093F90E10002907DB526993421FBF044A01
:103E5000536843F080535360704700BFBC44012057
:103E600000ED00E0154B9A6A12F0007F9A6A14BFC9
:103E70001E201D2012F0807F9A6A18BF1F2012F4A6
:103E8000801F9A6A18BF022012F4002F9A6A18BF86
:103E9000212012F4802F9A6A18BF222012F4003FCA
:103EA0009A6A18BF232012F4803F9A6A18BF242010
:103EB0006FEA02426FEA12429A62704700ED00E038
:103EC00010B5194B0246986A9C6A10F4805F14BFC3
:103ED0001720162014F4006F9C6A18BF1820A40540
:103EE00009D5986B986A000404D51AB19A6A22F42D
:103EF00000429A6219200C4B9A6A12F4806F9A6AF7
:103F000018BF1A20D2050CD49B6A13F4005F18BFA7
:103F10001C20054A936A43F47F43936200230B708D
:103F200010BD1B20F5E700BF00ED00E010B51C4BF5
:103F30000246986A9C6A10F0100F14BF11201020DE
:103F400014F0080F9C6A18BF1220A40709D5586BFB
:103F5000986A000604D51AB19A6A22F080029A6221
:103F600013200F4B9A6A12F0010F9A6A18BF14209F
:103F700012F0200F9A6A18BF1520D40658BF9B6A0A
:103F8000074B9A6A920642BF5A6A22F400525A625A
:103F90009A6A42F0FF029A6200230B7010BD00BFC4
:103FA00000ED00E070B5444B06465B6800258AB022
:103FB000C3F3080385F31188BFF36F8F02F07F40CE
:103FC000B0F17F4F11D102F00C0008280DD010077E
:103FD0004CBF0E4601250022033B8DF80720032B22
:103FE00005D8DFE803F01E5C60592E46F3E7002495
:103FF0009DF807309BB92022314602A807F0E5FC66
:10400000099B002D53D0C3F3080222B96FEA532352
:104010006FEA43230993204602A907F053FC0AB034
:1040200070BD254BDA6A9107E1D4DA6A002ADEDB3B
:10403000DA6A5200DBD55A69B16942F480725A617A
:10404000BFF34F8FBFF36F8F5A6931F8021C22F410
:1040500080725A61BFF34F8FBFF36F8F4DF60272BC
:10406000914209D09A6AD2B242B101200DF1070102
:10407000FFF75CFF0446BBE73468B9E79A6A12F4BD
:104080007F4F05D001200DF10701FFF719FFF1E780
:104090009B6AB3F5803FAAD3FFF7E4FEEAE700206E
:1040A0000DF10701E4E700200DF10701EDE723F42E
:1040B000FF7323F00103ADE700ED00E0044B5A6904
:1040C00042F010025A615A6942F480625A617047A4
:1040D00000ED00E0EFF30880EFF3098101B57246CF
:1040E000FFF760FF01BD00BF002080F31488BFF31D
:1040F0006F8F002080F30A8880F30B8803F032FF73
:1041000000200E490860BFF34F8F0D4880F30888E8
:1041100000F02CF8202080F311880A484FF4006149
:10412000401880F30988EFF314800221084380F3DC
:104130001488BFF36F8F00F0F9F8000094ED00E0F1
:1041400070A2052030710520BFF34F8F0549064B43
:10415000CA6802F4E0621343CB60BFF34F8F00BF25
:10416000FDE700BF00ED00E00400FA0572B6002391
:1041700083F313884FF0FF300C4A03F12001013321
:10418000102B42F82100F8D100234FF0FF30074AEE
:1041900003F160010133102B42F82100F8D162B61F
:1041A000BFF34F8FBFF36F8F704700BF00E100E098
:1041B000084B9B6883420BD1EFF3058343B1064B59
:1041C0005A6842F080525A605A6A22F400425A6297
:1041D0000AF002B9BC44012000ED00E06FF00A01D2
:1041E000084A93685967084918674B6843F0805339
:1041F0004B60002383F31188BFF36F8F9368586F70
:10420000704700BFBC44012000ED00E0EFF31183D4
:10421000202383F31288BFF36F8F4FF00061064AAB
:1042200053699360054A516000211A6F196782F340
:104230001188BFF36F8F7047BC44012000ED00E090
:104240000E498A684FF030001044EFF3098C80E883
:10425000F01F74467046FFF7D9FFA64607498A68E3
:1042600002F1300090E8F01F8CF3098802F10000A1
:1042700004B507F03CFBBDE804407047BC44012096
:104280001EF0040F0CBFEFF30880EFF30980816983
:1042900011F8021C0229FFD001B507F019FB01BD7E
:1042A00040B2002807DB01234109034A00F01F0048
:1042B000834042F82130704700E100E040B200281E
:1042C0000CDB01220649430900F01F008240203325
:1042D00041F82320BFF34F8FBFF36F8F704700BFAC
:1042E00000E100E0054B420953F82220012300F0D1
:1042F0001F0003FA00F01040704700BF00E100E02B
:1043000040B2002801F10101ACBF00F16040064B52
:104310004FEA4111C9B2ABBF00F5614000F00F0098
:1043200080F800131954704714ED00E00B4A08B5EB
:104330000B4B22F07F029A60BFF34F8FBFF36F8F5A
:10434000D3F8882022F47002C3F8882005F006F81C
:1043500005F066FE00F046F805F040F800000000A9
:1043600000ED00E042F8203C009B0B4942F81C3C69
:10437000019B21F0010142F8183C029B42F8081C05
:1043800042F8143C4FF0807342F8043C0023203A7A
:1043900002650367704700BF9DB000000B4B0E46DF
:1043A00098601546036E83F30B882C4686F30988C4
:1043B0004FF00000064B984720464FF000014FF0A9
:1043C00000024FF00003034C204700BFBC44012013
:1043D000F7B800009DB000001022014B1A61704731
:1043E00000ED00E0002320210348C2180133452BD3
:1043F00082F80013F9D1704700E100E008B5EFF34F
:104400000583064A103B02EBC30152F833004968AA
:104410008847BDE80840FFF711BD00BF9CE70000DA
:104420000CB410B586B009B90DF10B000024CDE92C
:10443000040109AB089A009404A905480393FDF709
:10444000FFF8049B1C7006B0BDE8104002B0704736
:10445000F3B9000007B50DF1070009F068F8114B3A
:1044600098421CD14FF480620F4B1049C3F8B82515
:104470004FF40062C3F83C259DF8070009F052F89C
:104480000B499DF8070009F048F801209DF8073016
:10449000984003F085FE002003B05DF804FB6FF048
:1044A0000B00F9E70000AD0B00A002502CA0025059
:1044B00028A10250054B03EB8000D0F8003223F016
:1044C000E04343F04053C0F8003270470025845069
:1044D000012208B50A4B0B49C3F80025022300202E
:1044E000C1F8D036FFF7E6FF1046FFF7E3FFC1F84B
:1044F0000427C1F80429C1F8002B002008BD00BF23
:104500000010005000400050052370B5144D154EAA
:104510002C780134B4FBF3F303EB8303E41A07F0C4
:1045200053FE114A137823B156F82430C01A0728D5
:1045300014D94FF05023D3F8141141B10021C3F81E
:104540001411D3F814312C700CB9012313702C788A
:1045500007F03AFE46F82400012070BD0020FCE779
:1045600023690120743801202269012048B1054BDC
:10457000054A1B68B3FBF2F35843044B43F00103B5
:10458000184770478421002040420F0010EA0000C5
:104590000149024806F0F6BDD4EB0000883801203E
:1045A0004FF47F032DE9F041D3F830210646072A66
:1045B0000D46D3F8343120D1023B032B02D8124AE6
:1045C000D35CD3B14FF050244FF0010800270520F1
:1045D000C4F81886C4F8147608F09DFF4046C4F865
:1045E000148608F098FFC4F81476C4F8187630469C
:1045F0002B46BDE8F041002118474FF05023002220
:10460000C3F81426F3E700BF37F300000146014862
:1046100009F067BD902300200149024809F0C4BD9C
:10462000CC38012040250020020600F07F0312D57F
:10463000082B05D1010700F00F0306D50E4870477F
:1046400010F0780F12D100F00F034C2000EB431054
:104650000A4B18447047082B05D1020700F00F03DE
:1046600006D50748704710F0780FF6D00020704745
:10467000044800EB43107047F0390120A4380120B2
:10468000103B0120103A012000220023014805F0D0
:1046900003B800BF9023002013B50022012137206A
:1046A000FFF72EFE3720FFF7FBFD124800F018FE43
:1046B000114B98421AD10024104804F017F9104801
:1046C00004F04EFD4FF0FF334FF480620D490E4869
:1046D000009405F053F90D490B4809F087FD0C488B
:1046E0000C4909F045FD204602B010BD6FF00400F2
:1046F000FAE700BF254900000000AD0B46F30000BB
:10470000E0EB0000306D0520402500203BF3000069
:10471000CC380120414A0000002310B50B49D1E8F4
:10472000EF2F012A03D1C1E8E03F0028F7D10CD1D7
:1047300051F8044C1439204606F0B2FD783004D10B
:104740002046BDE8104006F087BD10BDC4380120EA
:1047500038B5002464F07F00C0B2FFF765FF013474
:1047600007F05EF9082CF5D100240E4DE0B2FFF7FA
:104770005BFF036903B90561013407F051F9082CA7
:1047800005F14005F2D1084807F04AF9074BD3F884
:104790007C2212B9064AC3F87C22064807F040F989
:1047A000002038BD343F0120F0390120A438012019
:1047B000343B0120103B012010B5054CFFF764FF8E
:1047C00020B14168204609F0E0FBF7E710BD00BFCB
:1047D0000023002007B5002300220E4801A904F0A1
:1047E00079FE90B1FFF7E8FF00220023094801A9F4
:1047F00004F070FE38B90423019840600374FFF799
:1048000005FFFFF709FF002001E00198406003B0B9
:104810005DF804FB0023002010B50446FFF7DAFF23
:1048200060B1002204720274FFF7F0FE044B93F8AB
:1048300024301BB1BDE81040FFF7EEBE10BD00BF35
:10484000A4380120012807B50FD002280ED048B99E
:10485000002200230848CDE9002345F69A120023E0
:1048600005F0A6FD03B05DF804FB002003B05DF881
:1048700004EBFFF7D1BF00BF90220020F8B5877886
:1048800006463846FFF7D0FE3B060446F57812D5BB
:10489000002D43D1FFF79EFF034600283ED00122A2
:1048A000A5770274032202739C60FFF7AFFEBDE898
:1048B000F840FFF7B1BE4DB1012D2FD1FFF78AFFB0
:1048C000034658B3657705740573EDE7FFF782FF7C
:1048D00020B3B278124B12F0800F02F0080111D011
:1048E00041B1D3F8A836E360012303740223846046
:1048F0000373DAE7142102F00F0201FB0233D3F84D
:104900000836F0E711B1D3F8A837ECE7142102F02C
:104910000F0201FB0233D3F80837E4E7F8BD00BF0C
:1049200000600350F0B5064689B01422002103A8A8
:1049300007F056F83378013B052B21D8DFE803F068
:104940007A0314146A16032300248DF81430FFF739
:1049500041FF0346A0B100F108020474DDE905013E
:1049600082E8030018461DE00423EDE7B7783846D7
:10497000FFF75AFE837A044623B1013B022B43D949
:1049800009B0F0BD3B06F57813D5002DF8D1FFF73F
:1049900021FF03460028F3D00122A57702740322E9
:1049A00002739C60FFF732FE09B0BDE8F040FFF7EC
:1049B00033BE55B1012DE3D1FFF70CFF03460028AC
:1049C000DED0657705740573EBE7FFF703FF074655
:1049D0000028D5D00123037402238460037304F1FB
:1049E0000C01B07807F080F8134AE168B2F88C3215
:1049F0008B4206D95B1AA2F88C3200F0BBFF384616
:104A0000D0E7A2F88C52FAE7304609B0BDE8F04092
:104A1000FFF734BF01A800F087FF9DF80530052B94
:104A200004D19DF8043013F0600FA9D0034B01248A
:104A300005938CE702248AE7A4380120103A01206C
:104A40002DE9F0438046A54CDFF8949285B0FFF73E
:104A50001BFE064610B905B0BDE8F08394F825307A
:104A6000327C3BB9002A00F0888071689C4809F0CC
:104A70008CFAECE7042A44D8DFE812F07F00050046
:104A8000FE0014013E01337BB568032B39D8DFE803
:104A900003F0023F5C616F6908220021384606F08E
:104AA0009FFF904B9048D3F880243A70D3F8842429
:104AB0007A70D3F88824D3F88C1442EA01227A80E1
:104AC000D3F89024D3F8941442EA0122BA80D3F8A0
:104AD0009824D3F89C34394642EA03230822FB8009
:104AE000EA6006F072FF2B680021687A984797F910
:104AF0000030002B08DBFB8833B1A4F88C3200F0C7
:104B000039FF48467168B2E70023A4F88C32F8E711
:104B10006B7F002BF5D02B7F002BF2D000274FF0BE
:104B2000FF326F774FF0FF3370482F7706F08BFF1F
:104B30006B6901A901936B68CDE90237687A00F0CF
:104B400025FC6A4806F081FFDBE701212B68687AC3
:104B50009847D6E7AB7A6BB9EB7F5BB963484FF008
:104B6000FF324FF0FF3306F06EFF00F009FF5F48A1
:104B700006F06BFF02212B68E9E7327A042AC0D8DD
:104B8000DFE802F055031F636F0000F077FB054676
:104B90000028B6D100F024FB01235549D1E8EF2FBE
:104BA000002A03D1C1E8E03F0028F7D1A9D141F89C
:104BB000085C41F8105CE0691439636106F0F5FAAD
:104BC0009FE7002565F07F00C0B2FFF72DFD037A57
:104BD00013B1407A01F036F80135082DF2D194F87E
:104BE00054311BB194F8550101F02CF80025E8B2BE
:104BF000FFF71AFD037A13B1407A01F023F801356B
:104C0000082DF4D194F874321BB194F8750201F0B8
:104C100019F8002000F016FB012384F825302368E2
:104C2000002B3FF46EAF00210220984769E7002572
:104C300084F8255000F06EFFFFF76EFD2368002B0F
:104C40003FF45FAF29460420EFE7002B3FF459AF54
:104C500000F01EFB2368002B3FF453AF002105201A
:104C6000E3E72268002A3FF44CAF002B3FF449AF42
:104C700000210620904744E708F110054FF0FF336C
:104C80004FF0FF32284606F0DEFEFFF761FD2846B2
:104C900006F0DBFE58F8283C002B3FF432AF002131
:104CA0000120C2E794F874327BB1012584F889525F
:104CB00084F88852FFF78EFD38B10E4A05740573EB
:104CC0008260FFF7A3FCFFF7A7FC58F8283C002BF5
:104CD0003FF417AF00210A20A7E700BFA438012046
:104CE0000023002000600350A8380120DC38012098
:104CF000C4380120103B012004F01AFA00F00AFF2A
:104D000000F064FAFFF758FDFFF722FD04F008FAFF
:104D1000014800F0E5FAF4E62549000038B5154DE4
:104D200095F8244024BB05F1380009F066F902200B
:104D300001F0EAF822460121E8613620FFF7E0FAA7
:104D400004F0EEF9FFF704FD044610B9012385F8DD
:104D50002430094B1B680BB1FFF75EFC074BD3F8FF
:104D60000034DB0702D50020FFF76CFD204638BD7C
:104D70000024FBE7A438012090230020007003509A
:104D800010B54FF0FF324FF0FF330B4806F05BFEDB
:104D9000FFF712FD00F072FA08B100F0BBFE00242C
:104DA000FFF7BAFC04F0C4F9044880F82440383016
:104DB00006F04BFE204610BDDC380120A43801204F
:104DC000074B93F824203AB193F82530002B14BFF9
:104DD00000206FF0120070476FF01200704700BFA4
:104DE000A438012038B5104B044693F82430C3B1E1
:104DF00005782846FFF718FC10B96FF0150038BD8C
:104E0000457223798372638843602078618810F04B
:104E1000080F02D14B1E0B42EFD106F060FE0020BE
:104E2000EDE76FF01200EAE7A438012038B5124B25
:104E3000054693F82420CAB193F82530B3B1FFF7A3
:104E4000F3FB0446A8B1837A012B12D007D9023BA9
:104E5000012B07D900206369E060A36138BD00F031
:104E600095FDF7E7284600F033FDF3E76FF01200F9
:104E7000F4E76FF01500F1E7A438012038B50E4BC8
:104E8000054693F8242082B193F825306BB1FFF7E3
:104E9000CBFB68B115F008040AD1284600F03AFDB2
:104EA000284600F007FF204638BD6FF01200FBE7F0
:104EB0006FF01500F8E700BFA438012038B50C4B9F
:104EC000054693F824200C4662B193F825304BB187
:104ED000FFF7AAFB48B144B1284600F001FD20705D
:104EE000002038BD6FF01200FBE76FF01500F8E707
:104EF000A438012070B5134E044696F82430C3B18F
:104F0000FFF792FB0546B8B1230705D4204600F011
:104F100001FD204600F0CEFE2B7A83B901232B72CF
:104F200096F825300BB9002070BD204600F08AFEAF
:104F3000F9E76FF01200F7E76FF01500F4E76FF094
:104F40007700F1E7A43801202DE9F043DFF8E48091
:104F50001E4698F8243007468946154685B0002B32
:104F600061D098F82530002B5DD003065ED5FFF7A1
:104F70005BFB0446002859D0037A002B56D04FF033
:104F8000FF334FF0FF3208F1380006F05CFDA37FDD
:104F90004BB108F1380006F058FD6FF00A042046C6
:104FA00005B0BDE8F083A37AC5B13BB301234FF050
:104FB0000008A377384601A9CDE90195CDF80C800A
:104FC00000F0E4F91C4B984229D084F81E801EBBE7
:104FD0006FF00404194806F038FDE0E7E27F02B103
:104FE000E577002BE2D100F0D7FCB842DED000F02C
:104FF000C7FC124806F029FD0024D0E7B8F80A30B3
:10500000AB42F0D96268B5FBF2F302FB1353002BFD
:10501000E9D10123E377E6E7C6F80080D8E706B1D7
:1050200035600024D6E76FF01204B8E76FF015047E
:10503000B5E700BFA43801200000AD0BDC3801202B
:105040002DE9F0411D46204B174693F824200E46CB
:10505000002A33D093F8253083B3030631D401B945
:105060007FBBFFF7E1FA044658B3037A4BB34FF026
:10507000FF334FF0FF32154806F0E5FCE368B84611
:105080009F4228BF984646B93FB905B12B600F48EB
:1050900006F0DBFC0020BDE8F08142463046A16905
:1050A00006F093FCA3694344A361E368A3EB080300
:1050B000E360002DEBD0C5F80080E8E76FF0120048
:1050C000E9E76FF01500E6E7A4380120DC3801209D
:1050D00070B51E4D034695F8242082B395F825201F
:1050E0006AB31B062ED4FFF79FFA044650B3037A27
:1050F00043B34FF0FF334FF0FF3205F1380006F0B5
:10510000A2FCE368B3B9012663692677A361637FD4
:1051100083B1FFF75FFB30B905F1380006F095FC6D
:105120006FF00B0070BD067484600673FFF76EFAB3
:10513000FFF772FA064806F088FC0020F2E76FF0ED
:105140001200EFE76FF01500ECE700BFA438012074
:10515000DC38012010B5084B0C4693F824302BB1F5
:10516000FFF762FA28B10460002010BD6FF0120052
:10517000FBE76FF01500F8E7A4380120014B186039
:10518000704700BFA438012008B5074B93F82430BE
:1051900023B1FFF749FA20B1406808BD6FF0120053
:1051A000FBE76FF01500F8E7A4380120064B10F07C
:1051B000800FA3F1D80208BF1346182200F00F0099
:1051C00002FB0030704700BF4C4201200023024A1E
:1051D0001360024A137070472C4301202869012094
:1051E0004FF40062114BC3F800240122C3F80025DC
:1051F000D3F800241205FBD54FF40062C3F8002455
:105200008022C3F81C250122C3F8302540F2FF128A
:10521000074B1A600023074A1360074A1370074AB6
:1052200013700222064B1A70704700BF00600350D3
:1052300028430120244301202469012026690120FC
:10524000286901200022094B10B51A70084A094B41
:10525000094C002808BF13463620C4F80033FFF776
:105260001FF80123C4F8043510BD00BF27690120D1
:10527000FDFFDF01FDFFFF0100600350034B1878C5
:10528000012894BF00200120704700BF2869012039
:1052900010B5EFF31181202383F31288BFF36F8FD2
:1052A0000D4B1B7803F0FF0083B10C4BD3F80024A7
:1052B00012F400720AD10124C3F82C45D3F82C450E
:1052C000D3F80044A40502D5C3F82C25002081F3AF
:1052D0001188BFF36F8F10BD276901200060035054
:1052E000F8B51C4B1C7894BB1B4A40F2FF171060AA
:1052F000012226461A7064F07F0514F0080FEDB203
:1053000014BF39464021284606F0E9FB2846FFF73E
:105310004DFF0134092C867506730661EBD100241C
:1053200040F2FF17254614F0080FE6B214BF3946C5
:105330004021304606F0D3FB3046FFF737FF0134FB
:10534000092C857505730561EDD10448F8BD044845
:10535000FCE700BF286901202C4301200000AD0BB1
:105360000500AD0B084B10F0800F14BFD3F81025CB
:10537000D3F81425012300F00F018B40134214BF12
:1053800001200020704700BF0060035002462DE955
:10539000F843EFF31187202383F31288BFF36F8F55
:1053A000030703D1194B1B7883422AD1184B1046AF
:1053B0001C684FF00109E44306F089FB154EA4B2C6
:1053C000356809FA00F82C4314EA08041BD110468A
:1053D000FFF7ECFE034680F80C9007C983E807004E
:1053E0004FF480021C619C750B4B45EA08050B4885
:1053F0003560C3F8042187F31188BFF36F8FBDE8D0
:10540000F8830748F7E70748F5E700BF266901205A
:10541000284301202443012000E100E00000AD0BFF
:105420000A00AD0B0B00AD0B10F0080F074B06D0B8
:10543000D3F8C00410F4803F18BF0020704700F07C
:105440000F0000F5947053F820007047006003507F
:105450002DE9F74FA74BD3F8604134B10022C3F8D0
:105460006021D3F86C44C3F86C44D3F828214AB1C6
:105470000022C3F82821A04B187806F028FB01234E
:1054800083401C439D4F9E4E3D7897F9008015F058
:10549000080141D1B8F1000F05F00F032CDA994A49
:1054A00052F8230010B342F823101422534303F19F
:1054B000A04303F55833D3F80836934A03F00103A9
:1054C00011784B401370914804F018F92846FFF703
:1054D0006DFE837D032B37D1284606F0F8FA0123B1
:1054E00003FA00F0336823EA000333600125DFF894
:1054F0002092DFF820825FE0874A52F823000028DC
:10550000F4D042F823101422534303F1A04303F5CF
:105510005833D3F80837D0E7B8F1000F754B09DBE3
:10552000D3F85021002AE1D00022C3F85021D3F84B
:10553000A837C2E7D3F82C21002AD7D00022C3F81D
:105540002C21D3F8A836B8E7037BDBB9284606F050
:10555000BEFA012303FA00F03368B8F1000F23EA22
:105560000003336001DA882DC0D106238DF80430A2
:1055700000238DF80730674B8DF806501B6801A893
:105580009847B3E7002DB1D101225A4BDA64ADE759
:1055900094FAA4F0B0FA80F0D9F8002005FA00F3EC
:1055A0001A430F28C9F8002024EA0304326840F3A4
:1055B000B780134200F0C580002CE9D14D4BD3F8E1
:1055C00000215AB1C3F80041544B01A81C704A4B4A
:1055D0001C70012301934F4B1B689847454BD3F830
:1055E0005421EAB10022C3F85421D3F804138902EC
:1055F00016D58DF80420D3F8202501A8ADF8062093
:10560000D3F8C034002B14BF4FF001224FF4807246
:10561000D9F800301343C9F800303E4B1B68984757
:10562000344BD3F85821002A2ED00022C3F8582139
:10563000D3F80044C3F80044E30508D50122374BF2
:1056400001A81A7002230193324B1B689847A505E5
:1056500008D50022314B01A81A70032301932D4B6A
:105660001B68984760050FD52C4B1A7862B1002251
:105670001A7001221F4B01A8C3F808259A6504235C
:105680000193244B1B6898471A4BD3F85C310BB33A
:105690001E4B9B6813B93B7859061BD00022154B53
:1056A00001A8C3F85C21D3F88034134A23F07F03A8
:1056B0001370336823F001133360D9F8003023F4FA
:1056C000803343F00103C9F8003005230193114BE7
:1056D0001B6898473268D9F800301A4207D0002278
:1056E00000230A4804F02EF8002800F09F8003B041
:1056F000BDE8F08F00600350266901202569012074
:1057000024430120086103502469012080230020E4
:10571000284301202C4301203061035027690120D8
:1057200013407FF449AF062260F07F018DF804201A
:105730008DF806108DF80730D8F8003001A898478A
:105740003AE70623A0F110018DF804308DF8061019
:105750008DF80750F0E718F0012314BF93FAA3F86F
:1057600098FAA8F8B8FA88F8B8F10F0F18D9A8F184
:105770001005EDB22846FFF719FD04462846FFF74D
:1057800053FE6368B4F814C09842226830D81B1ADC
:1057900000EB020E114682466360C4F800E02AE086
:1057A00048F080052846FFF701FD4368B0F814A0D3
:1057B00001689A4528BF9A4601F06043B3F1005F43
:1057C000044604D052463E4806F0FFF83C492268A1
:1057D000636852442260A268A3EB0A03D20768B24E
:1057E000636033D5BAF1000F32D1002323732FE069
:1057F00011464FF0000A604525D1003B18BF012338
:105800001AB3504521D9012303FA08F32BEA030305
:105810003360062302228DF804302A4BA2751B68E0
:105820008DF806508DF8072001A89847D6F800B0EB
:10583000D9F800301BEA03088DD1234803B0BDE836
:10584000F04F03F05BBF0023DAE768B2002BCCD047
:105850000122D9F8003002FA08F823EA0803C9F84F
:105860000030236915F0080F534423613D70174B36
:1058700017D100284FF0140005F00F0500FB05308C
:10588000B5BF03EB85030A35C0F80016C0F8001752
:10589000B5BFC0F804A6C0F804A75A6043F8252095
:1058A00025E70028B5BFC3F8A016C3F8A017C3F8B2
:1058B000A4A6C3F8A4A7B4BF5A629A6417E700BFAE
:1058C000344101202C43012080230020006003503C
:1058D000024B40F48070C3F8180570470060035015
:1058E000030713D400F00F0310F0800F084A0BBF1A
:1058F00003F5887303F5847302EB830252F82300E7
:1059000008BF5068003818BF01207047002070475A
:1059100000600350034BC3F80C0540F48070C3F8DB
:105920000C0570470060035010B5044608220021A2
:1059300006F056F80E4BD3F880242270D3F8842456
:105940006270D3F88824D3F88C1442EA0122628072
:10595000D3F89024D3F8941442EA0122A280D3F819
:105960009824D3F89C3442EA0323E38010BD00BF9F
:10597000006003500122014BDA647047006003505D
:105980000122014B1A657047006003500122014B50
:105990005A65704700600350014B1878704700BF8C
:1059A00026690120024610B5EFF31184202383F30A
:1059B0001288BFF36F8F06F08AF801230A4903FAB1
:1059C00000F00B6823EA00030B6012F0080101BF2E
:1059D00002F00F02054B02F5947243F8221084F393
:1059E0001188BFF36F8F10BD284301200060035062
:1059F000F7B50146EFF31185202383F31288BFF337
:105A00006F8FFFF7D3FB0646084606F060F80122C9
:105A100011F0800F02FA00F22D4818D1036832EA23
:105A200003040AD00846FFF7BDFF0323B37585F3CF
:105A30001188BFF36F8F03B0F0BD264923EA02033C
:105A400003600B68347323EA02030B60EDE70B0776
:105A500015D48029204B2FD001F00F0404F2DA3442
:105A60006400C3F80048D3F80448D3F80478E4B2DB
:105A700044F002043C43C3F80448D3F80438154FFB
:105A800004683B6864EA030C1CEA020FCFD013439E
:105A90003B6000233373032324EA02040622B37518
:105AA0008DF807300D4B04601B688DF804208DF8CD
:105AB000061001A89847BAE740F2B474C3F800484A
:105AC000D3F80448D3F80478E4B244F00404D1E7EE
:105AD0002443012028430120006003502C4301206F
