:020000040100F9
:108600003DB8F39600000000000200009C0B030040
:10861000000000000000000000000000000000005A
:10862000FFFFFFFFFFFFFFFFFFFFFFFFFFFFFFFF5A
:10863000FFFFFFFFFFFFFFFFFFFFFFFFFFFFFFFF4A
:10864000FFFFFFFFFFFFFFFFFFFFFFFFFFFFFFFF3A
:10865000FFFFFFFFFFFFFFFFFFFFFFFFFFFFFFFF2A
:10866000FFFFFFFFFFFFFFFFFFFFFFFFFFFFFFFF1A
:10867000FFFFFFFFFFFFFFFFFFFFFFFFFFFFFFFF0A
:10868000FFFFFFFFFFFFFFFFFFFFFFFFFFFFFFFFFA
:10869000FFFFFFFFFFFFFFFFFFFFFFFFFFFFFFFFEA
:1086A000FFFFFFFFFFFFFFFFFFFFFFFFFFFFFFFFDA
:1086B000FFFFFFFFFFFFFFFFFFFFFFFFFFFFFFFFCA
:1086C000FFFFFFFFFFFFFFFFFFFFFFFFFFFFFFFFBA
:1086D000FFFFFFFFFFFFFFFFFFFFFFFFFFFFFFFFAA
:1086E000FFFFFFFFFFFFFFFFFFFFFFFFFFFFFFFF9A
:1086F000FFFFFFFFFFFFFFFFFFFFFFFFFFFFFFFF8A
:10870000FFFFFFFFFFFFFFFFFFFFFFFFFFFFFFFF79
:10871000FFFFFFFFFFFFFFFFFFFFFFFFFFFFFFFF69
:10872000FFFFFFFFFFFFFFFFFFFFFFFFFFFFFFFF59
:10873000FFFFFFFFFFFFFFFFFFFFFFFFFFFFFFFF49
:10874000FFFFFFFFFFFFFFFFFFFFFFFFFFFFFFFF39
:10875000FFFFFFFFFFFFFFFFFFFFFFFFFFFFFFFF29
:10876000FFFFFFFFFFFFFFFFFFFFFFFFFFFFFFFF19
:10877000FFFFFFFFFFFFFFFFFFFFFFFFFFFFFFFF09
:10878000FFFFFFFFFFFFFFFFFFFFFFFFFFFFFFFFF9
:10879000FFFFFFFFFFFFFFFFFFFFFFFFFFFFFFFFE9
:1087A000FFFFFFFFFFFFFFFFFFFFFFFFFFFFFFFFD9
:1087B000FFFFFFFFFFFFFFFFFFFFFFFFFFFFFFFFC9
:1087C000FFFFFFFFFFFFFFFFFFFFFFFFFFFFFFFFB9
:1087D000FFFFFFFFFFFFFFFFFFFFFFFFFFFFFFFFA9
:1087E000FFFFFFFFFFFFFFFFFFFFFFFFFFFFFFFF99
:1087F000FFFFFFFFFFFFFFFFFFFFFFFFFFFFFFFF89
:10880000589E00214DBF0201754E030139BF020180
:1088100039BF020139BF020139BF02010000000067
:10882000000000000000000000000000F9C002018C
:1088300039BF020100000000B9C0020139BF0201C6
:10884000B1C20201B1C20201B1C20201B1C2020150
:10885000B1C20201B1C20201B1C20201B1C2020140
:1088600079530301B1C20201B1C20201B1C20201D6
:1088700045530301B1C20201B1C20201B1C20201FA
:10888000B1C202015F530301B1C20201B1C20201D0
:10889000B1C20201B1C20201B1C20201B1C2020100
:1088A000B1C20201B1C20201B1C20201B1C20201F0
:1088B000B1C20201B1C202010000000000000000CC
:1088C00000000000000000000000000000000000A8
:1088D0000000000000000000000000000000000098
:1088E0000000000000000000000000000000000088
:1088F0000000000000000000000000000000000078
:108900000000000000000000000000000000000067
:108910000000000000000000000000000000000057
:108920000000000000000000000000000000000047
:108930000000000000000000000000000000000037
:108940000000000000000000000000000000000027
:108950000000000000000000000000000000000017
:108960000000000000000000000000000000000007
:1089700000000000000000000000000000000000F7
:1089800000000000000000000000000000000000E7
:1089900000000000000000000000000000000000D7
:1089A00000000000000000000000000000000000C7
:1089B00000000000000000000000000000000000B7
:1089C00000000000000000000000000000000000A7
:1089D0000000000000000000000000000000000097
:1089E0000000000000000000000000000000000087
:1089F0000000000000000000000000000000000077
:108A0000DEE61E284CBBCE8F023500003C00000085
:108A1000EC0A03000100000000880001008800014A
:108A2000FFFF0291000000000000000000000000B5
:108A30000000000000000000000000002DE9F00729
:108A400091E8F807B2E802105B1854EB0C04B2E8A6
:108A500002104D4156EB0C06B2E802104F4158EBA4
:108A60000C08B2E8021059EB01095AEB0C0A80E835
:108A7000F80780410130BDE8F00770472DE9F007A5
:108A800091E8F807B2E802105B1A74EB0C04B2E844
:108A900002108D4176EB0C06B2E802108F4178EBA4
:108AA0000C08B2E8021079EB01097AEB0C0A80E8B5
:108AB000F80780414042BDE8F00770472DE9F00714
:108AC000524290E87800B1E880071740DB1918EAB5
:108AD000020854EB080419EA020955EB09051AEAE1
:108AE000020A56EB0A0678C090E87800B1E88007E1
:108AF00017407B4118EA020854EB080419EA0209FE
:108B000055EB09051AEA020A56EB0A0678C08041BD
:108B10000130BDE8F00770472DE9F007524290E8B8
:108B20007800B1E880071740DB1B18EA020874EBF5
:108B3000080419EA020975EB09051AEA020A76EB3C
:108B40000A0678C090E87800B1E880071740BB417A
:108B500018EA020874EB080419EA020975EB090522
:108B60001AEA020A76EB0A0678C080414042BDE864
:108B7000F00770472DE9F00152424FF0040890E8E9
:108B8000300091E8C000A31B1340E41AF618EB1B59
:108B90001340ED1AFF1830C0C0C1B8F10108EED182
:108BA000BDE8F001704700BF00B592E8DC072DE991
:108BB000DC07B1E8805702B4A7FB02510A95A8FB75
:108BC000020B09180020E7FB03105BEB000B0020F1
:108BD0004041E9FB02B00B91A8FB03514018002172
:108BE0004941EAFB02011BEB050B0025E7FB04B53D
:108BF00068410025E7FB0605694100256D41E8FB5A
:108C00000615CDF830B0A9FB03B689190026EAFB9A
:108C10000316754100267641ECFB035610EB0B0062
:108C20005FF0000BE8FB040B51EB0B015FF0000B56
:108C3000E9FB041B55EB0B055FF0000BEAFB045B43
:108C400056EB0B065FF0000B5BEB0B0BECFB046BC6
:108C50000D90ACFB0230059C2D180020EEFB02505D
:108C600046410020E9FB04605BEB000B0020404123
:108C7000EAFB04B05B180021E7FB04314D41002101
:108C8000E8FB0451069C4E410021E8FB04615BEBCC
:108C9000010B0021E9FB04B1484100214941EAFBF5
:108CA00004010E93A7FB0432079CB6180022E7FBD1
:108CB00004625BEB020B0022E8FB04B2504100228D
:108CC000E9FB0402514100225241EAFB0412049CD8
:108CD000ED180023E9FB04535E410023EAFB046323
:108CE000089C5BEB030B0023E7FB04B35841002314
:108CF000E8FB040359410023E9FB04135A41002314
:108D00005B41EAFB04230F955DF8049B99E800069C
:108D1000DDF80080A9FB08541BEB040B0024EAFBE0
:108D200008B4DDF8108060410024ECFB08046141C8
:108D30000024EEFB081462410024E9FB082463418F
:108D400000246441EAFB0834DDF80480761900252C
:108D5000EEFB08655BEB050B0025E9FB08B56841F8
:108D60000025EAFB0805DDF8148069410025ECFBCD
:108D700008156A410025EEFB08256B410025E9FB3B
:108D800008356C4100256D41EAFB08450F96DDF87A
:108D90000880AEFB087680190026E9FB08067141C1
:108DA0000026EAFB0816DDF8188072410026ECFB6D
:108DB000082673410026EEFB083674410026E9FBC5
:108DC0000846754100267641EAFB0856DDF80C801E
:108DD0001BEB070B0027ECFB08B778410027EEFBE5
:108DE000080779410027E9FB08177A410027EAFBC9
:108DF0000827DDF81C807B410027ECFB08377C410D
:108E00000027EEFB08477D410027E9FB08577E411C
:108E100000277F41EAFB086708B000BD2DE9F14F4C
:108E200087B0FFF7C1FEDDF81C8008F1200888E854
:108E3000FF00FFBC87E87F08BDE8F08F00B591E830
:108E40004C57A2FB02410194A2FB034524190020C8
:108E5000E2FB06506D417F41641802940021E2FB61
:108E60000801A3FB034B654103950024E3FB0604C3
:108E700040417F41091900246441E2FB0914FF07C6
:108E800050EB0B0004900025E2FB0A455FF0000B5D
:108E9000E3FB081B49415FEA370714EB0B045FF063
:108EA000000BE3FB094B55EB0B055FF0000B5BEB95
:108EB0000B0BE2FB0C5BFF0F0020E2FB0EB000226D
:108EC0005141E6FB061205910021E6FB0841644191
:108ED0007F416D180021E3FB0A515BEB010B002180
:108EE000E3FB0CB1484100214941E3FB0E010023A3
:108EF000E6FB09531BEB030B0023E6FB0AB35841C7
:108F00000023E6FB0C03594100235B41E6FB0E13F3
:108F1000FF07544106946D417F41A8FB0826554147
:108F200007950022E8FB09B25BEB0B0B7F41801831
:108F30000022E8FB0A0251410022E8FB0C125A41D0
:108F400000235B41E8FB0E230024E9FB0E340025DF
:108F5000E9FB0A1552190025E9FB0C256B41002598
:108F6000EAFB0C356C4100256D41EAFB0E45FF071D
:108F70005BEB060B0026ECFB0E564041494152418B
:108F80005B4164416D417641AEFB0EE848F100085B
:108F90007F00A9FB0979784151EB0901AAFB0A7A04
:108FA0007A4153EB0A03ACFB0C7C7C4155EB0C057E
:108FB00056EB0E0648F1000700BD00BF2DE9F14F4A
:108FC00087B0FFF73BFFDDF81C8008F1200888E838
:108FD000FF00FFBC87E87F08BDE8F08F30B44FF09A
:108FE000000310F8014B11F8015B013A84EA050413
:108FF00043EA0403F5D1A3F101034FEAD37030BC77
:10900000704700BF4FF0000310F8012B013943EA0D
:109010000203F9D1A3F101034FEAD370704700BFF7
:1090200030B411F8014B12F8015B6C4000F8014BB1
:10903000013BF6D130BC70472DE9F00791E8F80705
:10904000B2E802105B1854EB0C04B2E802104D4178
:1090500056EB0C06B2E802104F4158EB0C08B2E890
:10906000021059EB01095AEB0C0A8941B3F1FF33A5
:1090700074F1FF3475F1FF3576F1000677F10007E2
:1090800078F1000879F101097AF1FF3A51F1000114
:109090005B184C414D4156F1000657F1000758F15D
:1090A000000859EBD1795AEB010A80E8F807BDE8CE
:1090B000F00770472DE9F00791E8F807B2E80210D1
:1090C0005B1A74EB0C04B2E802108D4176EB0C06CF
:1090D000B2E802108F4178EB0C08B2E8021079EB8D
:1090E00001097AEB0C0A89415B184C414D4156F15C
:1090F000000657F1000758F1000859EBD1795AEBF7
:10910000010A80E8F807BDE8F007704718EB04088B
:1091100059EB05095AEB060A5BEB070B5FF0000CF5
:109120004CF1000C18EB050859EB06095AEB070A3D
:109130005BEB070B50EB0C005FF0000C51EB0C01EC
:1091400052EB0C0263414CF1000CB8EB070879F1CB
:1091500000097AF1000A7BEB040BA841B141A2415E
:10916000B3416CF1000CBBEB050BB041B941AA4116
:10917000BB416CF1000C4CF001068CF0020718EBBF
:10918000060859EB6C095AEB6C0A7BEB6C0B70EB25
:109190006C0471EB6C0572EB670653EB6C076CEBC0
:1091A0006C0C18EB0C0059EB0C015AEB0C025BF148
:1091B000000354F1000455F1000556EBDC7657EB43
:1091C0000C0770472DE9F14F87B0FFF7EDFCDDF894
:1091D0001080DDF81490DDF818A0FFF797FFBDE8C8
:1091E000000FFFF793FF03B05DF8048B88E8FF00E2
:1091F000BDE8F08F2DE9F14F87B0FFF71FFEDDF8D6
:109200001080DDF81490DDF818A0FFF77FFFBDE8AF
:10921000000FFFF77BFF03B05DF8048B88E8FF00C9
:10922000BDE8F08F1FB50B4B01A901934FF4B0734C
:10923000ADF8083008238DF80A30837803208DF8C4
:109240000B30FF238DF80C3000F0A8FE05B05DF860
:1092500004FB00BF159902011FB50B4B01A9019337
:109260004FF48063ADF8083008238DF80A30437856
:1092700002208DF80B3000238DF80C3000F08EFEAC
:1092800005B05DF804FB00BFC79D02011FB50023B8
:10929000019303930B4B02930B4B1B7883B1037821
:1092A000002B0CBF012302238DF80B3001A9FF23F3
:1092B00001208DF80C3000F071FE05B05DF804FB64
:1092C0000123F1E738010800080900211FB50A4B06
:1092D00001A901934FF46273ADF8083008238DF8AB
:1092E0000A30037800208DF80B308DF80C0000F068
:1092F00055FE05B05DF804FBC39F02011FB50A4B84
:1093000001A901939023ADF8083008238DF80A30A5
:10931000C37804208DF80B30FF238DF80C3000F05B
:109320003DFE05B05DF804FBEDA002011FB504464B
:1093300013F0FCFD094B01A9ADF8080006200193CC
:1093400008238DF80A30E37B8DF80B30FF238DF86E
:109350000C3000F023FE04B010BD00BF21A50201B7
:10936000F7B504460D4641B9134B5B78012B04D089
:10937000019101A80121FFF7F3FF2368002D0F4E93
:109380004FF0000503F107030D4F0CBF20460020EE
:1093900023F00703236000F0D9FD56F8043B0BB11E
:1093A0003846984701350F2DF7D100F049FE236864
:1093B0000344236003B0F0BD0809002150000021E0
:1093C0000A0900212DE9F04385B09B4C06460D4665
:1093D000039003A8FFF7C4FFA778E3784FF00009D4
:1093E0001F44C846FFB25FFA89F39F4200F2128120
:1093F0000398002D414600F1030020F00300039084
:1094000018BF002000F07AFF039B217918440390D5
:1094100081B163790330627C002D20F003001A448F
:10942000A389039018BF0020D2B200F0DBFF039B9A
:1094300003440393814F7B68CBB1E17AB9B194F8CF
:1094400028300398002B00F1070014BF4023252388
:1094500020F0070014BF4FF481722822002D0390E2
:1094600018BF002006F0D0FB039B03440393A17BAD
:1094700099B123791BB97B687BB1E37A6BB103980F
:10948000002D00F1070020F00700039018BF002016
:109490000DF0F0FF039B03440393694B1B687BB102
:1094A000A17969B10398002DE27B00F1030020F05F
:1094B0000300039018BF00209847039B03440393C5
:1094C000604B1B6873B1217C61B10398002D00F1E2
:1094D000030020F00300039018BF00209847039B6F
:1094E00003440393584BD3F80080B8F1000F12D017
:1094F000617C81B10398002D237D00F10300A27CE3
:10950000009320F00300E37C039018BF0020C047C5
:10951000039B03440393FB6983B1A17971B1039861
:10952000002DA27D00F1030020F00300039018BF7E
:10953000002001F0DBF8039B0344039394F821001F
:1095400080B1039AE37E0332217E22F007021944A0
:109550002B4642F00402C9B2039201F0FDF9039BCD
:109560000344039394F8221000295DD0039F002D3B
:10957000A28C07F1070718BF002027F0070708BFD4
:10958000384603971BF0A7FF039B034403931DB9C1
:10959000A18C384616F06CFE217F002946D094F845
:1095A0002030002B42D00398002DE28B00F1070001
:1095B00002F1240220F0070092B2039018BF0020AD
:1095C0001BF089FF039FA37E3A18217E94F82000A8
:1095D000033219442B4622F00702C9B242F00402BA
:1095E000039201F0ABF9039B0344039335B9E28B7B
:1095F0003846217F083292B216F054FEE36A23B156
:10960000039B05B9E362283303930398801B05B0DD
:10961000BDE8F083A37A09F10109627A217AE07941
:109620001BF02BFF8044DEE60F46B0E7002DE5D1AE
:109630002A4629462846DFE7080900215000002174
:109640008C00002194000021900000218FB572B69B
:109650001A4B1D6BE5B9BFF34F8F1949194BCA68F7
:1096600002F4E0621343CB60BFF34F8F00BFFDE70E
:10967000B4FBF6F4D3B20132002CF9D103F110029D
:109680006A4402F80C4C0A2433B901A8A847E2E75F
:10969000044600220A26EDE7013BDBB203F110028B
:1096A0000DEB0206C2B2B2FBF4F704FB1722303214
:1096B000B0FBF4F006F80C2CE6E700BF0809002127
:1096C00000ED00E00400FA051FB5164C02A8A37ACD
:1096D0008DF80930637A8DF80830237AADF80C30B4
:1096E000E379ADF80A300BF0BFFB18B1DB210320A2
:1096F000FFF7ACFF012301A88DF804301DF019FD20
:1097000008B1DF21F3E7207D0BF01AFC08B1E2215C
:10971000EDE7E07C0BF00EFC08B1E321E7E704B0D5
:1097200010BD00BF0809002138B50546002840D00B
:109730001AF0E6FA10B94FF0FF3038BD16F0E2FF2C
:10974000B0F5FA7FF7D81D4C1D482563002500F0C1
:10975000FDFA3C2229461B4865701AF03DFE262280
:109760002946A01C257084F82850E5621AF034FEC2
:109770001B2240F20113E27140F21B32638001238D
:10978000228140F20232237162811F22A375FB23E2
:10979000A2814FF40272A384E28144F60112628234
:1097A000EFF3108472B601F0E7F82CB962B62046E8
:1097B000C3E76FF01500C0E72846BEE7080900219F
:1097C000C99600015000002110B5002840F0A38088
:1097D000544C6378022B00F09B80A1B1002A6CD01E
:1097E0000139142900F29780DFE801F00B181B2BD8
:1097F000535B74315E616F373D4A4F797C898C8F42
:1098000081001378A37001210020FFF7DBFDB0F584
:10981000803F80F283800123637010BD1378E37072
:10982000F1E79378002B48D0D378002B45D01378FC
:109830001A2B42D953781A2B3FD91368C4F8073032
:10984000E1E713786279934237D32371DBE713782A
:109850002279934231D86371D5E713782279934204
:109860002BD86374CFE713783BB35378013BDBB25B
:10987000F82B22D81388927863822B4B9A70C2E718
:109880001078607513F094FBBDE71378ABB1A37546
:10989000B9E71378254A52680AB1012B0DD9E37252
:1098A000B1E71388A381AEE71378A371ABE71F4933
:1098B0001378C96921B9012B04D86FF01500ACE702
:1098C000002BFAD01378E3739DE71378082BF4D8B4
:1098D000237498E71388FF2BEFD8A37393E71378CB
:1098E000E37590E713780E2BE7D823768BE71368A0
:1098F0000F49E36153684B6013890B8183E7137849
:10990000637680E71378E3767DE71378A3767AE7CA
:109910004FF0FF3081E76FF02C007EE76FF00B0017
:109920007BE700BF080900211A090021500000212F
:109930002409002170B50D460646E8B1E1B111F0E9
:10994000070419D100F036F9C8B130460D4E1AF0AF
:109950004BFB214686F834002846FFF733FD14F010
:1099600047FD96F83400F16A0BF00EFCFFF7ACFEF1
:1099700002232046737070BD6FF01500FBE74FF0B7
:10998000FF30F8E70809002110B5074C6378022B77
:1099900005D10BF015FC94F834001AF041FB1BF0D4
:1099A0002FFF0020607010BD0809002150B1074B47
:1099B00003F1140253F8041B934240F8041BF9D13D
:1099C000002070476FF01500704700BFAF8903019A
:1099D000064B10B55C7834B90BF050FB044B054ACC
:1099E0002046DA6010BD4FF0FF30FBE70809002188
:1099F0005000002125920001064B10B55C7834B967
:109A00000BF050FB044B054A20469A6010BD4FF006
:109A1000FF30FBE7080900215000002159920001A6
:109A200038B5094D6C785CB90BF05EFB074B084A02
:109A300020465A60074A1A60012385F8283038BD4D
:109A40004FF0FF30FBE700BF080900215000002164
:109A50008D920001CD920001054B10B55C781CB9C8
:109A60000BF082FA204610BD4FF0FF30FBE700BF3D
:109A700008090021054B10B55C781CB90BF066FA9B
:109A8000204610BD4FF0FF30FBE700BF0809002162
:109A9000054B10B55C781CB91DF094FB204610BD39
:109AA0004FF0FF30FBE700BF08090021054B10B560
:109AB0005C781CB91DF089FB204610BD4FF0FF30CB
:109AC000FBE700BF08090021054B10B55C781CB905
:109AD0001DF07EFB204610BD4FF0FF30FBE700BFBE
:109AE00008090021054B10B55C781CB91DF072FB0C
:109AF000204610BD4FF0FF30FBE700BF08090021F2
:109B0000064B10B55C7834B90BF00AFB044B054AE0
:109B100020461A6110BD4FF0FF30FBE70809002115
:109B200050000021FD920001084B10B55C784CB943
:109B30000BF010FB064B074A20469A61064B074A7A
:109B40001A6010BD4FF0FF30FBE700BF080900218D
:109B5000500000212D930001900000214DA600012E
:109B6000054B10B55C781CB90BF00CFA204610BD03
:109B70004FF0FF30FBE700BF08090021054B10B58F
:109B80005C781CB90BF010FA204610BD4FF0FF3086
:109B9000FBE700BF0809002102680020014B1A60A2
:109BA000704700BF40090021014B1B68184700BFE8
:109BB00040090021024B1868003818BF0120704787
:109BC0004009002173B5031D2D4D04462B60284626
:109BD0000CF0F8FB0228064606D1294920461AF067
:109BE00082FD304602B070BD042842D12B78092B8B
:109BF0000AD0252B1ED0294620461AF0EEFDB0F5DE
:109C0000817F2DD3722112E005213E201AF03EFD06
:109C10000028F0D1EB7801A92A79684643EA0223AB
:109C2000ADF800301BF06EF90028D0D05321082089
:109C3000FFF70CFD1A213E201AF028FD0028DAD18A
:109C40006B68694601A8C3F30F23ADF804301123F4
:109C50008DF806301BF09EF90028B8D06521E6E7A4
:109C60000028B4D0A17820781AF010FD0028B8D1CF
:109C7000ADE70828B5D1024920461AF06CFDB0E7DF
:109C800044090021074B4FF0FF3141F6FF72C3E951
:109C9000001205490022C1E900221F21C3E9021276
:109CA000704700BF00000021480A00213F280CD85F
:109CB00001380B4BC0F3421200F01F0053F8223062
:109CC00023FA00F000F001007047FF2806D040386A
:109CD000044BC0F3421200F01F00EFE70120704771
:109CE00000000021480A0021074B0146006849682E
:109CF0001A4603C240F48C221A6041F0107242F4FA
:109D0000FF625A60704700BF000000210246024B0C
:109D10000068516803C37047480A00210246024B9D
:109D20000068516803C37047080000210138064BE2
:109D3000C0F3421200F01F0003EB82039B6823FA7A
:109D400000F000F00100704700000021014B186096
:109D5000704700BF500A002110B5FFF793FF1CF0B9
:109D60002EFA034B04461B6803B19847204610BDEA
:109D7000500A002138B5274B0446D3F8A022D3F867
:109D8000A412013106D1D3F8A8324FF6FF719BB26D
:109D90008B423DD0D3073BD51E4DD5F8A422D5F834
:109DA000A832C4F80120A4F80530C3F3072363F0F8
:109DB0003F03A371D5F89032013323D0D5F8943204
:109DC00001331FD0D5F8983201331BD0D5F89C321F
:109DD000013317D000200BF075FC98B9D5F890022C
:109DE000D5F89412D5F89822D5F89C32C4F807001B
:109DF000C4F80B10C4F80F20C4F81330012300205E
:109E0000237038BD10220021E01D1AF0E5FAF5E7B5
:109E10000023F4E70000FF0170B5274D1022002158
:109E20000446D5F8A0621AF0D7FA10220021A01833
:109E30001AF0D2FAD5F8803201330BD1D5F884323A
:109E4000013307D1D5F88832013303D1D5F88C32EC
:109E500001330BD0D5F88002D5F88412D5F88822CA
:109E6000D5F88C3220616161A261E36100200BF0C2
:109E700029FC08B9F3071CD40F4BD3F89022013208
:109E80000BD1D3F89422013207D1D3F898220132B2
:109E900003D1D3F89C2201320BD0D3F89002D3F82F
:109EA0009412D3F89822D3F89C3220606160A260AB
:109EB000E360002070BD00BF0000FF0170B50C889A
:109EC000C27CA6B2C4F30E04531D058804F1180227
:109ED0001D44825AADB21A4443882A44013AB2FB67
:109EE000F5F202FB054292B29342044B8BBF334022
:109EF000B34313439BB20B8070BD00BF0080FFFFD4
:109F000010B5114B00EB41041A786389B3FBF2F3EF
:109F100003FB0223013A1A44B2F5706F027928BF9D
:109F200000231A448378B2FBF3F0194403FB10209A
:109F3000091AB1FBF3F003FB101313446FEA434318
:109F40006FEA5343638110BD540A0021124B10B5D0
:109F5000E0B15A78022A04D040F22B111720FFF703
:109F600075FB03225A70026812F0070102D04FF409
:109F70009871F3E75C685A602244BDE810400260C3
:109F800003F10C009A603C221AF026BA0122C3E9C0
:109F900001005A7010BD00BF540A00212DE9F041A4
:109FA000264E96F801E00EF0FD0CBCF1010F04D036
:109FB00040F245111720FFF749FB91F80680B8F1F0
:109FC000080F02D940F24711F4E7CF799FB3454615
:109FD0007B1D7268022D4FEA430402EB430338BF36
:109FE00002256A1E6D421344C8F100022B408D8881
:109FF0004544013D2A404FF6FE75AA4202D94FF46E
:10A00000A971D7E7BEF1030F12D106EB80001C1B2C
:10A01000C56815B140F25711CCE7C460A770228023
:10A0200084F803C0087A09682071080C2181E08057
:10A0300007FB02337360BDE8F08100BF540A0021C2
:10A040002DE9F047364C6378012B65D0032B04D003
:10A0500040F267111720FFF7F9FAD4E901329A426A
:10A0600002D04FF4B571F5E7002325460E221E46B7
:10A07000994605F80C3B55F82200013A58B190F882
:10A0800004808178B8F1FF0F2FD180F804908E42C0
:10A090003CBFCEB20123511CEDD103B126700E2678
:10A0A00040F6FF6955F826709FBB013EFAD20423A3
:10A0B00000206370BDE8F08755F82CE0BEF1000F7A
:10A0C00006D09EF804A0C24504BF9EF802E0774483
:10A0D0000CF1FF3CBCF1000FEEDA3944FF2907D93F
:10A0E00003B126704FF48371B4E794460027F1E77B
:10A0F0000771CCE707EB410308F101083846A3F8E4
:10A100000A90FFF7FDFE5FFA88F1BB788B42F1D829
:10A11000CBE74FF00008F6E7022360686370C9E7F9
:10A12000540A0021034B03EB8003D86800B1807808
:10A13000704700BF540A0021F8B54FF6FF7305467B
:10A140000380184B03EB8103D868B8B18678037994
:10A15000B3FBF6F206FB1233DBB219460A1D00EB25
:10A160004202B2F902705488002F09DB0131B1FBC1
:10A17000F6F206FB1211C9B28B42EFD10020F8BDF6
:10A18000FF29FBD0C4F30E03C4782B8024B94FF40D
:10A19000D9711720FFF75AFA5380BDE8F8401BF039
:10A1A00036B900BF540A00211D4B03EB810370B583
:10A1B000DC68054644B3030404D54FF4E07117206E
:10A1C000FFF744FA014620461BF004F9FF28014638
:10A1D00004D02046BDE870401BF019B9A078B5FB4B
:10A1E000F0F300FB1353DBB219460A1D04EB4206E1
:10A1F000B6F90260002E09DB0131B1FBF0F200FB81
:10A200001211C9B28B42F0D1002070BDFF29FBD0E2
:10A210008B4204EB42021CBF0023E3705580D8E759
:10A22000540A0021094B03EB8103014610B5DC6899
:10A2300020461BF0CFF8FF28014604D02046BDE899
:10A2400010401BF0E4B8002010BD00BF540A0021EC
:10A25000F8B5104B074603EB81030146DC68204646
:10A260001BF0B8F8FF28054611D0E688238953EA89
:10A27000064606D0014620461BF0C9F8014638467E
:10A28000B04720462946FFF73BFE0020F8BD0320DB
:10A29000FCE700BF540A002138B50E4B0446827912
:10A2A00003EB8203D86808B9022038BD8278E179CF
:10A2B0009142F9D24B1CE37100EB41035D89B3F984
:10A2C0000A30002BF3DBA5801BF0A1F820600020F2
:10A2D000EBE700BF540A002108B5074B03EB8103ED
:10A2E0000146D8681BF076F8FF2804D140F22621F9
:10A2F0001720FFF7ABF908BD540A002170B50446DA
:10A3000010F003000E4603D049211820FFF79EF9F4
:10A310001BF004F8054624B10348314604601AF0E6
:10A32000FDFF284670BD00BF9C0A00212DE9F04FBB
:10A330001E4C85B092469846226881460D46BDF86F
:10A340003830BDF83CB01AB95B211820FFF77EF910
:10A350001A460A21504603931AF08CFE06465A46C6
:10A36000092140461AF086FE3118074620681BF086
:10A3700000F8039BC9F8000018B9286005B0BDE8D3
:10A38000F08F84195246314600932C600A23D9F885
:10A3900000001AF00FFE0923424639462868CDF81E
:10A3A00038B005B0BDE8F04F1AF004BE9C0A002199
:10A3B00070B50E4604461AF065FE054630461AF0A2
:10A3C00061FE044B2A1821461868BDE870401AF057
:10A3D000FABF00BF9C0A0021014B18681AF0BCBFED
:10A3E0009C0A00211144F8B5C9B21C4C10F00305B9
:10A3F000217003D04D210920FFF728F91F2B17D812
:10A400009B009BB2033323F003039BB208B160604F
:10A410002381282264684FF0010C4A438618EFB26A
:10A42000B94212D8D01D03FB010323F00700F8BD89
:10A43000FF2B4FEA430204D9FF339342E1DB93B28F
:10A44000E0E77C2AFBDC7C23DCE710B184F800C069
:10A450006660013528341E44E1E700BFA00A0021F0
:10A46000144A002138B553681478C8B2844203D81E
:10A47000A8210920FFF7EAF81846013128330578AA
:10A48000002DF2D000218170012412898161051D07
:10A4900044709208C16100F12001446821F8022B48
:10A4A000994245F8044B1444F8D1002343610370EA
:10A4B00038BD00BFA00A00210A4B1B89B3F5FF7FFE
:10A4C0004FEA930006D25A089B1A9BB2984238BFB3
:10A4D00018467047B3F5EE6F01D8FF22F4E740F25B
:10A4E0007263F3E7A00A00212DE9F8434B78804618
:10A4F0000C4602F0040602F0FB07D3B1DFB12E4B8D
:10A50000D4F804901D89B7BB0123AD084A46211D2C
:10A51000637004F1280004F12003A761E76123F8C8
:10A52000025B984241F8042B2A44F8D1002363616E
:10A5300001E0002FE3D0FF23A370002E18BF0226F6
:10A54000A3191B7D032B03D1022F1CBF0136F6B2CA
:10A55000A31901221A7506F10C02002304EB8606EA
:10A5600024F812307268A3704046C8F80020A8F89A
:10A570000430BDE8F883002114226170A01819F09E
:10A580002BFFB5F5FF7F0FD26B08ED1AADB209EBCB
:10A590000502C4F804902584A2606384C4F80C907A
:10A5A000A5842261E384C6E7B5F5EE6F4FF0FF03A3
:10A5B000EBD940F27265EAE7A00A0021074B30B5FB
:10A5C0005A7B80251C7B00230432D9B28C4200D8F0
:10A5D00030BD057001331044F7E700BFB40A002115
:10A5E00010B50621FFF778FE044AD38911799468E3
:10A5F0004343106804FB0133184410BDB40A002122
:10A6000010B5084C39B90621FFF766FEA268236829
:10A6100000FB023010BD0721FFF75EFEA28A23690E
:10A62000F6E700BFB40A002110B50C460621FFF77B
:10A6300053FE054B5A7B99680432484304FB0202DF
:10A640001868104410BD00BFB40A00212DE9F04F76
:10A65000254C85B005460E46637304339DF838706B
:10A6600053432273033323F00303A3606FB13A46CD
:10A670001621FF201AF0FEFC8046ADB115F003094B
:10A6800005D06D211920FEF7E1FFB846F5E71FFA66
:10A6900086FA25601FFA87FB2671A4F80E801FFA40
:10A6A00089F2A368924505D8A0684044704305B07C
:10A6B000BDE8F08F2568039303FB0950FFF77EFF89
:10A6C000039B6FB1E0894146227909FB00F0CDF888
:10A6D00000B003FB02001623FF2228441AF06AFC94
:10A6E00009F10109DBE700BFB40A00212DE9F743B6
:10A6F00005460C46F720052190461AF0BBFC06469D
:10A7000085B115F0030703D08F211920FEF79EFFB6
:10A71000DFF83890C9F81050A5B2A9F81400BBB200
:10A720009D4204D806FB04F003B0BDE8F083B9F8FD
:10A7300014C00523D9F81000F7223146CDF8008067
:10A7400007FB0C0001371AF035FCE8E7B40A0021DA
:10A7500038B50D460446FFF753FFFFF72FFF4DB9FD
:10A76000054BDB8933B12046FFF73AFFBDE838409F
:10A770001AF047BC38BD00BFB40A002173B51546B6
:10A78000104A01930E46DBB2117BB3FBF1F201FBE1
:10A790001231C9B2FFF748FF03780446802B0ED16F
:10A7A0002A463146043019F0A1FDBDF804209DF879
:10A7B00006300120E5702280A37002B070BD002039
:10A7C000FBE700BFB40A00210E4B07B51B7BB1FBB2
:10A7D000F3F202FB1311C9B2FFF726FF028803460A
:10A7E0000020ADF804209DF804209B7862F3070058
:10A7F0009DF8052062F30F2063F3174003B05DF866
:10A8000004FB00BFB40A00218029F0B5A1B00FD825
:10A810001A4B6E4600251F7B3446EBB299420BD88B
:10A8200000234E1EB342184615DB002021B0F0BDB8
:10A83000EC211920FEF70AFF03440135DBB2B3FB1C
:10A84000F2FC02FB1C33DBB2B3FBF7FC07FB1C334F
:10A8500006F8013BE1E701338030DBB26844E518DC
:10A860001A468A42DED215F8017B10F880CCBC452E
:10A8700002D00132D2B2F4E70120D7E7B40A0021B6
:10A88000F7B515461C46ABB9234B1B7BB1FBF3F266
:10A8900003FB1211C9B2FFF7C7FE0378802B1BBF61
:10A8A0008023041D2C8003701CBFC3782B8020469E
:10A8B00003B0F0BD1946FFF7A3FE06461AF067FC89
:10A8C000074630BBF9230DF102010DF101023046BC
:10A8D000ADF802301AF0F8FB01A9044630460197A2
:10A8E0001AF014FC20B94FF49A711920FEF7AEFE4D
:10A8F000394630461AF02FFC10B940F23511F4E712
:10A90000019B13B94FF49C71EFE7BDF802302B8027
:10A91000CDE70024CBE700BFB40A002108B5064B01
:10A92000DB8933B1FFF75CFEFF21BDE808401AF078
:10A9300056BC184608BD00BFB40A002107B5CDE9D2
:10A9400000230B4603490246081D1AF033FF03B0EB
:10A950005DF804FBCC0A002113B5064CCDE90023B9
:10A960000B46024604F1080104F10C001AF022FF24
:10A9700002B010BDCC0A0021144B012200214FF07F
:10A98000FF309A60C3F80012C3F80803C3F800153B
:10A99000C3F804259A60C3F808034FF48040C3F855
:10A9A0000015C3F8042503F5805341F6F8720849F1
:10A9B000C3F80825C1F88000BFF34F8FBFF36F8F36
:10A9C000C1F88001C3F80825704700BF00E00041CE
:10A9D00000E100E08C463822064B00B50CF8032B52
:10A9E0008E4607CBCEF80300CCF80410CCF8082034
:10A9F0005DF804FBEC0A002170B5224DE96AAC6AEF
:10AA00000B78A83403F00303032B1AD16B8E0120BB
:10AA10002A8E0343207542F400626B866B6B2A8694
:10AA20009847E96A237F013B18BF012323774B78BE
:10AA300033B1D4E92232013342F10002C4E92232B7
:10AA400070BD002BEED04B78002BEBD02A8E42F459
:10AA500000622A86AA6B002AF2D0FB2B08D895F850
:10AA60003C3063B16B6B00212020BDE8704018477B
:10AA700095F83D3043F0100385F83D3070BD01235B
:10AA80000370CFE7E00A002110B5174C14F026FB45
:10AA900013F052FE0021636B208E9847237E73B91A
:10AAA000A36A93F89E30022B1AD0236C94F83D10C1
:10AAB00094F83E009847002384F8443010BD94E891
:10AAC000070004F10C0383E807000222074904F1A0
:10AAD00019001DF064FDA36A93F89E30022BE4D1A7
:10AAE00003480CF07DFCE0E7E00A0021D5A9000155
:10AAF000040B0021034B93F8443003B97047FFF770
:10AB0000C3BF00BFE00A002138B5224D044695F8C6
:10AB100024300BB1C3070ED4012913D8EB6C2046A7
:10AB2000984778B195F83D0060B995F824305BB945
:10AB300064B9002038BD6B8E1807EDD5AB6CDB789F
:10AB4000022BE9D1012038BD002CF3D195F850201B
:10AB5000D20609D5A3B100226B8E9B070ED5AB6C34
:10AB6000DB78022BEED1E4E76A6DA96B1278C2F3B1
:10AB70000012C2F1010239B1002BEDD1002AE1D15E
:10AB8000688E0028DED138BDB5F858100029D9D11B
:10AB9000F2E700BFE00A002108B5094B93F8442012
:10ABA000022A07D1DA7A42F00102DA72BDE80840DF
:10ABB000FFF76ABF4FF40F712720FEF747FD00BF74
:10ABC000E00A0021F8B5234C0646A56A636D95F8A6
:10ABD000CC2005F1A80794F85A00E3620AB1031DDE
:10ABE000D8B2FF2895F87D1004D11EB995F87C30B5
:10ABF000994203D013F0D4FF97F824201AB3E06DE4
:10AC000014F08EFE94F82430E16D003BE06A18BF2A
:10AC1000012384F87830D7E92223C4E91C2313F0F8
:10AC200029FD3EB995F87D0010F00C0018BF2820D2
:10AC300014F0D4FE95F87C10002014F033FF0223AA
:10AC400084F84430F8BDE06A14F06AFE13F074FD35
:10AC5000E7E700BFE00A002170B57F4C002382B017
:10AC6000A56A8DF8053095F8CC2005F1A80694F872
:10AC70005A300AB10433DBB2FF2B11D180B995F8F9
:10AC80007D3095F87C108B4202D0FF2013F088FFB6
:10AC9000B37E032B00F2DA80DFE803F00520847432
:10ACA00095F87C10F1E794F8BA306C48ADF80630AE
:10ACB000A5F86C300AF0A2FC002840F09A800DF153
:10ACC00005020DF10601D4F8BC001AF0FDF9A064EC
:10ACD00020B196F86130002B00F0A280604B18463E
:10ACE000A364F37EDB0003F00802037803F0F303B0
:10ACF0001343327F920002F00402134303F0EF0289
:10AD000003F00303032B027002D1C378022B12D08D
:10AD1000D4F8BC001AF042FA48B9A06C027802F0EC
:10AD20000303032B07D00AF08FFC002871D1A06C1D
:10AD3000027842F01002027096F8233013B1437883
:10AD4000002B43D114F0ECFD13F0F6FCA66C0BF0D5
:10AD5000AFFC20B1337803F00303032B5CD095F8EC
:10AD60007D10012014F09EFEA26C01233D49108845
:10AD7000927884F8C030A4F8500084F844308A7087
:10AD800002B070BD35480AF039FC002859D0A06CDB
:10AD9000C3781B2BA5D1012105F1100013F036FF5C
:10ADA000A06C9EE7B5F86C300DF105020DF10601BF
:10ADB000D4F8BC00ADF806301AF086F9A06400287B
:10ADC0008FD140F2D5212720FEF740FCE06D14F032
:10ADD000A7FD94F82410E06DD6E92023B1FA81F69E
:10ADE000A16C7609C4E91C2384F8786013F042FC56
:10ADF000ACE7638E8020A16C43F08003626B6386B6
:10AE000090470121A06C7175C3781B2B7FF469AF4B
:10AE1000C2E7A06C02788EE7012015F015FC9EE7D2
:10AE20009DF805302BB1BDF806101DF073FBA06C2A
:10AE300057E7038001218370A06C1DF055FAA06CC8
:10AE4000F1E740F2DE212720FEF700FC40F2EB2183
:10AE50002720FEF7FBFB00BFE00A0021280B0021A2
:10AE6000680B0021300B00212DE9F041414C82B0EC
:10AE700006460F4694F84420A56A012A5FFA82F834
:10AE800005F1A80570D12B7D6BB1638E00210420E4
:10AE900043F0040329756386636B984794F8243064
:10AEA0000BB185F81680A16C0A7802F00302032A20
:10AEB00038D04B78EBB10223AB7695F8243023B32E
:10AEC000A36A93F87D1094F824300139003B18BF31
:10AED000012384F87830D5E92223C4E91C2394F8AF
:10AEE0005A2007293BD8DFE801F032093A073A3AFD
:10AEF0003A2F0123AB76E0E74FF0030800214346E9
:10AF0000012000911C4913F051FB012F05D126B9F6
:10AF100031463046FFF7F8FDE0B102B0BDE8F04140
:10AF2000FFF7B2BDAB7E63B9638E022043F002032C
:10AF30006386636B9847A16C0B7803F00303032BC4
:10AF4000B7D10323AB76B8E74FF00208D6E74FF04E
:10AF50000008D3E702B0BDE8F041FFF733BE40F28E
:10AF6000B2310620FEF772FB40F275412720FEF752
:10AF70006DFB00BFE00A0021400B00210C4B0D4A85
:10AF800070B50D4C1A6094F8443063B906460D460E
:10AF900003F0FF02012104F1880022761DF0A4F9DC
:10AFA0006665E56570BDDE212720FEF74FFB00BF1B
:10AFB0009800002190B80001E00A0021044A92F8AC
:10AFC000443003F0FF000BB9107670470C20704737
:10AFD000E00A0021024B012283F83C20704700BFA9
:10AFE000E00A00212DE9F04385B0BF4C02AD85E8B1
:10AFF000030094F844100C98002940F0E181002BE4
:10B0000018BF002A00F0DC81002800F0D98101F08F
:10B01000FF06E364206404F12403626384F83C6067
:10B0200084F83D6084F8C16084F83E6084F8C060B4
:10B030006686268695E8030083E80300A56A13F078
:10B0400019FE13F079FB95F9800005F1A80713F0BC
:10B0500033FFA86B14F048FC286A13F033FF97F80D
:10B06000340013F039FF94F82430002B00F0B18045
:10B07000042019F091FAEA6941F64B539A4294BFC1
:10B080004D20962013F028FD95F87D10012014F036
:10B090003BF9002800F0B180944B186814F02AFCAA
:10B0A0006B69C4F8BC30AB69C4F8C43095F88B3018
:10B0B00023B9D5F88410002940F0D380D7F89C300C
:10B0C000DFF82CC2D7F89000D7F89410D7F8982062
:10B0D000ACE80F00D7F8A030C4F87930D7F8A43026
:10B0E000CCF80D3094F82430002B40F08980A36A0E
:10B0F00093F8C620263A012A40F2DD8093F8C72053
:10B10000262A00F0D88093F87C80B8F1040F08BF9D
:10B110004FF0080805F14409414648461DF0F9FA88
:10B1200041461CF02CFDB5F85030024695F87D10D4
:10B130004846934228BF134684F8BA301DF0AFFA50
:10B1400095F87D1097F824900829B5F8588008BF25
:10B1500004211CF014FDB9F1000F01D1043080B2BC
:10B16000404528BF40465FFA80F884F8C8800BF05D
:10B170009FFA20B1B8F12B0F38BF4FF02B0894F88D
:10B18000241084F85A80002940F0D48097F82330A6
:10B19000002B00F0B780012395F87C60E86984F803
:10B1A0007830013ED7E92023C4E91C2341F64B53F4
:10B1B000984294BF04200020072E00F2E880DFE8C8
:10B1C00016F09A00EB00E6009900E600E600E600C3
:10B1D000ED00032019F0E0F9EA6941F64B539A4279
:10B1E00094BF4D20962013F077FC95F87C1000203A
:10B1F00014F08AF800287FF44FAF05B0BDE8F08363
:10B20000A26A92F8C630A3F1260101293AD992F830
:10B21000C700262836D0A3F121011346012900F2E8
:10B22000CB80242840F08D8092F86E3192F8751012
:10B2300092F87C800B405A0700F18A8013F00102DB
:10B2400040F0B2809B077FF565AFB8F1040F7FD067
:10B25000B8F1080F7CD0B8F1010F18BF4FF0020809
:10B2600058E7B7F84E203B8B93427FF427AFB5F8F1
:10B27000882013440122A7F84E3095F88A0015F073
:10B28000BFF91BE792F8CE3392F87C80002B3FF495
:10B2900041AFB8F1080F5BD0B8F1040F58D0082BBC
:10B2A00056D0042B54D0B8F1010F01D0012B18D186
:10B2B0004FF001082EE793F8322393F87C80002AA0
:10B2C0003FF428AFB8F1080F42D0B8F1040F3FD0D7
:10B2D000082A3DD0042A3BD0B8F1010FE8D0012A5A
:10B2E000E6D04FF0020815E7E00A0021980000219F
:10B2F000400B0021032100220B4636490092FB221D
:10B3000013F054F90120FFF7A7FC334BD3F8503565
:10B3100023F00803032B58D00023398B97F83420EF
:10B32000A360C4E900332B8861802271238005B0BB
:10B33000BDE8F08397F824306BB90120FFF742FC99
:10B34000E3E792F86E3192F87C8059077FF576AF8B
:10B350004FF00808DEE695F87D300122D7E922019A
:10B36000013B84F87820C4E91C01072B0FD8DFE8E3
:10B3700003F005170E040E0E0E19032600213346A6
:10B38000424601200091134913F010F9D5E740F22D
:10B39000B2310620FEF75AF90121ACE70221AAE7F3
:10B3A0000126EBE70226E9E7B8F1080FD0D0B8F1A3
:10B3B000040FCDD09046ADE624287FF4A4AE33E749
:10B3C00040F24F112720FEF741F940F2F9112720F2
:10B3D000FEF73CF9400B00210080004110B5194CEC
:10B3E00094F84430F3B194F8243093B194F8443095
:10B3F000022B21D1A36AD3F8080314F0C5FAA06A7E
:10B4000090F88B3003F0FF0213B9D0F8843063B9A1
:10B4100010BD94F84430012BF1D040F20E212720CA
:10B42000FEF714F9FFF730FBE9E7114690F88A00C0
:10B43000BDE8104015F0E4B840F212212720FEF7D5
:10B4400005F900BFE00A0021FFF71EBB014B18768B
:10B45000704700BFE00A0021014B93F8C00070471D
:10B46000E00A0021024B188EC0F38020704700BF15
:10B47000E00A0021014B93F8C1007047E00A002167
:10B480002DE9F0411E4F820782B00546BC6A0E4688
:10B4900004F1A80411D4EB070CD5217FD4E92232A2
:10B4A000013342F100020129C4E922320CBF00231A
:10B4B0000123237702B0BDE8F081BB6BDBB1B7F8A5
:10B4C00058201846F96A033291F8018018F00EFFEF
:10B4D0000DF1020201A9F862D7F8C40019F014FFB7
:10B4E000019819F0FBFE012230604146D7F8C400F4
:10B4F00019F0A0FECFE740F266412720FEF7A6F83C
:10B50000E00A00212DE9F047002386B0B14C064641
:10B510008DF80F300F46A56ACDE9043394F8443016
:10B52000A835022B5FFA83F840F0A381238E13F035
:10B53000400106D1636B40209847238E43F04003BF
:10B540002386002E5AD095F82430002B40F0188125
:10B55000D4F82CA09AF8011089B2A4F85810002948
:10B5600040F025810023A3639AF80000238EE97E32
:10B57000C0F3800243F480739142238600F0CC80B4
:10B58000A26A94F8241002F1A80999F81A20EAB1E5
:10B59000022A00F05481002389F81A3021B199F869
:10B5A0001620002A40F0408199F81530002B40F019
:10B5B000178199F81B30D4F82CA0012B0CBF002365
:10B5C000012389F81B30238E9AF8000043F480622F
:10B5D000C0F3C0034FF0000922862A7F9A4200F090
:10B5E000A2800BF065F8C0B19AF8003003F00303B5
:10B5F000032B12D1012015F027F80EE095F8242036
:10B60000002A40F0B98043F400734FF0000923860C
:10B6100094F8C130013384F8C13095F823305BB31E
:10B6200094F82430A26AB3FA83F392F87C105B0991
:10B63000D069013984F8783041F64B53984294BF71
:10B6400004200020D5E92023C4E91C23072900F2A7
:10B65000E380DFE811F08E000800E1008B00E100DC
:10B66000E100E1000A004FF00108002243465A4978
:10B670000092FB2212F09AFF47B994F8C110012002
:10B68000FFF742FA0746002800F09980012714F0DE
:10B6900073FA9DF80F307BBBB9F1000F08D094F816
:10B6A0002430002B59D1B4F809300133A4F8093003
:10B6B0003EB3B4F805300022013384F8C120A4F869
:10B6C000053046480BF06AFE049840B119F006FEBA
:10B6D000A16A00234372072201301CF04EFF059B34
:10B6E00033B1A16A00221A720C2205981CF045FFA2
:10B6F0006FB906B0BDE8F08705A90220FFF7C0FECC
:10B70000CAE7B4F807300133A4F80730D9E7FFF7E8
:10B71000BBF906B0BDE8F087C0F3C0032A7FB1468D
:10B720009A427FF45EAF0AF0C3FF00284AD0D4F8F3
:10B730002CA09AF8003003F00303013B012B41D801
:10B740009AF8012094F8C8309A423BD994F83D30D9
:10B7500043F0100384F83D3043E7B4F80530B4F803
:10B7600007102A8B0B431343A2D09CE74FF003082A
:10B770007BE74FF0000878E713F05CF8238E42E790
:10B7800013F01EF813F000F8D4F82CA09AF801106A
:10B7900000287FF4E1AE002943D09AF800302A7FD8
:10B7A000C3F3C0039A425ED089B2A4F85810D4F80B
:10B7B000C40019F014FDD4F82CA0A063D4E6FFF760
:10B7C0004BFA66E70DF10F00FFF716F9D4F82CA03D
:10B7D00007E700BFE00A0021400B0021040B002115
:10B7E0004FF0000A89F815A009F018FF00284AD088
:10B7F000638E5146082043F008036386636B9847C5
:10B80000D9F880300133C9F88030D9F8843043F159
:10B810000003C9F88430CCE640F2B2310620FDF7CF
:10B8200015FFA4F858109DE6194689F81630638E66
:10B83000102043F010036386636B9847B4E604A9B5
:10B84000D4F8BC0019F062FCC0B1D9F8803094F88B
:10B8500024100133C9F88030D9F8843043F1000353
:10B86000C9F8843097E6012384F83E30FFF70CF9DD
:10B870003FE74FF49D612720FDF7E8FE4FF4797113
:10B880002720FDF7E3FE40F2FB312720FDF7DEFE27
:10B8900099AB000105B5000169AE0001F5AA0001F0
:10B8A000F0B583B00023044601A8019314F002FD13
:10B8B000019B03F00303002B0BBF182522250F2645
:10B8C00019260CBF00270A2718F0D8FE38B12046E9
:10B8D0001EF0C9F870B905F18B0003B0F0BD18F087
:10B8E00029FE00280CBF3D46354620461EF0BBF819
:10B8F0000028F0D020461EF098F818B105F17F001E
:10B9000003B0F0BD20461EF094F80028F6D105F1F2
:10B910007500E2E72DE9F047002800F0DF800446DB
:10B92000082900F2CC80DFE801F092AA2525A6CAFA
:10B93000209DC600014620461DF0F6FFD4F83C319C
:10B9400000F584759D4240F2BE80E81A032140282C
:10B9500038BF402017F016FE0346C4F83C5120467D
:10B960001D461EF0A1F8002D7AD02046BDE8F04714
:10B970001EF09EB8FFF794FFB4F832310022A4F80D
:10B980004001062B84F8382184F8432100F28C8092
:10B990000133A4F8323104F59C75284616F09EFE5A
:10B9A000002800F09F8094F8583103F0FF01002B2D
:10B9B00072D16FF00043D4E954029A4208BFB0F14B
:10B9C000FF3F12D02046D4E952671DF0ADFFD4F8F6
:10B9D000503100F58470D4F854219B1B62EB0702B0
:10B9E0001B1A62F10002002A53DB294694F8100169
:10B9F00016F082FF00287FD0D4F84851D4F828717F
:10BA0000D4F84C61D4F82C81AF4278EB060327D2EE
:10BA100020461DF0D4FF50EA010381468A461FD01C
:10BA2000E81B4A46534666EB080118F0A1FB09FBE8
:10BA300001F1D4E94A3200FB0A11A9FB009013EB93
:10BA40000903014441EB0201C4E94A3108E00DF069
:10BA500083FCD4F83C01F83817F0EAFC002846D003
:10BA6000BDE8F08790F8100116F006FE002384F878
:10BA70003031BDE8F087BDE8F04714F091B81DF013
:10BA8000E0FF00283FF456AF2046BDE8F0471EF027
:10BA90000BB820460DF068FC94F8100116F0ECFD90
:10BAA000002384F83031A7E7D4F8143193B101238F
:10BAB00084F842316FE7F2213020FDF7C7FDF6210F
:10BAC0003020FDF7C3FD2046C4F83C51BDE8F047E7
:10BAD0001DF0EABF022384F842315CE7D221302016
:10BAE000FDF7B4FD40F29F613020FDF7AFFD40F25D
:10BAF00081213020FDF7AAFD40F2A3613020FDF73F
:10BB0000A5FD00BF2DE9F04F04468BB000201F4675
:10BB10000E46914694F87D5006901BF05CFC94F81C
:10BB2000F0320B2B00F2F382AF4A89F0010A94F84D
:10BB3000C78032F8133018441FFA80FBB9F1000FA8
:10BB40001BD0B4F880C304F55679B4F8C020A6EB36
:10BB50000C0CB21A0FFA8CFC12B2BCF1000FC0F23E
:10BB6000CE81BE4694F83C13032900F2DF82DFE861
:10BB700011F0410103019F003A0094F83C23032A8D
:10BB8000DFD1B8F10E0FDCD1B4F8CC23B242D8D15A
:10BB9000B4F80E132046B4F882230A44C4F83823BC
:10BBA000D4F84423C4F83023E269C4F834230EF0F7
:10BBB0005BFFD4F8D423E169914205D004F1280059
:10BBC0001EF017FFD4F8D423E261D4F8D023E26347
:10BBD000B4F8CE23A4F84020D4F8D823626202221D
:10BBE00084F83C23ADE7E06900FB0CF10691002FDF
:10BBF00040F0908194F85333002B00F048827B4B47
:10BC00001B68D4F844536FF4C572451B04F144001B
:10BC100015449D4228BF1D46D4F878335B18C4F8FC
:10BC20000853C4F86833D4F87C3343F10003C4F8F4
:10BC30006C33002384F858339723A4F860331CF046
:10BC40002CFD0544A4F88063C4F85C53D4E9DA23DE
:10BC5000C4E9DE230EF080F820B1D4F85C331E3343
:10BC6000C4F85C33B4F8F81200238E1B84F86233F6
:10BC700036B29E4202DD022384F86233B8F10E0F21
:10BC800000F0CE81002F40F0CE8194F83C33002BA1
:10BC900040F0E981494694F8840316F02DFE00280F
:10BCA00000F03082002084F850A30BB0BDE8F08F84
:10BCB000E26B5946D4F834034D4D104414F0F8FCAF
:10BCC0005946C4F84003E06914F0F2FC41F64B53C6
:10BCD000E26994F87DB09A4298BF0230C4F84403F8
:10BCE000584614F0CFF94DF641711BF00C0F01448A
:10BCF0002046A5FB013114BF2823002303EB91113B
:10BD000080311CF063FDB4F80E3313B9002F40F0FE
:10BD1000C181D4F83433E26B1A44D4F84033D21AD8
:10BD20000692D4F83023D4F83813B4F840B001FBAD
:10BD3000023394F87D20303312F00C0F0BEB430BE1
:10BD400040F059814AF2A1351046039214F09AF955
:10BD5000274B0544039AA3FB0535AD09104614F0A3
:10BD600089F90BEB0503214A03440699E069136046
:10BD7000012284F83C2344E7B4F80E33D4F844138A
:10BD80001A44D4F84033D4F8380303F1300BE36994
:10BD90005B1A0CFB03F30693C3431344D4F830231C
:10BDA00002FB00BB01FB03B2B4F840B00BEB420B4B
:10BDB00094F87D2012F00C0F40F022814AF2A13558
:10BDC0001046039214F05EF9094B0544039AA3FB55
:10BDD0000535AD095D44104614F04CF9034A2B18A3
:10BDE0000699136089E000BF54650301AC0B002184
:10BDF000D34D621094F87D1094F806031BF0E8FE12
:10BE00000546E06B5946284414F052FC5946C4F8E4
:10BE10004003E06914F04CFCE26941F64B5307A97A
:10BE20009A4298BF0230C4F8440308A813F0ACFE4D
:10BE3000079B0093DDE90823D4E9DE0117F02AFE11
:10BE400094F87DB00390584614F01CF94DF64171FA
:10BE50001BF00C0FB84B0144A3FB010114BF2823B6
:10BE60000023204603EB911180311CF0AFFCD4F885
:10BE7000883394F87D00D4F83CB0069314F002F9AE
:10BE80004AF2A133AC4AC318A2FB0301069BD4F8C3
:10BE90004003203B039A5B44B4F840B01B1A0BF1FB
:10BEA000220B2B4400F130059B1A6D00A3EB91137C
:10BEB000069394F87D3013F00C0F40F09E801846E6
:10BEC000049314F0DFF800F523409B4AA130A2FB55
:10BED000003083090393049B18465D4414F0CAF8AC
:10BEE000039B0699D4F888231D448A1A2B1893487B
:10BEF000B2F5F97F036040F20F81E06981E600212D
:10BF000094464FF0010E84F85313D4E9DC01C4E9E0
:10BF1000DE0127E6B4F80E33002B7FF46BAE84F815
:10BF20005333D4F8440300FB1C1194F8C6C0BCF191
:10BF3000260F069166D094F8C7C0BCF1260F61D0D9
:10BF4000BEF1000F32D08BBBD4F88C33002B00F045
:10BF5000E88094F87D0010F00C0F40F0D080CDE91F
:10BF6000031214F08FF84AF2A13303447248A0FB85
:10BF7000033BD4F88C3394F87D004FEA9B1BDDE93A
:10BF800003120BF1100B0391CDE9043214F072F897
:10BF90000399049B1039059A1944B4F80E33A1EBA8
:10BFA0000B0BABEB00000690D4F8440303EB020B41
:10BFB00015F00C0F00FB0BFB0BF1300B4FEA4B0B9A
:10BFC00063D1284614F05EF84AF2A1335A4A03447A
:10BFD000A2FB03239B092846039314F04BF8039B11
:10BFE00041F64B52554D0344E0695B4490422B604F
:10BFF0007AD9069905E66525B0E6652203926BE7D6
:10C000006525E7E6B4F8CCC3A6EB0C0C1CF4004F96
:10C0100096D194F8CFC3BCF1000F18BF65468FE7E7
:10C02000002F3FF437AEB4F82423CAB1B4F8260386
:10C0300094F8281300FB011101308A427FF72AAEE1
:10C04000002B3FF427AE0023A4F8260384F86233C4
:10C050000AF034FB00F00700013084F8280319E6E9
:10C06000A4F8262316E6D4F844334846E169C91AF1
:10C070001BF054FD83B2002B3FF40CAE149A012048
:10C08000002A3FF412AE13800FE66523A3E7B4F84D
:10C090000E3346E7D4F83433E26B03EB020B94F82B
:10C0A0007D201046039213F0EDFF039A0346ABF197
:10C0B000200B1046D4F88C2304939344D4F84023E7
:10C0C000039213F0D7FF039A049BABEB020B4AF2E7
:10C0D000A1321A44ABEB000BA5FB0235D4F8403378
:10C0E000ABEB951506951CE6594606AB2A461BF0A8
:10C0F0008DFD2B6884F853030699E06981E54FF0C4
:10C10000750B40E740F2A3513020FDF79FFA4FF442
:10C1100052710620FDF79AFA40F2F2413020FDF705
:10C1200095FA40F244513020FDF790FA40F259510F
:10C130003020FDF78BFA00BFD34D6210AC0B00210D
:10C140002DE9F04385B0002800F05B810446082902
:10C1500000F23E81DFE811F08900EA0009000900E1
:10C1600071003C0176007E00380114F047FAD4E9F2
:10C17000DC23801A61EB0301012871F10003C0F296
:10C180004E816FF00102002382428B41C0F2428156
:10C19000E3690BB1B0FBF3F394F8C7200E2A00F06B
:10C1A0000C81B4F8C010B4F84E230B449BB2D11AE2
:10C1B000090454BF531C01339BB2A4F84E3394F8C6
:10C1C0005133B4F84E1323B9B4F8FC328B4200F06B
:10C1D0000B81B4F8C030B4F8FC50B4F8FA002B442A
:10C1E000B4F88223013B01321B1AA4F882239EB2C9
:10C1F000731A1A0400F1B5800DF10E0500232046D4
:10C2000000951A46FFF77EFC002840F09480D4F891
:10C2100084303BB3B4F8F620B4F84E339B1A1BB20B
:10C22000002B1FDDB4F888100B44013BB3FBF1F386
:10C2300003FB0123A4F8F63014E005B0BDE8F04399
:10C2400013F0AEBC012014F0FFF905B0BDE8F043D7
:10C25000FFF7FAB890F83C33042B40F0E580002358
:10C2600080F83C3305B0BDE8F083002290F85033ED
:10C27000C0F88C23002B00F08F80B0F84E33B0F85C
:10C28000C020934200F0B5809A1AA0F8C030A0F800
:10C29000FE222046D4E9DA23C4E9DC230EF0C4FAF6
:10C2A00094F80333002BDDD094F87D3040F2E9128E
:10C2B000E56940F2112813F00C0FD4F84433DFF88D
:10C2C000709108BF90469D4288BFED1A99F80430DE
:10C2D00098BF0025002B7FD0D4F8087304F14400E8
:10C2E0001CF0DBF90744022017F0FCF80221ED1BDB
:10C2F00025EAE575854228BF0546284617F042F92C
:10C3000000B92F444246394620461CF047FAE269FC
:10C31000D4F80833C9F80800D01817F089F80028B5
:10C32000A0D140F2AA313020FDF790F905B0BDE868
:10C33000F0431DF065BD012867D1B4F84E13B4F881
:10C34000F8228B1A13F4004FBDF80E30194489B24D
:10C35000A6EB01032CD11BB2A4F84E13002BBFF6A1
:10C360004DAF94F8CA3004F1E0003249002B0CBF05
:10C370003E23082384F8E9301CF00BF920461DF019
:10C3800041FD002394F8840384F83C3316F074F9DB
:10C39000202384F8843365E7B0F84C33B0F8C0103C
:10C3A000B0F84C235B1AA0F8C020A0F8FE3270E76A
:10C3B0001B0416D4A4F84E1320E7B4F84E13013131
:10C3C00089B2A4F84E1304E7C6213020FDF73EF9E8
:10C3D000CA213020FDF73AF9636C9D4228BF1D4603
:10C3E0007AE7B31A1146B6E7013189B2A4F84E13C1
:10C3F000EFE6B0F8FC22D31AA0F8C020A0F8FE3275
:10C4000047E79C213020FDF721F94FF4CC61302023
:10C41000FDF71CF940F221613020FDF717F94FF4C8
:10C42000C4613020FDF712F9C0213020FDF70EF96C
:10C43000AC0B0021E16D01012DE9F0470026054616
:10C44000012782B080F818618A46D0F81401394675
:10C45000D5E9528980F8062385F8306185F8317175
:10C4600009F03EFDD5F81441324631462046C4E974
:10C47000DC8995F81031C4F888A384F884333346F6
:10C4800084F83C63A4F88063C4E9DE890096FFF772
:10C4900039FBC8B984F83C73C4F83803C4F83003D6
:10C4A000A4F84E03A4F84C0384F85103B4F8C03048
:10C4B000A4F88203013BA4F8C03012F0A9FE02B038
:10C4C000BDE8F04715F002BF40F221213020FDF712
:10C4D000BDF800BFD0F81401704700BF2DE9F0434C
:10C4E000002385B003220126CDE900338DF8062014
:10C4F0006846FDF7D1FE044620BB009D95F830311B
:10C50000002BF5D00121284685F858611DF0D2FA9C
:10C5100095F83031002BEBD095F8100116F00AFD9C
:10C5200095F8100117F056F995F8100116F0A4F8D7
:10C5300000283CD085F830416846FDF7ADFE044642
:10C540000028DAD0DFF87C800123002502264FF690
:10C55000FF7788F80C301AE0029BE3B193F884234C
:10C56000202A18D01888B8421BD00221FDF75AFEA5
:10C57000814608B390F8840317F02CF999F88403E6
:10C5800089F83C4316F078F8202389F88433CDE904
:10C5900002558DF80E6002A8FDF77EFE04460028C5
:10C5A000DAD0002088F80C0005B0BDE8F08340F236
:10C5B0000D213020FDF74AF840F229113020FDF717
:10C5C00045F800BFAC0B0021044B002242F2107171
:10C5D0001A71D9811A73FFF781BF00BFAC0B00211C
:10C5E00090F83031002B40F0A6802DE9F041044650
:10C5F0000F4601465748154603F0FF0816F010F89D
:10C60000202806466ED04146502204F5887017F067
:10C61000E3FE012384F81061C4F8147184F830310A
:10C6200037B10AF063F800F00700013087F82803FB
:10C6300020460027FFF734F9022384F83871A4F864
:10C640004001A4F8423114F063F8B4F84061BC36FC
:10C6500006442046B6B21DF0F4F9002845D01AF081
:10C66000BAFE00F5CD6128464FF0010889B214F0FA
:10C670001FF82844C4F83C0113F0C0FF3018E784C9
:10C6800041F10001C4F8480184F818812046C4F83B
:10C690004C111DF0ECF9002844D0A5F20455414698
:10C6A00020461DF041F92D1AC4F81C514FF0FF32FD
:10C6B0006FF00043C4E9542304F59C7194F8100111
:10C6C00016F01AF9002840D000252046D4E952235C
:10C6D0002946A4F83251C4E94A231DF0EBF9284653
:10C6E000BDE8F0810C20BDE8F081014620461DF038
:10C6F0001BF9194F00F58470C4F83C01F88908B1A2
:10C70000E08CD0B9064413F079FF361841F10001EE
:10C71000C4E95261002DC9D0AE1941F10001C4E94C
:10C720005461C9E7A5F5847540461DF0A5FA2D1A98
:10C73000C4F81C51BAE70C20704709F0D7FFFB89F9
:10C74000B0FBF3F202FB1300DCE740F2EF11302004
:10C75000FCF77CFF15B90001AC0B002190F83031DB
:10C760000BB900207047012110B5044680F858111C
:10C770001DF0A0F994F830310BB9002010BD94F8E9
:10C78000100116F0D7FB94F8100117F023F894F875
:10C79000100115F071FF20B10023002084F8303122
:10C7A00010BD40F20D213020FCF750FF014B1871F5
:10C7B000704700BFAC0B002190F8582182B910B52A
:10C7C00002F0FF0490F8182112B90122104610BDA2
:10C7D000D0E947319942F9D90CF0C6FD2246F5E778
:10C7E00000221046704700BF10B5044612F0B8F999
:10C7F000074B9A68824208D3E16941F64B52914255
:10C8000003D9187B80F0010010BD002010BD00BFCF
:10C81000AC0B002140F22F2108B51BF0EAFFB0F568
:10C82000296F28BF4FF4296080B208BD90F8033308
:10C83000002B65D170B503F0FF0590F83C3384B050
:10C840000446032B01D004B070BD13F0D7FED4E929
:10C85000DC23801A61EB0301012871F10003F2DB94
:10C860006FF00103834275EB01034CDBE369B4F81D
:10C87000C020002B45D0B0FBF3F080B20132B4F8F9
:10C88000FC32104480B2A4F84C03B4F84C239B1A39
:10C890001BB2002BD7DD94F8840316F04BFB002865
:10C8A000D1D0FF2384F85133B4F8C050B4F8FC1051
:10C8B000B4F8FA200D44B4F84C33013DAD1AADB2D2
:10C8C000EB1A1A04BFD40DF10E06B4F84C13002372
:10C8D0000122204689B20096FFF714F90028B2D051
:10C8E000012815D1B4F84C33BDF80E2013449BB287
:10C8F000A4F84C33B4F84C33EB1A1B04E5D5A2E78B
:10C9000070471846BAE740F2D7513020FCF79EFE38
:10C910004FF4C2613020FCF799FE00BF30B50446E9
:10C9200083B005294ED8DFE801F03A1503131A2029
:10C93000042384F83C3312F06BFC15F0C7FC002391
:10C94000B4F8C020A4F88233A4F84E2384F85133FD
:10C9500003B030BD032380F83C3303B030BD12F088
:10C96000F9F8C4F88C0303B030BD90F87D50284628
:10C9700013F088FB4DF64171034615F00C0F144A75
:10C980002046194414BF28230023A2FB012103EBF6
:10C990009111803103B0BDE830401BF017BF0D4B43
:10C9A0001B7B03F0FF02002BC2D1B0F8FC12012365
:10C9B0000092FFF7A7F80028BDD040F2DA613020DE
:10C9C000FCF744FE40F26E713020FCF73FFE00BFE2
:10C9D000D34D6210AC0B0021012A70B5064609D078
:10C9E000022A14460D461ED04AB14FF4F36130209E
:10C9F000FCF72CFE12F0B4F8C6F8880370BD12F0F4
:10CA0000AFF8224601462846FFF716FD32460F4989
:10CA100095F8100113F0E2FD0028EFD140F281718A
:10CA20003020FCF713FED0F8881301222846FFF7C8
:10CA300003FD3246054995F8100113F0CFFD00289B
:10CA4000DCD140F292713020FCF700FE41C10001C0
:10CA5000F8B5044651B1012966D1002380F8183198
:10CA600012F0D6FBBDE8F84015F030BCC58C002DA7
:10CA700052D12046D4E94A761CF0A1FF40194FF06C
:10CA800002034FF0000241F10001C019A4F8423145
:10CA900046EB0106C4F8480184F838212046C4F862
:10CAA0004C61FEF7FDFE94F85831A4F8400103F004
:10CAB000FF01D4E95256C4E94A567BB96FF00043EE
:10CAC000D4E954029A4208BFB0F1FF3F0FD104F5F8
:10CAD0009C7194F8100115F00FFF50B30023A4F8D7
:10CAE000323112F095FBBDE8F84015F0EFBB20465F
:10CAF0001CF01AFFD4F8503100F58470D4F854219A
:10CB00005B1B62EB06021B1A62F10002002ADEDAEE
:10CB100020460CF029FCE1E709F0D0FDE58CB0FBE4
:10CB2000F5F303FB1505A4E74FF4F5613020FCF79E
:10CB30008DFD40F2FA613020FCF788FDD0E9DC126F
:10CB4000D0F88C3370B590F87D605C18304642F1B7
:10CB5000000513F08FFA074A074902EB8602936932
:10CB600003F2E733A1FB032300EB9310201A65F1D6
:10CB7000000170BD54650301D34D621090F830017F
:10CB8000704700BF014BD881704700BFAC0B00213C
:10CB900006220B4603F8032BB0F809C0C27AA1F8AD
:10CBA00003C09A70704700BF18230B70704700BF16
:10CBB0004FF42B71322008B5FCF748FDF8B500287A
:10CBC00051D0437A04460D46478993B30021384635
:10CBD000FDF728FB064600284AD0008808F0CEFC66
:10CBE00000213088FDF734FB002846D113222B4664
:10CBF00004F1290E03F8032B04F10902D2F800C056
:10CC0000103252F80C6C103352F8080C52F8041C15
:10CC1000724543F810CC43F80C6C43F8080C43F809
:10CC2000041CEBD112781A700023AB71637A8BB1BC
:10CC3000F8BDC36CD0F80E20C3F80320428AA3F8D5
:10CC40000720427BC36C12F0FD0F14BF01220022AB
:10CC50009A70CBE708F0F8FA4B04E9D53846BDE8FE
:10CC6000F84005F0EBBF40F2EA213220FCF7EEFC81
:10CC700040F2F6213220FCF7E9FC40F2FA213220A2
:10CC8000FCF7E4FC044B00221B68A3F8B22083F8F5
:10CC9000B42083F870207047BC0B002108B509F060
:10CCA000E3F9034B187012F019FA032008BD00BF16
:10CCB0001000002108B509F0D7F9024B0246012007
:10CCC0001A7008BD1000002138B50D4D2C6894F87D
:10CCD000853063B900230121204684F87010A4F840
:10CCE000B23084F8B430BDE8384005F081B812F0B5
:10CCF000BFFE11F0C7FB002384F885302C68E9E7FC
:10CD0000BC0B002110B50D4C236893F85030032B59
:10CD10000BD1606860B112F003FE002012F05EFEDD
:10CD20002368042283F8702010BD02F099FFF1E718
:10CD300040F2F2413220FCF789FC00BFBC0B00211D
:10CD400038B5204D2B6893F87020022A35D8027C24
:10CD5000044683F880201A44C168596792F8B520C8
:10CD600083F8B1204268DA67037A022B02D1637C30
:10CD7000CBB938BD11F07EFF12F07AFE11F082FBC4
:10CD8000114812F0B7FD114812F0AEFD104812F034
:10CD900099F82B6893F868305BB9012017F0FCFB19
:10CDA000637C002BE5D02868BDE8384060301AF07D
:10CDB000B4BD022017F0F0FBD9E740F6D5013220D0
:10CDC000FCF744FCBC0B00214801002155555500DF
:10CDD000D6BE898E70B5404C0646236893F8702005
:10CDE000032A25D093F87020042A21D093F85020EC
:10CDF000032A4CD16568002D4FD066BB93F8702094
:10CE0000022A54D993F87020082A55D893F8701044
:10CE1000A268324B52690B4452F8233098470C28D1
:10CE200040D8A368DB68BDE8704053F8203018474D
:10CE300093F85020032ADDD002F012FF054665B3B7
:10CE4000236893F85020013A022AD6D941F246319C
:10CE50003220FCF7FBFB28461BF00FFA18B92846D6
:10CE60001BF026FAB8B1236893F87020022A2DD956
:10CE700093F87020082A24D893F870102846A268E6
:10CE8000164B12690B4452F823309847C7E702F05B
:10CE90001BFF0546D3E72368B0E74FF49A513220D1
:10CEA000FCF7D4FB41F25B313220FCF7CFFB41F2BF
:10CEB00026313220FCF7CAFB41F227313220FCF741
:10CEC000C5FB41F2C7213220FCF7C0FB41F2C6216D
:10CED0003220FCF7BBFB00BFBC0B0021FDFFFF3F76
:10CEE00038B5144C236893F85030032B18D165687B
:10CEF000D5B12368FF2093F8B11011F051FE2846F8
:10CF000012F00EFD236893F8B10010F00C0018BF6A
:10CF1000282012F063FD2368072283F8702038BDB3
:10CF200002F0D2FE0546E3E740F217513220FCF74B
:10CF30008DFB00BFBC0B0021F0B5524C00220E4609
:10CF40000546236841F2707083B0D96C5A72CA6981
:10CF5000B1F800C0A3F80AC0A2F57A7C844540F27B
:10CF600083804948A0FB0202C2F38F221A848A8C74
:10CF70005A84CA8C9A844FF47F42DA844FF6FF7247
:10CF80001A85002D66D0012130461BF098F83278C2
:10CF9000D209236893F8861009B1002A38D193F892
:10CFA000820000210828596119833ED003F10E0246
:10CFB00003F10D0108F0D4FD00285DD023685A7BF1
:10CFC00003F11A0742F002025A73002D3CD103F11B
:10CFD000930002683A608288BA8093F95410D86C42
:10CFE00009F026F82068022228491BF0C6FA2368B7
:10CFF00002222749D86C0488A3F8334090F8CE4029
:10D0000003F12A0083F835401BF0C9FA03B0F0BDE4
:10D01000427902F0C002402AC1D102685A61828876
:10D0200093F882001A830828C0D193F89A10D3F895
:10D030009320B3F8970059730021C3F80E2058824B
:10D04000C3F81A10D983C8E7002130461BF037F81F
:10D050002368BEE7606869461AF0E4FE63686846C4
:10D060001A78C2F3801294E70A48A0FB02029209E0
:10D0700002F5506292B279E741F291313220FCF729
:10D08000E5FA00BFBC0B00215917B7D1BDCB000199
:10D0900091CB0001D34D621038B50F4D2C6894F838
:10D0A00085307BB900206968A4F8B20084F8B40028
:10D0B00084F87000FFF740FF28680221BDE838407F
:10D0C00004F0C6BE12F0D4FC11F0DCF9002384F8A1
:10D0D00085302C68E6E700BFBC0B002108B508F0DE
:10D0E000C3FF034B187003F0E3F8012008BD00BF35
:10D0F00010000021034A0223106880F8703004F009
:10D1000009BD00BFBC0B002140F24331322008B5FD
:10D11000FCF79CFA30B504788DB004F00F0402A936
:10D12000224603F0CDFA11F0D9FF08F09DFF214B04
:10D13000042C187002D003200DB030BD1E490546E6
:10D14000039A0968147891F893008442F3D15478D3
:10D1500091F894008442EED1947891F8950084423D
:10D16000E9D1D47891F896008442E4D1147991F809
:10D1700097008442DFD1507991F898209042DAD11B
:10D180009DF8190091F89A209042D4D17F2D0ED0AD
:10D190007F2202A81A7091F8993091F8A82091F88E
:10D1A0008210009503F09AF903200DB030BDFFF70F
:10D1B000ABFF00BF10000021BC0B00212DE9F047A0
:10D1C000044684B006290CD8DFE801F06D22110B6B
:10D1D0000B0B0400BA4D2A6892F88B30002B40F0FC
:10D1E000898011F07BFF032004B0BDE8F08711F0C7
:10D1F00075FFB34B1A6892F88B302BB192F8503010
:10D20000013B012B40F2E580032004B0BDE8F0872C
:10D21000DFF8AC82867CD8F80010012E91F8865099
:10D2200091F88BA085F0010500F08380002691F82D
:10D2300050303746032B00F0C28091F88190B9F14D
:10D24000080F40F0AB8091F8419000274846032B2F
:10D2500077D1636891F857201E78964200F0548188
:10D26000002691F88130082B04D091F884209A424E
:10D2700008BF0126002F40F0AA80002D40F0E58075
:10D28000BAF1000FADD0D8F8003093F85230012B2E
:10D2900003D0002BA5D1002EA3D0002DA1D00A20B1
:10D2A00004B0BDE8F087864D2A6892F88B30002BD9
:10D2B00097D092F85030022B00F0E880012B00F05C
:10D2C0005781032B40F07081436892F8571018780B
:10D2D000884200F0958092F85230012BDFD092F80E
:10D2E0008430082B3FF47DAF92F881209A427FF47E
:10D2F00078AFD4E792F85030022B00F0AD80012BCC
:10D300007FF46FAF6F4991F900307F2B00F04A81B5
:10D3100002937F2592F89900FF2342320190204624
:10D3200092F840400D700621009403F00DF80320A0
:10D330005AE783685B7903F0C003402B7FF476AF34
:10D3400075E711F0CBFEBAF1000F3FF45DAFD8F8EE
:10D350000000A36800F14201A27C90F841001AF09D
:10D36000E6FA17B9002800F0AF80564D95F9003065
:10D370007F2B00F01781D8F80020204602937F24ED
:10D3800092F899104B464232019192F84010009168
:10D3900001212C7002F0D8FF032025E7484608F051
:10D3A000EDFA002818BF0546002F40F0D280D8F8CB
:10D3B000001091F8419091F85030484647E791F8B5
:10D3C0004920002A3FF439AF91F8849037E70125CE
:10D3D00056E73C4991F900307F2B00F0E38002933F
:10D3E0007F2592F89900FF2342320190204692F85F
:10D3F00040400D700221009402F0A6FF0320F3E6E6
:10D40000587892F8581088427FF465AF987892F86F
:10D41000591088427FF45FAFD87892F85A1088424A
:10D420007FF459AF187992F85B1088427FF453AFBC
:10D43000597992F85C3099427FF44DAF617C92F853
:10D44000563099427FF447AF29E74231A368A27C66
:10D450001AF06DFA054613E71A4991F900307F2B4F
:10D4600000F0A08002937F2492F899304232019319
:10D4700092F840300093FF230C70062102F064FF05
:10D480002B680022092083F8A820ADE60D4991F908
:10D4900000307F2B00F0868002937F2492F8993031
:10D4A0004232019392F840300093FF230C70002128
:10D4B00002F04AFF2B680122092083F8A82093E696
:10D4C000BC0B002110000021D8F8002092F8513048
:10D4D000023B012B3FF698AE002E3FF495AE354946
:10D4E00091F900307F2B5DD002937F2592F899004F
:10D4F000FE2342320190204692F840400D700121F7
:10D50000009402F021FF7FE65E7891F85820964261
:10D510007FF4A6AE9E7891F8592096427FF4A0AE93
:10D52000DE7891F85A2096427FF49AAE1E7991F8EF
:10D530005B2096427FF494AE5A7991F85C309A421F
:10D540007FF48EAE667C91F85630F31A5E425E41EF
:10D5500087E6A168484608F01BFCD8F8001007468B
:10D5600091F84100D7B140F0020991F850306EE6D1
:10D57000104991F900307F2B14D002937F2592F847
:10D580009900FF2342320190204692F840400D70EE
:10D590000021009402F0D8FE032025E691F85030D7
:10D5A000814654E6FFF7B0FD40F6F5413220FCF726
:10D5B0004DF800BF10000021164B30B593F9004024
:10D5C00085B07F2C24D07F221A70134B1A6892F8F2
:10D5D0007030032B15D092F87030062B0CBF03254A
:10D5E000012592F8B1304232CDE9024592F840402F
:10D5F000019492F85740009402F08AFB18B905B0E4
:10D6000030BD0025EDE705B0BDE8304002F01EBE9C
:10D61000FFF77AFD10000021BC0B00210F4A1368B0
:10D6200010B593F8701002290ED993F870100829DC
:10D630000FD893F870109268094B92680B44BDE8BC
:10D64000104052F82330184741F23D413220FBF799
:10D65000FDFF41F23E413220FBF7F8FFBC0B0021F9
:10D66000FDFFFF3FF8B5334C0546236893F8B4201F
:10D670005F2A3AD85109304A565C93F8B200C0F399
:10D68000050700F03F0011F027FC236893F95400D0
:10D6900083F8997011F010FCFDB123683246012027
:10D6A000596F11F091FF00283ED02368314693F85E
:10D6B0009230022B0CBF4020FF2011F071FA256838
:10D6C00095F85030032B12D195F8A8306768B3B1A4
:10D6D000384612F025F90120F8BD324673210120A9
:10D6E00011F072FF0028E0D1F6E70026C5E702F04E
:10D6F000EBFA2568074695F8A830002BE8D1781D8D
:10D7000008F074FA236885F8850093F88530002BBB
:10D71000DED016F00C0F14BF5524502410F096FEE6
:10D72000204612F099F9D3E740F2EB713220FBF773
:10D730008DFF00BFBC0B002190650301F8B53A4E88
:10D740000546336893F8B4205F2A1FD85109374A39
:10D75000575C5A6F2AB10120FFF784FF00285DD083
:10D760003368D86F12F010F9346894F85030022BF7
:10D7700033D0032B0CD0F5B140F20113A4F8A9303B
:10D78000002384F8B17084F88930F8BD0027E0E701
:10D7900094F89230012BEED117F00C0F2CD094F8A6
:10D7A0005530012B14BF39460421002012F07AF9BC
:10D7B0003468002DE0D194F89230022B14D0012B64
:10D7C0001CD0002BDCD102F023FF84F8A90002F06A
:10D7D00005FA84F8AA003468D2E794F89230022B54
:10D7E000DAD0002DC8D1EAE70023A4F8A95084F8C4
:10D7F000B17084F88930F8BD3946D6E794F8B13075
:10D800004FF00002A3F10203B3FA83F35B0963F361
:10D81000070263F30F22A4F8A920B1E740F2B44154
:10D820003220FBF713FF00BFBC0B00219065030102
:10D8300038B505460C4607F00DFD420704D4A37821
:10D8400003F0E003402B0DD007F004FD830704D460
:10D85000A37803F0E003202B04D0237803F03F03E8
:10D86000242B01D9002038BD11F056F994F900306D
:10D8700094F802C0002B62780CF01F03ACBF1E218D
:10D880004FF4967142EA032301FB03F31A1AB2F52F
:10D89000877FE7D39842E5D8054A29462388106850
:10D8A000A0F8B23080F8B4C0BDE8384004F0C8B881
:10D8B000BC0B0021F0B52B4D85B02A6892F88B3057
:10D8C0005BB392F8A830044633B90378002B0CBF41
:10D8D0000123022382F8A83092F87030062BD8B2C8
:10D8E00030D0072814BF012702271F4890F9006095
:10D8F0007F2E35D092F8B1304232CDE9026792F8EE
:10D900004060019692F8576000967F260670204688
:10D9100002F0FEF928B9022F16D10024204605B0E6
:10D92000F0BD607810F0100014D0A1690220FFF75C
:10D930007FFF044640B12B68002283F8922011F04B
:10D94000CDFBEBE70327D0E7002402F0B1FC204633
:10D9500005B0F0BD044602F079FC204605B0F0BDEC
:10D96000FFF7D2FBBC0B00211000002110B50446CC
:10D970008AB008F079FB194A2378107003F00F037E
:10D98000072B02D001200AB010BD2046694602F0E4
:10D9900035FF00229DF800300292002BF2D19DF855
:10D9A0000130DB07EED50E4C019922689DF811007D
:10D9B00002F1930392F89A2019F0B9FF0028E1D000
:10D9C000206801218E3019F0D5FCFF216846FFF751
:10D9D00071FF0028D6D00220D5E700BF100000213B
:10D9E000BC0B00212DE9F04304468BB008F03CFB52
:10D9F000454A2378107003F00F03082B04D001254B
:10DA000028460BB0BDE8F0836946204602F08CFE44
:10DA10009DF80050002DF2D19DF8013003F0030372
:10DA2000032BECD1394F3E6896F84930002B39D0A2
:10DA300096F8849096F88530002B36D14FF0000888
:10DA400006F1930396F89A2001999DF8110019F0B8
:10DA50006EFF10B9B8F1000FD1D096F886203E685D
:10DA600096F841804236002A3CD19DF81200029976
:10DA7000012827D03346424619F059FF0028BED06E
:10DA8000386801218E3019F075FC3E6896F88530B3
:10DA90008BBB21460120FFF74FFA0221386804F0C2
:10DAA000D7F9ADE796F88190C4E719F084FF08280C
:10DAB000C4D0A0EB090886F88200B8FA88F84FEACB
:10DAC0005818BDE74B7903F0C003402BD2D1334641
:10DAD000424619F02CFF0028D2D10299484608F09E
:10DAE00057F9CBE7484608F08DF90028BDD0064627
:10DAF0004FF00108B9E711F0BBFF10F0C3FC0023A1
:10DB000086F88530C5E700BF10000021BC0B00215E
:10DB100007292DE9F0470D4686B00446174653D134
:10DB20004068002808BF002A0CBF0126002600F02C
:10DB30008180002800F0D380637C012B00F0AB8053
:10DB4000DFF81C82D8F8006096F8810008284AD0D7
:10DB50000DF10F0104AA08F003F8002800F0F78087
:10DB600004A99DF80F001BF038FB0646D8F80030DA
:10DB7000062D93F849A058D8BAF1000F18BF5646A1
:10DB8000994683F88B60774B1B6833B13946204642
:10DB9000984789F88C00D8F80090636843B1627C9C
:10DBA00089F89A201A68C9F893209B88A9F89730B9
:10DBB00099F88C30002B00F0CF80072DA06800D1A1
:10DBC00028BB06B0BDE8F0874668002E00F08480D0
:10DBD000437C012B43D0DFF88881D8F8003093F8DC
:10DBE00081000828B4D16168607C1BF0F6FAD8F88F
:10DBF0000020064661688132607C07F0E7FE03463C
:10DC00000028B3D1D8F80090A9F88B00D5E799F88F
:10DC100081100829D5D0002BD3D007F0D7FFD8F832
:10DC20000030012283F88A20CBE7082D7BD9994662
:10DC30000026A6E74A4C0125236883F88B5093F809
:10DC4000AB30002BBDD02368D3F8AC0050301CF0B3
:10DC50004CFB0028B5D1236883F88C50B1E7737969
:10DC600003F0C003402BB6D1DFF8F480D8F8006091
:10DC700096F88530002B3FF467AF19F09CFED8F87A
:10DC8000003086F88100012293F8810083F8892012
:10DC900083F882005AE7437903F0C003402B7FF4F6
:10DCA0004FAFDFF8BC80D8F8006096F88530002BC5
:10DCB0003FF44AAF002FDDD196F8B1100129DCD135
:10DCC00007F066FF86F88500D8F8006096F8853082
:10DCD000002B3FF439AFD0E7DFF8848046E7DFF868
:10DCE0008080D8F8003093F849A017B393F88B20C0
:10DCF000B2B16268002A7FF43FAF019302F088FC62
:10DD0000019B30B1D8F8009099F88B60002E7FF419
:10DD100038AFBAF1000F12D05646D8F8009030E76D
:10DD2000164699462DE7002FE0D16268002A7FF45D
:10DD300023AF6278D206E0D59946012621E7019308
:10DD400007F03EFED8F800900646019B19E740F622
:10DD500051313220FBF77AFC99F88B302DE700BF68
:10DD6000BC0B00219C0000212DE9F04FDFF8FCA046
:10DD700083B0847C0546DAF800708946012C93460E
:10DD800097F88660984686F0010637D0002497F809
:10DD90008530224603B397F85030032B35D06B689B
:10DDA0001BB397F88170082F25D03846019207F0F1
:10DDB000E5FD019A002818BF0646EAB1DAF80030FE
:10DDC00093F88A30002B46D019F0FFFDDAF80020D6
:10DDD0000021034682F88A108BF8003089F8004051
:10DDE00088F8006003B0BDE8F08F019202F010FCEB
:10DDF000019A002835D17AB90023EDE783685B7971
:10DE000003F0C003402BC1D1C1E797F84930002B84
:10DE1000C5D097F88470C6E7DAF8003093F88970B7
:10DE2000002FE9D1A8683946019307F0B1FE019BA4
:10DE300083F88500DAF8003093F88530002BCBD0DA
:10DE4000019319F0B8FD08280ED0DAF80020019BE4
:10DE500082F88100C0E7A968384607F099FF0346B9
:10DE6000BAE7DAF800709CE73B46B5E7BC0B002147
:10DE700008B508F0F9F8024B024601201A7008BDF7
:10DE8000100000212DE9F0416A4C002205460F46A2
:10DE90006368D4F8008018461A8011F041FD032D04
:10DEA00030D0052D4AD0606808F1930119F0C1FF08
:10DEB00098F89A10606819F0D0FF236893F88620CC
:10DEC00003F1420693F8417052B193F85020032AAF
:10DED0002DD093F8810007F095FF08B10646012781
:10DEE0003146606819F097FF3946606819F0A8FF5D
:10DEF000514BD3F80431002B40F09680052D0BD008
:10DF0000BDE8F0816068037823F00F0343F003035A
:10DF100003700C234370C7E723683168DA6CC2F8DA
:10DF20000A10B188D181DB6C5F72BDE8F08193F893
:10DF30004920002ACDD093F88400CCE7D4E900062C
:10DF400022233178737021F02F0141EA471141F00B
:10DF50000501317041F64B51C36C1B6AC6F80F3096
:10DF6000C26C936BF3741F0A1B0C37757375D369FE
:10DF7000B2F840708B42D16B3BD9DFF8C0C0ACFB2C
:10DF800001E1ACFB07C7890ABF0AF175C1F307219C
:10DF9000B77531762949A1FB0313C3F38F23737639
:10DFA0001B0AB376938CF3761B0A3377D38C737783
:10DFB0001B0AB377D2F8CF30C6F81F3092F8D330AF
:10DFC00096F8242086F82330C36C22F01F0293F8C1
:10DFD000DA3003F01F03134386F8243007F060F9AA
:10DFE00096F8243003F01F0343EA401386F82430E8
:10DFF00059E7DFF84CC0ACFB01E1ACFB07C74909AE
:10E000007F09F175C1F30721B775A3F57A773176EA
:10E0100041F270718F42BDD80A49A1FB03139B09DD
:10E0200003F550639BB2BAE740F237613220FBF749
:10E030000DFB00BFBC0B0021008000415917B7D178
:10E040001F85EB51D34D621010B508F00DF80B4A47
:10E050000B4B1468187094F885301BB911F03EF81A
:10E06000032010BD11F004FD10F00CFA002384F819
:10E07000853011F033F8032010BD00BFBC0B002128
:10E080001000002170B51F4C0E20236893F8B110CA
:10E0900010F086FD236893F85030032B29D1656872
:10E0A0005DB3284611F03CFC236893F8B13013F0BF
:10E0B0000C030CBF1846282011F090FC2668681D40
:10E0C00096F8B15007F092FD236886F8850093F822
:10E0D000852052B115F00C0F14BF5525502510F0B6
